{
	"contracts/FundMe.sol": {
		"FundMe": {
			"abi": [
				{
					"inputs": [],
					"name": "fund",
					"outputs": [],
					"stateMutability": "payable",
					"type": "function"
				}
			],
			"devdoc": {
				"kind": "dev",
				"methods": {},
				"version": 1
			},
			"evm": {
				"assembly": "    /* \"contracts/FundMe.sol\":57:458  contract FundMe {... */\n  mstore(0x40, 0x80)\n  callvalue\n  dup1\n  iszero\n  tag_1\n  jumpi\n  0x00\n  dup1\n  revert\ntag_1:\n  pop\n  dataSize(sub_0)\n  dup1\n  dataOffset(sub_0)\n  0x00\n  codecopy\n  0x00\n  return\nstop\n\nsub_0: assembly {\n        /* \"contracts/FundMe.sol\":57:458  contract FundMe {... */\n      mstore(0x40, 0x80)\n      jumpi(tag_1, lt(calldatasize, 0x04))\n      shr(0xe0, calldataload(0x00))\n      dup1\n      0xb60d4288\n      eq\n      tag_2\n      jumpi\n    tag_1:\n      0x00\n      dup1\n      revert\n        /* \"contracts/FundMe.sol\":151:456  function fund() public payable{... */\n    tag_2:\n      tag_3\n      tag_4\n      jump\t// in\n    tag_3:\n      stop\n    tag_4:\n        /* \"contracts/FundMe.sol\":391:395  1e18 */\n      0x0de0b6b3a7640000\n        /* \"contracts/FundMe.sol\":379:388  msg.value */\n      callvalue\n        /* \"contracts/FundMe.sol\":379:395  msg.value > 1e18 */\n      gt\n        /* \"contracts/FundMe.sol\":371:418  require(msg.value > 1e18, \"Didn't sned enough\") */\n      tag_6\n      jumpi\n      mload(0x40)\n      0x08c379a000000000000000000000000000000000000000000000000000000000\n      dup2\n      mstore\n      0x04\n      add\n      tag_7\n      swap1\n      tag_8\n      jump\t// in\n    tag_7:\n      mload(0x40)\n      dup1\n      swap2\n      sub\n      swap1\n      revert\n    tag_6:\n        /* \"contracts/FundMe.sol\":151:456  function fund() public payable{... */\n      jump\t// out\n        /* \"#utility.yul\":7:176   */\n    tag_9:\n        /* \"#utility.yul\":91:102   */\n      0x00\n        /* \"#utility.yul\":125:131   */\n      dup3\n        /* \"#utility.yul\":120:123   */\n      dup3\n        /* \"#utility.yul\":113:132   */\n      mstore\n        /* \"#utility.yul\":165:169   */\n      0x20\n        /* \"#utility.yul\":160:163   */\n      dup3\n        /* \"#utility.yul\":156:170   */\n      add\n        /* \"#utility.yul\":141:170   */\n      swap1\n      pop\n        /* \"#utility.yul\":7:176   */\n      swap3\n      swap2\n      pop\n      pop\n      jump\t// out\n        /* \"#utility.yul\":182:350   */\n    tag_10:\n        /* \"#utility.yul\":322:342   */\n      0x4469646e277420736e656420656e6f7567680000000000000000000000000000\n        /* \"#utility.yul\":318:319   */\n      0x00\n        /* \"#utility.yul\":310:316   */\n      dup3\n        /* \"#utility.yul\":306:320   */\n      add\n        /* \"#utility.yul\":299:343   */\n      mstore\n        /* \"#utility.yul\":182:350   */\n      pop\n      jump\t// out\n        /* \"#utility.yul\":356:722   */\n    tag_11:\n        /* \"#utility.yul\":498:501   */\n      0x00\n        /* \"#utility.yul\":519:586   */\n      tag_16\n        /* \"#utility.yul\":583:585   */\n      0x12\n        /* \"#utility.yul\":578:581   */\n      dup4\n        /* \"#utility.yul\":519:586   */\n      tag_9\n      jump\t// in\n    tag_16:\n        /* \"#utility.yul\":512:586   */\n      swap2\n      pop\n        /* \"#utility.yul\":595:688   */\n      tag_17\n        /* \"#utility.yul\":684:687   */\n      dup3\n        /* \"#utility.yul\":595:688   */\n      tag_10\n      jump\t// in\n    tag_17:\n        /* \"#utility.yul\":713:715   */\n      0x20\n        /* \"#utility.yul\":708:711   */\n      dup3\n        /* \"#utility.yul\":704:716   */\n      add\n        /* \"#utility.yul\":697:716   */\n      swap1\n      pop\n        /* \"#utility.yul\":356:722   */\n      swap2\n      swap1\n      pop\n      jump\t// out\n        /* \"#utility.yul\":728:1147   */\n    tag_8:\n        /* \"#utility.yul\":894:898   */\n      0x00\n        /* \"#utility.yul\":932:934   */\n      0x20\n        /* \"#utility.yul\":921:930   */\n      dup3\n        /* \"#utility.yul\":917:935   */\n      add\n        /* \"#utility.yul\":909:935   */\n      swap1\n      pop\n        /* \"#utility.yul\":981:990   */\n      dup2\n        /* \"#utility.yul\":975:979   */\n      dup2\n        /* \"#utility.yul\":971:991   */\n      sub\n        /* \"#utility.yul\":967:968   */\n      0x00\n        /* \"#utility.yul\":956:965   */\n      dup4\n        /* \"#utility.yul\":952:969   */\n      add\n        /* \"#utility.yul\":945:992   */\n      mstore\n        /* \"#utility.yul\":1009:1140   */\n      tag_19\n        /* \"#utility.yul\":1135:1139   */\n      dup2\n        /* \"#utility.yul\":1009:1140   */\n      tag_11\n      jump\t// in\n    tag_19:\n        /* \"#utility.yul\":1001:1140   */\n      swap1\n      pop\n        /* \"#utility.yul\":728:1147   */\n      swap2\n      swap1\n      pop\n      jump\t// out\n\n    auxdata: 0xa2646970667358221220d67252fad134a9e3840d97f96dff23c802d52c8f338d59565d4ea1023772692f64736f6c63430008080033\n}\n",
				"bytecode": {
					"linkReferences": {},
					"object": "608060405234801561001057600080fd5b5061011f806100206000396000f3fe608060405260043610601c5760003560e01c8063b60d4288146021575b600080fd5b60276029565b005b670de0b6b3a764000034116070576040517f08c379a000000000000000000000000000000000000000000000000000000000815260040160679060cb565b60405180910390fd5b565b600082825260208201905092915050565b7f4469646e277420736e656420656e6f7567680000000000000000000000000000600082015250565b600060b76012836072565b915060c0826083565b602082019050919050565b6000602082019050818103600083015260e28160ac565b905091905056fea2646970667358221220d67252fad134a9e3840d97f96dff23c802d52c8f338d59565d4ea1023772692f64736f6c63430008080033",
					"opcodes": "PUSH1 0x80 PUSH1 0x40 MSTORE CALLVALUE DUP1 ISZERO PUSH2 0x10 JUMPI PUSH1 0x0 DUP1 REVERT JUMPDEST POP PUSH2 0x11F DUP1 PUSH2 0x20 PUSH1 0x0 CODECOPY PUSH1 0x0 RETURN INVALID PUSH1 0x80 PUSH1 0x40 MSTORE PUSH1 0x4 CALLDATASIZE LT PUSH1 0x1C JUMPI PUSH1 0x0 CALLDATALOAD PUSH1 0xE0 SHR DUP1 PUSH4 0xB60D4288 EQ PUSH1 0x21 JUMPI JUMPDEST PUSH1 0x0 DUP1 REVERT JUMPDEST PUSH1 0x27 PUSH1 0x29 JUMP JUMPDEST STOP JUMPDEST PUSH8 0xDE0B6B3A7640000 CALLVALUE GT PUSH1 0x70 JUMPI PUSH1 0x40 MLOAD PUSH32 0x8C379A000000000000000000000000000000000000000000000000000000000 DUP2 MSTORE PUSH1 0x4 ADD PUSH1 0x67 SWAP1 PUSH1 0xCB JUMP JUMPDEST PUSH1 0x40 MLOAD DUP1 SWAP2 SUB SWAP1 REVERT JUMPDEST JUMP JUMPDEST PUSH1 0x0 DUP3 DUP3 MSTORE PUSH1 0x20 DUP3 ADD SWAP1 POP SWAP3 SWAP2 POP POP JUMP JUMPDEST PUSH32 0x4469646E277420736E656420656E6F7567680000000000000000000000000000 PUSH1 0x0 DUP3 ADD MSTORE POP JUMP JUMPDEST PUSH1 0x0 PUSH1 0xB7 PUSH1 0x12 DUP4 PUSH1 0x72 JUMP JUMPDEST SWAP2 POP PUSH1 0xC0 DUP3 PUSH1 0x83 JUMP JUMPDEST PUSH1 0x20 DUP3 ADD SWAP1 POP SWAP2 SWAP1 POP JUMP JUMPDEST PUSH1 0x0 PUSH1 0x20 DUP3 ADD SWAP1 POP DUP2 DUP2 SUB PUSH1 0x0 DUP4 ADD MSTORE PUSH1 0xE2 DUP2 PUSH1 0xAC JUMP JUMPDEST SWAP1 POP SWAP2 SWAP1 POP JUMP INVALID LOG2 PUSH5 0x6970667358 0x22 SLT KECCAK256 0xD6 PUSH19 0x52FAD134A9E3840D97F96DFF23C802D52C8F33 DUP14 MSIZE JUMP 0x5D 0x4E LOG1 MUL CALLDATACOPY PUSH19 0x692F64736F6C63430008080033000000000000 "
				},
				"gasEstimates": {
					"creation": {
						"codeDepositCost": "57400",
						"executionCost": "105",
						"totalCost": "57505"
					},
					"external": {
						"fund()": "409"
					}
				},
				"methodIdentifiers": {
					"fund()": "b60d4288"
				}
			},
			"storageLayout": {
				"storage": [],
				"types": null
			},
			"userdoc": {
				"kind": "user",
				"methods": {},
				"version": 1
			}
		}
	}
}