{
	"contracts/FundMe.sol": {
		"FundMe": {
			"abi": [
				{
					"inputs": [
						{
							"internalType": "address",
							"name": "",
							"type": "address"
						}
					],
					"name": "addressToAmountFunded",
					"outputs": [
						{
							"internalType": "uint256",
							"name": "",
							"type": "uint256"
						}
					],
					"stateMutability": "view",
					"type": "function"
				},
				{
					"inputs": [],
					"name": "fund",
					"outputs": [],
					"stateMutability": "payable",
					"type": "function"
				},
				{
					"inputs": [
						{
							"internalType": "uint256",
							"name": "",
							"type": "uint256"
						}
					],
					"name": "funders",
					"outputs": [
						{
							"internalType": "address",
							"name": "",
							"type": "address"
						}
					],
					"stateMutability": "view",
					"type": "function"
				},
				{
					"inputs": [
						{
							"internalType": "uint256",
							"name": "ethAmount",
							"type": "uint256"
						}
					],
					"name": "getConversionRate",
					"outputs": [
						{
							"internalType": "uint256",
							"name": "",
							"type": "uint256"
						}
					],
					"stateMutability": "view",
					"type": "function"
				},
				{
					"inputs": [],
					"name": "getPrice",
					"outputs": [
						{
							"internalType": "uint256",
							"name": "",
							"type": "uint256"
						}
					],
					"stateMutability": "view",
					"type": "function"
				},
				{
					"inputs": [],
					"name": "getVersion",
					"outputs": [
						{
							"internalType": "uint256",
							"name": "",
							"type": "uint256"
						}
					],
					"stateMutability": "view",
					"type": "function"
				},
				{
					"inputs": [],
					"name": "minimumUsd",
					"outputs": [
						{
							"internalType": "uint256",
							"name": "",
							"type": "uint256"
						}
					],
					"stateMutability": "view",
					"type": "function"
				}
			],
			"devdoc": {
				"kind": "dev",
				"methods": {},
				"version": 1
			},
			"evm": {
				"assembly": "    /* \"contracts/FundMe.sol\":213:2316  contract FundMe {... */\n  mstore(0x40, 0x80)\n    /* \"contracts/FundMe.sol\":263:272  50 * 1e18 */\n  0x02b5e3af16b1880000\n    /* \"contracts/FundMe.sol\":235:272  uint256 public minimumUsd = 50 * 1e18 */\n  0x00\n  sstore\n    /* \"contracts/FundMe.sol\":213:2316  contract FundMe {... */\n  callvalue\n  dup1\n  iszero\n  tag_1\n  jumpi\n  0x00\n  dup1\n  revert\ntag_1:\n  pop\n  dataSize(sub_0)\n  dup1\n  dataOffset(sub_0)\n  0x00\n  codecopy\n  0x00\n  return\nstop\n\nsub_0: assembly {\n        /* \"contracts/FundMe.sol\":213:2316  contract FundMe {... */\n      mstore(0x40, 0x80)\n      jumpi(tag_1, lt(calldatasize, 0x04))\n      shr(0xe0, calldataload(0x00))\n      dup1\n      0x6e5b6b28\n      gt\n      tag_9\n      jumpi\n      dup1\n      0x6e5b6b28\n      eq\n      tag_5\n      jumpi\n      dup1\n      0x98d5fdca\n      eq\n      tag_6\n      jumpi\n      dup1\n      0xb60d4288\n      eq\n      tag_7\n      jumpi\n      dup1\n      0xdc0d3dff\n      eq\n      tag_8\n      jumpi\n      jump(tag_1)\n    tag_9:\n      dup1\n      0x098de820\n      eq\n      tag_2\n      jumpi\n      dup1\n      0x0d8e6e2c\n      eq\n      tag_3\n      jumpi\n      dup1\n      0x3e47d6f3\n      eq\n      tag_4\n      jumpi\n    tag_1:\n      0x00\n      dup1\n      revert\n        /* \"contracts/FundMe.sol\":235:272  uint256 public minimumUsd = 50 * 1e18 */\n    tag_2:\n      callvalue\n      dup1\n      iszero\n      tag_10\n      jumpi\n      0x00\n      dup1\n      revert\n    tag_10:\n      pop\n      tag_11\n      tag_12\n      jump\t// in\n    tag_11:\n      mload(0x40)\n      tag_13\n      swap2\n      swap1\n      tag_14\n      jump\t// in\n    tag_13:\n      mload(0x40)\n      dup1\n      swap2\n      sub\n      swap1\n      return\n        /* \"contracts/FundMe.sol\":1634:1837  function getVersion() public view returns(uint256) {... */\n    tag_3:\n      callvalue\n      dup1\n      iszero\n      tag_15\n      jumpi\n      0x00\n      dup1\n      revert\n    tag_15:\n      pop\n      tag_16\n      tag_17\n      jump\t// in\n    tag_16:\n      mload(0x40)\n      tag_18\n      swap2\n      swap1\n      tag_14\n      jump\t// in\n    tag_18:\n      mload(0x40)\n      dup1\n      swap2\n      sub\n      swap1\n      return\n        /* \"contracts/FundMe.sol\":377:433  mapping(address => uint256) public addressToAmountFunded */\n    tag_4:\n      callvalue\n      dup1\n      iszero\n      tag_19\n      jumpi\n      0x00\n      dup1\n      revert\n    tag_19:\n      pop\n      tag_20\n      0x04\n      dup1\n      calldatasize\n      sub\n      dup2\n      add\n      swap1\n      tag_21\n      swap2\n      swap1\n      tag_22\n      jump\t// in\n    tag_21:\n      tag_23\n      jump\t// in\n    tag_20:\n      mload(0x40)\n      tag_24\n      swap2\n      swap1\n      tag_14\n      jump\t// in\n    tag_24:\n      mload(0x40)\n      dup1\n      swap2\n      sub\n      swap1\n      return\n        /* \"contracts/FundMe.sol\":1843:2291  function getConversionRate(uint256 ethAmount) public view returns(uint){... */\n    tag_5:\n      callvalue\n      dup1\n      iszero\n      tag_25\n      jumpi\n      0x00\n      dup1\n      revert\n    tag_25:\n      pop\n      tag_26\n      0x04\n      dup1\n      calldatasize\n      sub\n      dup2\n      add\n      swap1\n      tag_27\n      swap2\n      swap1\n      tag_28\n      jump\t// in\n    tag_27:\n      tag_29\n      jump\t// in\n    tag_26:\n      mload(0x40)\n      tag_30\n      swap2\n      swap1\n      tag_14\n      jump\t// in\n    tag_30:\n      mload(0x40)\n      dup1\n      swap2\n      sub\n      swap1\n      return\n        /* \"contracts/FundMe.sol\":920:1628  function getPrice() public view returns(uint256){... */\n    tag_6:\n      callvalue\n      dup1\n      iszero\n      tag_31\n      jumpi\n      0x00\n      dup1\n      revert\n    tag_31:\n      pop\n      tag_32\n      tag_33\n      jump\t// in\n    tag_32:\n      mload(0x40)\n      tag_34\n      swap2\n      swap1\n      tag_14\n      jump\t// in\n    tag_34:\n      mload(0x40)\n      dup1\n      swap2\n      sub\n      swap1\n      return\n        /* \"contracts/FundMe.sol\":512:914  function fund() public payable{... */\n    tag_7:\n      tag_35\n      tag_36\n      jump\t// in\n    tag_35:\n      stop\n        /* \"contracts/FundMe.sol\":279:303  address[] public funders */\n    tag_8:\n      callvalue\n      dup1\n      iszero\n      tag_37\n      jumpi\n      0x00\n      dup1\n      revert\n    tag_37:\n      pop\n      tag_38\n      0x04\n      dup1\n      calldatasize\n      sub\n      dup2\n      add\n      swap1\n      tag_39\n      swap2\n      swap1\n      tag_28\n      jump\t// in\n    tag_39:\n      tag_40\n      jump\t// in\n    tag_38:\n      mload(0x40)\n      tag_41\n      swap2\n      swap1\n      tag_42\n      jump\t// in\n    tag_41:\n      mload(0x40)\n      dup1\n      swap2\n      sub\n      swap1\n      return\n        /* \"contracts/FundMe.sol\":235:272  uint256 public minimumUsd = 50 * 1e18 */\n    tag_12:\n      sload(0x00)\n      dup2\n      jump\t// out\n        /* \"contracts/FundMe.sol\":1634:1837  function getVersion() public view returns(uint256) {... */\n    tag_17:\n        /* \"contracts/FundMe.sol\":1676:1683  uint256 */\n      0x00\n        /* \"contracts/FundMe.sol\":1695:1726  AggregatorV3Interface priceFeed */\n      dup1\n        /* \"contracts/FundMe.sol\":1751:1793  0xD4a33860578De61DBAbDc8BFdb98FD742fA7028e */\n      0xd4a33860578de61dbabdc8bfdb98fd742fa7028e\n        /* \"contracts/FundMe.sol\":1695:1794  AggregatorV3Interface priceFeed = AggregatorV3Interface(0xD4a33860578De61DBAbDc8BFdb98FD742fA7028e) */\n      swap1\n      pop\n        /* \"contracts/FundMe.sol\":1811:1820  priceFeed */\n      dup1\n        /* \"contracts/FundMe.sol\":1811:1828  priceFeed.version */\n      0xffffffffffffffffffffffffffffffffffffffff\n      and\n      0x54fd4d50\n        /* \"contracts/FundMe.sol\":1811:1830  priceFeed.version() */\n      mload(0x40)\n      dup2\n      0xffffffff\n      and\n      0xe0\n      shl\n      dup2\n      mstore\n      0x04\n      add\n      0x20\n      mload(0x40)\n      dup1\n      dup4\n      sub\n      dup2\n      dup7\n      dup1\n      extcodesize\n      iszero\n      dup1\n      iszero\n      tag_44\n      jumpi\n      0x00\n      dup1\n      revert\n    tag_44:\n      pop\n      gas\n      staticcall\n      iszero\n      dup1\n      iszero\n      tag_46\n      jumpi\n      returndatasize\n      0x00\n      dup1\n      returndatacopy\n      revert(0x00, returndatasize)\n    tag_46:\n      pop\n      pop\n      pop\n      pop\n      mload(0x40)\n      returndatasize\n      not(0x1f)\n      0x1f\n      dup3\n      add\n      and\n      dup3\n      add\n      dup1\n      0x40\n      mstore\n      pop\n      dup2\n      add\n      swap1\n      tag_47\n      swap2\n      swap1\n      tag_48\n      jump\t// in\n    tag_47:\n        /* \"contracts/FundMe.sol\":1804:1830  return priceFeed.version() */\n      swap2\n      pop\n      pop\n        /* \"contracts/FundMe.sol\":1634:1837  function getVersion() public view returns(uint256) {... */\n      swap1\n      jump\t// out\n        /* \"contracts/FundMe.sol\":377:433  mapping(address => uint256) public addressToAmountFunded */\n    tag_23:\n      mstore(0x20, 0x02)\n      dup1\n      0x00\n      mstore\n      keccak256(0x00, 0x40)\n      0x00\n      swap2\n      pop\n      swap1\n      pop\n      sload\n      dup2\n      jump\t// out\n        /* \"contracts/FundMe.sol\":1843:2291  function getConversionRate(uint256 ethAmount) public view returns(uint){... */\n    tag_29:\n        /* \"contracts/FundMe.sol\":1909:1913  uint */\n      0x00\n        /* \"contracts/FundMe.sol\":2038:2054  uint256 ethPrice */\n      dup1\n        /* \"contracts/FundMe.sol\":2057:2067  getPrice() */\n      tag_50\n        /* \"contracts/FundMe.sol\":2057:2065  getPrice */\n      tag_33\n        /* \"contracts/FundMe.sol\":2057:2067  getPrice() */\n      jump\t// in\n    tag_50:\n        /* \"contracts/FundMe.sol\":2038:2067  uint256 ethPrice = getPrice() */\n      swap1\n      pop\n        /* \"contracts/FundMe.sol\":2199:2221  uint256 ethAmountUnUsd */\n      0x00\n        /* \"contracts/FundMe.sol\":2249:2253  1e18 */\n      0x0de0b6b3a7640000\n        /* \"contracts/FundMe.sol\":2236:2245  ethAmount */\n      dup5\n        /* \"contracts/FundMe.sol\":2225:2233  ethPrice */\n      dup4\n        /* \"contracts/FundMe.sol\":2225:2245  ethPrice * ethAmount */\n      tag_51\n      swap2\n      swap1\n      tag_52\n      jump\t// in\n    tag_51:\n        /* \"contracts/FundMe.sol\":2224:2253  (ethPrice * ethAmount) / 1e18 */\n      tag_53\n      swap2\n      swap1\n      tag_54\n      jump\t// in\n    tag_53:\n        /* \"contracts/FundMe.sol\":2199:2253  uint256 ethAmountUnUsd = (ethPrice * ethAmount) / 1e18 */\n      swap1\n      pop\n        /* \"contracts/FundMe.sol\":2270:2284  ethAmountUnUsd */\n      dup1\n        /* \"contracts/FundMe.sol\":2263:2284  return ethAmountUnUsd */\n      swap3\n      pop\n      pop\n      pop\n        /* \"contracts/FundMe.sol\":1843:2291  function getConversionRate(uint256 ethAmount) public view returns(uint){... */\n      swap2\n      swap1\n      pop\n      jump\t// out\n        /* \"contracts/FundMe.sol\":920:1628  function getPrice() public view returns(uint256){... */\n    tag_33:\n        /* \"contracts/FundMe.sol\":960:967  uint256 */\n      0x00\n        /* \"contracts/FundMe.sol\":1054:1085  AggregatorV3Interface priceFeed */\n      dup1\n        /* \"contracts/FundMe.sol\":1110:1152  0xD4a33860578De61DBAbDc8BFdb98FD742fA7028e */\n      0xd4a33860578de61dbabdc8bfdb98fd742fa7028e\n        /* \"contracts/FundMe.sol\":1054:1153  AggregatorV3Interface priceFeed = AggregatorV3Interface(0xD4a33860578De61DBAbDc8BFdb98FD742fA7028e) */\n      swap1\n      pop\n        /* \"contracts/FundMe.sol\":1417:1429  int256 price */\n      0x00\n        /* \"contracts/FundMe.sol\":1436:1445  priceFeed */\n      dup2\n        /* \"contracts/FundMe.sol\":1436:1461  priceFeed.latestRoundData */\n      0xffffffffffffffffffffffffffffffffffffffff\n      and\n      0xfeaf968c\n        /* \"contracts/FundMe.sol\":1436:1463  priceFeed.latestRoundData() */\n      mload(0x40)\n      dup2\n      0xffffffff\n      and\n      0xe0\n      shl\n      dup2\n      mstore\n      0x04\n      add\n      0xa0\n      mload(0x40)\n      dup1\n      dup4\n      sub\n      dup2\n      dup7\n      dup1\n      extcodesize\n      iszero\n      dup1\n      iszero\n      tag_56\n      jumpi\n      0x00\n      dup1\n      revert\n    tag_56:\n      pop\n      gas\n      staticcall\n      iszero\n      dup1\n      iszero\n      tag_58\n      jumpi\n      returndatasize\n      0x00\n      dup1\n      returndatacopy\n      revert(0x00, returndatasize)\n    tag_58:\n      pop\n      pop\n      pop\n      pop\n      mload(0x40)\n      returndatasize\n      not(0x1f)\n      0x1f\n      dup3\n      add\n      and\n      dup3\n      add\n      dup1\n      0x40\n      mstore\n      pop\n      dup2\n      add\n      swap1\n      tag_59\n      swap2\n      swap1\n      tag_60\n      jump\t// in\n    tag_59:\n        /* \"contracts/FundMe.sol\":1415:1463  (,int256 price,,,) = priceFeed.latestRoundData() */\n      pop\n      pop\n      pop\n      swap2\n      pop\n      pop\n        /* \"contracts/FundMe.sol\":1594:1598  1e10 */\n      0x02540be400\n        /* \"contracts/FundMe.sol\":1586:1591  price */\n      dup2\n        /* \"contracts/FundMe.sol\":1586:1598  price * 1e10 */\n      tag_61\n      swap2\n      swap1\n      tag_62\n      jump\t// in\n    tag_61:\n        /* \"contracts/FundMe.sol\":1571:1599  return uint256(price * 1e10) */\n      swap3\n      pop\n      pop\n      pop\n        /* \"contracts/FundMe.sol\":920:1628  function getPrice() public view returns(uint256){... */\n      swap1\n      jump\t// out\n        /* \"contracts/FundMe.sol\":512:914  function fund() public payable{... */\n    tag_36:\n        /* \"contracts/FundMe.sol\":752:762  minimumUsd */\n      sload(0x00)\n        /* \"contracts/FundMe.sol\":740:749  msg.value */\n      callvalue\n        /* \"contracts/FundMe.sol\":740:762  msg.value > minimumUsd */\n      gt\n        /* \"contracts/FundMe.sol\":732:785  require(msg.value > minimumUsd, \"Didn't sned enough\") */\n      tag_64\n      jumpi\n      mload(0x40)\n      0x08c379a000000000000000000000000000000000000000000000000000000000\n      dup2\n      mstore\n      0x04\n      add\n      tag_65\n      swap1\n      tag_66\n      jump\t// in\n    tag_65:\n      mload(0x40)\n      dup1\n      swap2\n      sub\n      swap1\n      revert\n    tag_64:\n        /* \"contracts/FundMe.sol\":827:834  funders */\n      0x01\n        /* \"contracts/FundMe.sol\":840:850  msg.sender */\n      caller\n        /* \"contracts/FundMe.sol\":827:851  funders.push(msg.sender) */\n      swap1\n      dup1\n      0x01\n      dup2\n      sload\n      add\n      dup1\n      dup3\n      sstore\n      dup1\n      swap2\n      pop\n      pop\n      0x01\n      swap1\n      sub\n      swap1\n      0x00\n      mstore\n      keccak256(0x00, 0x20)\n      add\n      0x00\n      swap1\n      swap2\n      swap1\n      swap2\n      swap1\n      swap2\n      0x0100\n      exp\n      dup2\n      sload\n      dup2\n      0xffffffffffffffffffffffffffffffffffffffff\n      mul\n      not\n      and\n      swap1\n      dup4\n      0xffffffffffffffffffffffffffffffffffffffff\n      and\n      mul\n      or\n      swap1\n      sstore\n      pop\n        /* \"contracts/FundMe.sol\":898:907  msg.value */\n      callvalue\n        /* \"contracts/FundMe.sol\":862:883  addressToAmountFunded */\n      0x02\n        /* \"contracts/FundMe.sol\":862:895  addressToAmountFunded[msg.sender] */\n      0x00\n        /* \"contracts/FundMe.sol\":884:894  msg.sender */\n      caller\n        /* \"contracts/FundMe.sol\":862:895  addressToAmountFunded[msg.sender] */\n      0xffffffffffffffffffffffffffffffffffffffff\n      and\n      0xffffffffffffffffffffffffffffffffffffffff\n      and\n      dup2\n      mstore\n      0x20\n      add\n      swap1\n      dup2\n      mstore\n      0x20\n      add\n      0x00\n      keccak256\n        /* \"contracts/FundMe.sol\":862:907  addressToAmountFunded[msg.sender] = msg.value */\n      dup2\n      swap1\n      sstore\n      pop\n        /* \"contracts/FundMe.sol\":512:914  function fund() public payable{... */\n      jump\t// out\n        /* \"contracts/FundMe.sol\":279:303  address[] public funders */\n    tag_40:\n      0x01\n      dup2\n      dup2\n      sload\n      dup2\n      lt\n      tag_68\n      jumpi\n      0x00\n      dup1\n      revert\n    tag_68:\n      swap1\n      0x00\n      mstore\n      keccak256(0x00, 0x20)\n      add\n      0x00\n      swap2\n      pop\n      sload\n      swap1\n      0x0100\n      exp\n      swap1\n      div\n      0xffffffffffffffffffffffffffffffffffffffff\n      and\n      dup2\n      jump\t// out\n        /* \"#utility.yul\":7:84   */\n    tag_70:\n        /* \"#utility.yul\":44:51   */\n      0x00\n        /* \"#utility.yul\":73:78   */\n      dup2\n        /* \"#utility.yul\":62:78   */\n      swap1\n      pop\n        /* \"#utility.yul\":7:84   */\n      swap2\n      swap1\n      pop\n      jump\t// out\n        /* \"#utility.yul\":90:208   */\n    tag_71:\n        /* \"#utility.yul\":177:201   */\n      tag_97\n        /* \"#utility.yul\":195:200   */\n      dup2\n        /* \"#utility.yul\":177:201   */\n      tag_70\n      jump\t// in\n    tag_97:\n        /* \"#utility.yul\":172:175   */\n      dup3\n        /* \"#utility.yul\":165:202   */\n      mstore\n        /* \"#utility.yul\":90:208   */\n      pop\n      pop\n      jump\t// out\n        /* \"#utility.yul\":214:436   */\n    tag_14:\n        /* \"#utility.yul\":307:311   */\n      0x00\n        /* \"#utility.yul\":345:347   */\n      0x20\n        /* \"#utility.yul\":334:343   */\n      dup3\n        /* \"#utility.yul\":330:348   */\n      add\n        /* \"#utility.yul\":322:348   */\n      swap1\n      pop\n        /* \"#utility.yul\":358:429   */\n      tag_99\n        /* \"#utility.yul\":426:427   */\n      0x00\n        /* \"#utility.yul\":415:424   */\n      dup4\n        /* \"#utility.yul\":411:428   */\n      add\n        /* \"#utility.yul\":402:408   */\n      dup5\n        /* \"#utility.yul\":358:429   */\n      tag_71\n      jump\t// in\n    tag_99:\n        /* \"#utility.yul\":214:436   */\n      swap3\n      swap2\n      pop\n      pop\n      jump\t// out\n        /* \"#utility.yul\":523:640   */\n    tag_73:\n        /* \"#utility.yul\":632:633   */\n      0x00\n        /* \"#utility.yul\":629:630   */\n      dup1\n        /* \"#utility.yul\":622:634   */\n      revert\n        /* \"#utility.yul\":769:895   */\n    tag_75:\n        /* \"#utility.yul\":806:813   */\n      0x00\n        /* \"#utility.yul\":846:888   */\n      0xffffffffffffffffffffffffffffffffffffffff\n        /* \"#utility.yul\":839:844   */\n      dup3\n        /* \"#utility.yul\":835:889   */\n      and\n        /* \"#utility.yul\":824:889   */\n      swap1\n      pop\n        /* \"#utility.yul\":769:895   */\n      swap2\n      swap1\n      pop\n      jump\t// out\n        /* \"#utility.yul\":901:997   */\n    tag_76:\n        /* \"#utility.yul\":938:945   */\n      0x00\n        /* \"#utility.yul\":967:991   */\n      tag_105\n        /* \"#utility.yul\":985:990   */\n      dup3\n        /* \"#utility.yul\":967:991   */\n      tag_75\n      jump\t// in\n    tag_105:\n        /* \"#utility.yul\":956:991   */\n      swap1\n      pop\n        /* \"#utility.yul\":901:997   */\n      swap2\n      swap1\n      pop\n      jump\t// out\n        /* \"#utility.yul\":1003:1125   */\n    tag_77:\n        /* \"#utility.yul\":1076:1100   */\n      tag_107\n        /* \"#utility.yul\":1094:1099   */\n      dup2\n        /* \"#utility.yul\":1076:1100   */\n      tag_76\n      jump\t// in\n    tag_107:\n        /* \"#utility.yul\":1069:1074   */\n      dup2\n        /* \"#utility.yul\":1066:1101   */\n      eq\n        /* \"#utility.yul\":1056:1119   */\n      tag_108\n      jumpi\n        /* \"#utility.yul\":1115:1116   */\n      0x00\n        /* \"#utility.yul\":1112:1113   */\n      dup1\n        /* \"#utility.yul\":1105:1117   */\n      revert\n        /* \"#utility.yul\":1056:1119   */\n    tag_108:\n        /* \"#utility.yul\":1003:1125   */\n      pop\n      jump\t// out\n        /* \"#utility.yul\":1131:1270   */\n    tag_78:\n        /* \"#utility.yul\":1177:1182   */\n      0x00\n        /* \"#utility.yul\":1215:1221   */\n      dup2\n        /* \"#utility.yul\":1202:1222   */\n      calldataload\n        /* \"#utility.yul\":1193:1222   */\n      swap1\n      pop\n        /* \"#utility.yul\":1231:1264   */\n      tag_110\n        /* \"#utility.yul\":1258:1263   */\n      dup2\n        /* \"#utility.yul\":1231:1264   */\n      tag_77\n      jump\t// in\n    tag_110:\n        /* \"#utility.yul\":1131:1270   */\n      swap3\n      swap2\n      pop\n      pop\n      jump\t// out\n        /* \"#utility.yul\":1276:1605   */\n    tag_22:\n        /* \"#utility.yul\":1335:1341   */\n      0x00\n        /* \"#utility.yul\":1384:1386   */\n      0x20\n        /* \"#utility.yul\":1372:1381   */\n      dup3\n        /* \"#utility.yul\":1363:1370   */\n      dup5\n        /* \"#utility.yul\":1359:1382   */\n      sub\n        /* \"#utility.yul\":1355:1387   */\n      slt\n        /* \"#utility.yul\":1352:1471   */\n      iszero\n      tag_112\n      jumpi\n        /* \"#utility.yul\":1390:1469   */\n      tag_113\n      tag_73\n      jump\t// in\n    tag_113:\n        /* \"#utility.yul\":1352:1471   */\n    tag_112:\n        /* \"#utility.yul\":1510:1511   */\n      0x00\n        /* \"#utility.yul\":1535:1588   */\n      tag_114\n        /* \"#utility.yul\":1580:1587   */\n      dup5\n        /* \"#utility.yul\":1571:1577   */\n      dup3\n        /* \"#utility.yul\":1560:1569   */\n      dup6\n        /* \"#utility.yul\":1556:1578   */\n      add\n        /* \"#utility.yul\":1535:1588   */\n      tag_78\n      jump\t// in\n    tag_114:\n        /* \"#utility.yul\":1525:1588   */\n      swap2\n      pop\n        /* \"#utility.yul\":1481:1598   */\n      pop\n        /* \"#utility.yul\":1276:1605   */\n      swap3\n      swap2\n      pop\n      pop\n      jump\t// out\n        /* \"#utility.yul\":1611:1733   */\n    tag_79:\n        /* \"#utility.yul\":1684:1708   */\n      tag_116\n        /* \"#utility.yul\":1702:1707   */\n      dup2\n        /* \"#utility.yul\":1684:1708   */\n      tag_70\n      jump\t// in\n    tag_116:\n        /* \"#utility.yul\":1677:1682   */\n      dup2\n        /* \"#utility.yul\":1674:1709   */\n      eq\n        /* \"#utility.yul\":1664:1727   */\n      tag_117\n      jumpi\n        /* \"#utility.yul\":1723:1724   */\n      0x00\n        /* \"#utility.yul\":1720:1721   */\n      dup1\n        /* \"#utility.yul\":1713:1725   */\n      revert\n        /* \"#utility.yul\":1664:1727   */\n    tag_117:\n        /* \"#utility.yul\":1611:1733   */\n      pop\n      jump\t// out\n        /* \"#utility.yul\":1739:1878   */\n    tag_80:\n        /* \"#utility.yul\":1785:1790   */\n      0x00\n        /* \"#utility.yul\":1823:1829   */\n      dup2\n        /* \"#utility.yul\":1810:1830   */\n      calldataload\n        /* \"#utility.yul\":1801:1830   */\n      swap1\n      pop\n        /* \"#utility.yul\":1839:1872   */\n      tag_119\n        /* \"#utility.yul\":1866:1871   */\n      dup2\n        /* \"#utility.yul\":1839:1872   */\n      tag_79\n      jump\t// in\n    tag_119:\n        /* \"#utility.yul\":1739:1878   */\n      swap3\n      swap2\n      pop\n      pop\n      jump\t// out\n        /* \"#utility.yul\":1884:2213   */\n    tag_28:\n        /* \"#utility.yul\":1943:1949   */\n      0x00\n        /* \"#utility.yul\":1992:1994   */\n      0x20\n        /* \"#utility.yul\":1980:1989   */\n      dup3\n        /* \"#utility.yul\":1971:1978   */\n      dup5\n        /* \"#utility.yul\":1967:1990   */\n      sub\n        /* \"#utility.yul\":1963:1995   */\n      slt\n        /* \"#utility.yul\":1960:2079   */\n      iszero\n      tag_121\n      jumpi\n        /* \"#utility.yul\":1998:2077   */\n      tag_122\n      tag_73\n      jump\t// in\n    tag_122:\n        /* \"#utility.yul\":1960:2079   */\n    tag_121:\n        /* \"#utility.yul\":2118:2119   */\n      0x00\n        /* \"#utility.yul\":2143:2196   */\n      tag_123\n        /* \"#utility.yul\":2188:2195   */\n      dup5\n        /* \"#utility.yul\":2179:2185   */\n      dup3\n        /* \"#utility.yul\":2168:2177   */\n      dup6\n        /* \"#utility.yul\":2164:2186   */\n      add\n        /* \"#utility.yul\":2143:2196   */\n      tag_80\n      jump\t// in\n    tag_123:\n        /* \"#utility.yul\":2133:2196   */\n      swap2\n      pop\n        /* \"#utility.yul\":2089:2206   */\n      pop\n        /* \"#utility.yul\":1884:2213   */\n      swap3\n      swap2\n      pop\n      pop\n      jump\t// out\n        /* \"#utility.yul\":2219:2337   */\n    tag_81:\n        /* \"#utility.yul\":2306:2330   */\n      tag_125\n        /* \"#utility.yul\":2324:2329   */\n      dup2\n        /* \"#utility.yul\":2306:2330   */\n      tag_76\n      jump\t// in\n    tag_125:\n        /* \"#utility.yul\":2301:2304   */\n      dup3\n        /* \"#utility.yul\":2294:2331   */\n      mstore\n        /* \"#utility.yul\":2219:2337   */\n      pop\n      pop\n      jump\t// out\n        /* \"#utility.yul\":2343:2565   */\n    tag_42:\n        /* \"#utility.yul\":2436:2440   */\n      0x00\n        /* \"#utility.yul\":2474:2476   */\n      0x20\n        /* \"#utility.yul\":2463:2472   */\n      dup3\n        /* \"#utility.yul\":2459:2477   */\n      add\n        /* \"#utility.yul\":2451:2477   */\n      swap1\n      pop\n        /* \"#utility.yul\":2487:2558   */\n      tag_127\n        /* \"#utility.yul\":2555:2556   */\n      0x00\n        /* \"#utility.yul\":2544:2553   */\n      dup4\n        /* \"#utility.yul\":2540:2557   */\n      add\n        /* \"#utility.yul\":2531:2537   */\n      dup5\n        /* \"#utility.yul\":2487:2558   */\n      tag_81\n      jump\t// in\n    tag_127:\n        /* \"#utility.yul\":2343:2565   */\n      swap3\n      swap2\n      pop\n      pop\n      jump\t// out\n        /* \"#utility.yul\":2571:2714   */\n    tag_82:\n        /* \"#utility.yul\":2628:2633   */\n      0x00\n        /* \"#utility.yul\":2659:2665   */\n      dup2\n        /* \"#utility.yul\":2653:2666   */\n      mload\n        /* \"#utility.yul\":2644:2666   */\n      swap1\n      pop\n        /* \"#utility.yul\":2675:2708   */\n      tag_129\n        /* \"#utility.yul\":2702:2707   */\n      dup2\n        /* \"#utility.yul\":2675:2708   */\n      tag_79\n      jump\t// in\n    tag_129:\n        /* \"#utility.yul\":2571:2714   */\n      swap3\n      swap2\n      pop\n      pop\n      jump\t// out\n        /* \"#utility.yul\":2720:3071   */\n    tag_48:\n        /* \"#utility.yul\":2790:2796   */\n      0x00\n        /* \"#utility.yul\":2839:2841   */\n      0x20\n        /* \"#utility.yul\":2827:2836   */\n      dup3\n        /* \"#utility.yul\":2818:2825   */\n      dup5\n        /* \"#utility.yul\":2814:2837   */\n      sub\n        /* \"#utility.yul\":2810:2842   */\n      slt\n        /* \"#utility.yul\":2807:2926   */\n      iszero\n      tag_131\n      jumpi\n        /* \"#utility.yul\":2845:2924   */\n      tag_132\n      tag_73\n      jump\t// in\n    tag_132:\n        /* \"#utility.yul\":2807:2926   */\n    tag_131:\n        /* \"#utility.yul\":2965:2966   */\n      0x00\n        /* \"#utility.yul\":2990:3054   */\n      tag_133\n        /* \"#utility.yul\":3046:3053   */\n      dup5\n        /* \"#utility.yul\":3037:3043   */\n      dup3\n        /* \"#utility.yul\":3026:3035   */\n      dup6\n        /* \"#utility.yul\":3022:3044   */\n      add\n        /* \"#utility.yul\":2990:3054   */\n      tag_82\n      jump\t// in\n    tag_133:\n        /* \"#utility.yul\":2980:3054   */\n      swap2\n      pop\n        /* \"#utility.yul\":2936:3064   */\n      pop\n        /* \"#utility.yul\":2720:3071   */\n      swap3\n      swap2\n      pop\n      pop\n      jump\t// out\n        /* \"#utility.yul\":3077:3257   */\n    tag_83:\n        /* \"#utility.yul\":3125:3202   */\n      0x4e487b7100000000000000000000000000000000000000000000000000000000\n        /* \"#utility.yul\":3122:3123   */\n      0x00\n        /* \"#utility.yul\":3115:3203   */\n      mstore\n        /* \"#utility.yul\":3222:3226   */\n      0x11\n        /* \"#utility.yul\":3219:3220   */\n      0x04\n        /* \"#utility.yul\":3212:3227   */\n      mstore\n        /* \"#utility.yul\":3246:3250   */\n      0x24\n        /* \"#utility.yul\":3243:3244   */\n      0x00\n        /* \"#utility.yul\":3236:3251   */\n      revert\n        /* \"#utility.yul\":3263:3611   */\n    tag_52:\n        /* \"#utility.yul\":3303:3310   */\n      0x00\n        /* \"#utility.yul\":3326:3346   */\n      tag_136\n        /* \"#utility.yul\":3344:3345   */\n      dup3\n        /* \"#utility.yul\":3326:3346   */\n      tag_70\n      jump\t// in\n    tag_136:\n        /* \"#utility.yul\":3321:3346   */\n      swap2\n      pop\n        /* \"#utility.yul\":3360:3380   */\n      tag_137\n        /* \"#utility.yul\":3378:3379   */\n      dup4\n        /* \"#utility.yul\":3360:3380   */\n      tag_70\n      jump\t// in\n    tag_137:\n        /* \"#utility.yul\":3355:3380   */\n      swap3\n      pop\n        /* \"#utility.yul\":3548:3549   */\n      dup2\n        /* \"#utility.yul\":3480:3546   */\n      0xffffffffffffffffffffffffffffffffffffffffffffffffffffffffffffffff\n        /* \"#utility.yul\":3476:3550   */\n      div\n        /* \"#utility.yul\":3473:3474   */\n      dup4\n        /* \"#utility.yul\":3470:3551   */\n      gt\n        /* \"#utility.yul\":3465:3466   */\n      dup3\n        /* \"#utility.yul\":3458:3467   */\n      iszero\n        /* \"#utility.yul\":3451:3468   */\n      iszero\n        /* \"#utility.yul\":3447:3552   */\n      and\n        /* \"#utility.yul\":3444:3575   */\n      iszero\n      tag_138\n      jumpi\n        /* \"#utility.yul\":3555:3573   */\n      tag_139\n      tag_83\n      jump\t// in\n    tag_139:\n        /* \"#utility.yul\":3444:3575   */\n    tag_138:\n        /* \"#utility.yul\":3603:3604   */\n      dup3\n        /* \"#utility.yul\":3600:3601   */\n      dup3\n        /* \"#utility.yul\":3596:3605   */\n      mul\n        /* \"#utility.yul\":3585:3605   */\n      swap1\n      pop\n        /* \"#utility.yul\":3263:3611   */\n      swap3\n      swap2\n      pop\n      pop\n      jump\t// out\n        /* \"#utility.yul\":3617:3797   */\n    tag_84:\n        /* \"#utility.yul\":3665:3742   */\n      0x4e487b7100000000000000000000000000000000000000000000000000000000\n        /* \"#utility.yul\":3662:3663   */\n      0x00\n        /* \"#utility.yul\":3655:3743   */\n      mstore\n        /* \"#utility.yul\":3762:3766   */\n      0x12\n        /* \"#utility.yul\":3759:3760   */\n      0x04\n        /* \"#utility.yul\":3752:3767   */\n      mstore\n        /* \"#utility.yul\":3786:3790   */\n      0x24\n        /* \"#utility.yul\":3783:3784   */\n      0x00\n        /* \"#utility.yul\":3776:3791   */\n      revert\n        /* \"#utility.yul\":3803:3988   */\n    tag_54:\n        /* \"#utility.yul\":3843:3844   */\n      0x00\n        /* \"#utility.yul\":3860:3880   */\n      tag_142\n        /* \"#utility.yul\":3878:3879   */\n      dup3\n        /* \"#utility.yul\":3860:3880   */\n      tag_70\n      jump\t// in\n    tag_142:\n        /* \"#utility.yul\":3855:3880   */\n      swap2\n      pop\n        /* \"#utility.yul\":3894:3914   */\n      tag_143\n        /* \"#utility.yul\":3912:3913   */\n      dup4\n        /* \"#utility.yul\":3894:3914   */\n      tag_70\n      jump\t// in\n    tag_143:\n        /* \"#utility.yul\":3889:3914   */\n      swap3\n      pop\n        /* \"#utility.yul\":3933:3934   */\n      dup3\n        /* \"#utility.yul\":3923:3958   */\n      tag_144\n      jumpi\n        /* \"#utility.yul\":3938:3956   */\n      tag_145\n      tag_84\n      jump\t// in\n    tag_145:\n        /* \"#utility.yul\":3923:3958   */\n    tag_144:\n        /* \"#utility.yul\":3980:3981   */\n      dup3\n        /* \"#utility.yul\":3977:3978   */\n      dup3\n        /* \"#utility.yul\":3973:3982   */\n      div\n        /* \"#utility.yul\":3968:3982   */\n      swap1\n      pop\n        /* \"#utility.yul\":3803:3988   */\n      swap3\n      swap2\n      pop\n      pop\n      jump\t// out\n        /* \"#utility.yul\":3994:4099   */\n    tag_85:\n        /* \"#utility.yul\":4030:4037   */\n      0x00\n        /* \"#utility.yul\":4070:4092   */\n      0xffffffffffffffffffff\n        /* \"#utility.yul\":4063:4068   */\n      dup3\n        /* \"#utility.yul\":4059:4093   */\n      and\n        /* \"#utility.yul\":4048:4093   */\n      swap1\n      pop\n        /* \"#utility.yul\":3994:4099   */\n      swap2\n      swap1\n      pop\n      jump\t// out\n        /* \"#utility.yul\":4105:4225   */\n    tag_86:\n        /* \"#utility.yul\":4177:4200   */\n      tag_148\n        /* \"#utility.yul\":4194:4199   */\n      dup2\n        /* \"#utility.yul\":4177:4200   */\n      tag_85\n      jump\t// in\n    tag_148:\n        /* \"#utility.yul\":4170:4175   */\n      dup2\n        /* \"#utility.yul\":4167:4201   */\n      eq\n        /* \"#utility.yul\":4157:4219   */\n      tag_149\n      jumpi\n        /* \"#utility.yul\":4215:4216   */\n      0x00\n        /* \"#utility.yul\":4212:4213   */\n      dup1\n        /* \"#utility.yul\":4205:4217   */\n      revert\n        /* \"#utility.yul\":4157:4219   */\n    tag_149:\n        /* \"#utility.yul\":4105:4225   */\n      pop\n      jump\t// out\n        /* \"#utility.yul\":4231:4372   */\n    tag_87:\n        /* \"#utility.yul\":4287:4292   */\n      0x00\n        /* \"#utility.yul\":4318:4324   */\n      dup2\n        /* \"#utility.yul\":4312:4325   */\n      mload\n        /* \"#utility.yul\":4303:4325   */\n      swap1\n      pop\n        /* \"#utility.yul\":4334:4366   */\n      tag_151\n        /* \"#utility.yul\":4360:4365   */\n      dup2\n        /* \"#utility.yul\":4334:4366   */\n      tag_86\n      jump\t// in\n    tag_151:\n        /* \"#utility.yul\":4231:4372   */\n      swap3\n      swap2\n      pop\n      pop\n      jump\t// out\n        /* \"#utility.yul\":4378:4454   */\n    tag_88:\n        /* \"#utility.yul\":4414:4421   */\n      0x00\n        /* \"#utility.yul\":4443:4448   */\n      dup2\n        /* \"#utility.yul\":4432:4448   */\n      swap1\n      pop\n        /* \"#utility.yul\":4378:4454   */\n      swap2\n      swap1\n      pop\n      jump\t// out\n        /* \"#utility.yul\":4460:4580   */\n    tag_89:\n        /* \"#utility.yul\":4532:4555   */\n      tag_154\n        /* \"#utility.yul\":4549:4554   */\n      dup2\n        /* \"#utility.yul\":4532:4555   */\n      tag_88\n      jump\t// in\n    tag_154:\n        /* \"#utility.yul\":4525:4530   */\n      dup2\n        /* \"#utility.yul\":4522:4556   */\n      eq\n        /* \"#utility.yul\":4512:4574   */\n      tag_155\n      jumpi\n        /* \"#utility.yul\":4570:4571   */\n      0x00\n        /* \"#utility.yul\":4567:4568   */\n      dup1\n        /* \"#utility.yul\":4560:4572   */\n      revert\n        /* \"#utility.yul\":4512:4574   */\n    tag_155:\n        /* \"#utility.yul\":4460:4580   */\n      pop\n      jump\t// out\n        /* \"#utility.yul\":4586:4727   */\n    tag_90:\n        /* \"#utility.yul\":4642:4647   */\n      0x00\n        /* \"#utility.yul\":4673:4679   */\n      dup2\n        /* \"#utility.yul\":4667:4680   */\n      mload\n        /* \"#utility.yul\":4658:4680   */\n      swap1\n      pop\n        /* \"#utility.yul\":4689:4721   */\n      tag_157\n        /* \"#utility.yul\":4715:4720   */\n      dup2\n        /* \"#utility.yul\":4689:4721   */\n      tag_89\n      jump\t// in\n    tag_157:\n        /* \"#utility.yul\":4586:4727   */\n      swap3\n      swap2\n      pop\n      pop\n      jump\t// out\n        /* \"#utility.yul\":4733:5704   */\n    tag_60:\n        /* \"#utility.yul\":4836:4842   */\n      0x00\n        /* \"#utility.yul\":4844:4850   */\n      dup1\n        /* \"#utility.yul\":4852:4858   */\n      0x00\n        /* \"#utility.yul\":4860:4866   */\n      dup1\n        /* \"#utility.yul\":4868:4874   */\n      0x00\n        /* \"#utility.yul\":4917:4920   */\n      0xa0\n        /* \"#utility.yul\":4905:4914   */\n      dup7\n        /* \"#utility.yul\":4896:4903   */\n      dup9\n        /* \"#utility.yul\":4892:4915   */\n      sub\n        /* \"#utility.yul\":4888:4921   */\n      slt\n        /* \"#utility.yul\":4885:5005   */\n      iszero\n      tag_159\n      jumpi\n        /* \"#utility.yul\":4924:5003   */\n      tag_160\n      tag_73\n      jump\t// in\n    tag_160:\n        /* \"#utility.yul\":4885:5005   */\n    tag_159:\n        /* \"#utility.yul\":5044:5045   */\n      0x00\n        /* \"#utility.yul\":5069:5132   */\n      tag_161\n        /* \"#utility.yul\":5124:5131   */\n      dup9\n        /* \"#utility.yul\":5115:5121   */\n      dup3\n        /* \"#utility.yul\":5104:5113   */\n      dup10\n        /* \"#utility.yul\":5100:5122   */\n      add\n        /* \"#utility.yul\":5069:5132   */\n      tag_87\n      jump\t// in\n    tag_161:\n        /* \"#utility.yul\":5059:5132   */\n      swap6\n      pop\n        /* \"#utility.yul\":5015:5142   */\n      pop\n        /* \"#utility.yul\":5181:5183   */\n      0x20\n        /* \"#utility.yul\":5207:5270   */\n      tag_162\n        /* \"#utility.yul\":5262:5269   */\n      dup9\n        /* \"#utility.yul\":5253:5259   */\n      dup3\n        /* \"#utility.yul\":5242:5251   */\n      dup10\n        /* \"#utility.yul\":5238:5260   */\n      add\n        /* \"#utility.yul\":5207:5270   */\n      tag_90\n      jump\t// in\n    tag_162:\n        /* \"#utility.yul\":5197:5270   */\n      swap5\n      pop\n        /* \"#utility.yul\":5152:5280   */\n      pop\n        /* \"#utility.yul\":5319:5321   */\n      0x40\n        /* \"#utility.yul\":5345:5409   */\n      tag_163\n        /* \"#utility.yul\":5401:5408   */\n      dup9\n        /* \"#utility.yul\":5392:5398   */\n      dup3\n        /* \"#utility.yul\":5381:5390   */\n      dup10\n        /* \"#utility.yul\":5377:5399   */\n      add\n        /* \"#utility.yul\":5345:5409   */\n      tag_82\n      jump\t// in\n    tag_163:\n        /* \"#utility.yul\":5335:5409   */\n      swap4\n      pop\n        /* \"#utility.yul\":5290:5419   */\n      pop\n        /* \"#utility.yul\":5458:5460   */\n      0x60\n        /* \"#utility.yul\":5484:5548   */\n      tag_164\n        /* \"#utility.yul\":5540:5547   */\n      dup9\n        /* \"#utility.yul\":5531:5537   */\n      dup3\n        /* \"#utility.yul\":5520:5529   */\n      dup10\n        /* \"#utility.yul\":5516:5538   */\n      add\n        /* \"#utility.yul\":5484:5548   */\n      tag_82\n      jump\t// in\n    tag_164:\n        /* \"#utility.yul\":5474:5548   */\n      swap3\n      pop\n        /* \"#utility.yul\":5429:5558   */\n      pop\n        /* \"#utility.yul\":5597:5600   */\n      0x80\n        /* \"#utility.yul\":5624:5687   */\n      tag_165\n        /* \"#utility.yul\":5679:5686   */\n      dup9\n        /* \"#utility.yul\":5670:5676   */\n      dup3\n        /* \"#utility.yul\":5659:5668   */\n      dup10\n        /* \"#utility.yul\":5655:5677   */\n      add\n        /* \"#utility.yul\":5624:5687   */\n      tag_87\n      jump\t// in\n    tag_165:\n        /* \"#utility.yul\":5614:5687   */\n      swap2\n      pop\n        /* \"#utility.yul\":5568:5697   */\n      pop\n        /* \"#utility.yul\":4733:5704   */\n      swap3\n      swap6\n      pop\n      swap3\n      swap6\n      swap1\n      swap4\n      pop\n      jump\t// out\n        /* \"#utility.yul\":5710:6701   */\n    tag_62:\n        /* \"#utility.yul\":5749:5756   */\n      0x00\n        /* \"#utility.yul\":5772:5791   */\n      tag_167\n        /* \"#utility.yul\":5789:5790   */\n      dup3\n        /* \"#utility.yul\":5772:5791   */\n      tag_88\n      jump\t// in\n    tag_167:\n        /* \"#utility.yul\":5767:5791   */\n      swap2\n      pop\n        /* \"#utility.yul\":5805:5824   */\n      tag_168\n        /* \"#utility.yul\":5822:5823   */\n      dup4\n        /* \"#utility.yul\":5805:5824   */\n      tag_88\n      jump\t// in\n    tag_168:\n        /* \"#utility.yul\":5800:5824   */\n      swap3\n      pop\n        /* \"#utility.yul\":6006:6007   */\n      dup3\n        /* \"#utility.yul\":5938:6004   */\n      0x7fffffffffffffffffffffffffffffffffffffffffffffffffffffffffffffff\n        /* \"#utility.yul\":5934:6008   */\n      div\n        /* \"#utility.yul\":5931:5932   */\n      dup3\n        /* \"#utility.yul\":5928:6009   */\n      gt\n        /* \"#utility.yul\":5923:5924   */\n      0x00\n        /* \"#utility.yul\":5920:5921   */\n      dup5\n        /* \"#utility.yul\":5916:5925   */\n      sgt\n        /* \"#utility.yul\":5912:5913   */\n      0x00\n        /* \"#utility.yul\":5909:5910   */\n      dup5\n        /* \"#utility.yul\":5905:5914   */\n      sgt\n        /* \"#utility.yul\":5901:5926   */\n      and\n        /* \"#utility.yul\":5897:6010   */\n      and\n        /* \"#utility.yul\":5894:6033   */\n      iszero\n      tag_169\n      jumpi\n        /* \"#utility.yul\":6013:6031   */\n      tag_170\n      tag_83\n      jump\t// in\n    tag_170:\n        /* \"#utility.yul\":5894:6033   */\n    tag_169:\n        /* \"#utility.yul\":6217:6218   */\n      dup2\n        /* \"#utility.yul\":6149:6215   */\n      0x8000000000000000000000000000000000000000000000000000000000000000\n        /* \"#utility.yul\":6144:6219   */\n      sdiv\n        /* \"#utility.yul\":6141:6142   */\n      dup4\n        /* \"#utility.yul\":6137:6220   */\n      slt\n        /* \"#utility.yul\":6132:6133   */\n      0x00\n        /* \"#utility.yul\":6129:6130   */\n      dup5\n        /* \"#utility.yul\":6125:6134   */\n      slt\n        /* \"#utility.yul\":6121:6122   */\n      0x00\n        /* \"#utility.yul\":6118:6119   */\n      dup5\n        /* \"#utility.yul\":6114:6123   */\n      sgt\n        /* \"#utility.yul\":6110:6135   */\n      and\n        /* \"#utility.yul\":6106:6221   */\n      and\n        /* \"#utility.yul\":6103:6244   */\n      iszero\n      tag_171\n      jumpi\n        /* \"#utility.yul\":6224:6242   */\n      tag_172\n      tag_83\n      jump\t// in\n    tag_172:\n        /* \"#utility.yul\":6103:6244   */\n    tag_171:\n        /* \"#utility.yul\":6428:6429   */\n      dup3\n        /* \"#utility.yul\":6360:6426   */\n      0x8000000000000000000000000000000000000000000000000000000000000000\n        /* \"#utility.yul\":6355:6430   */\n      sdiv\n        /* \"#utility.yul\":6352:6353   */\n      dup3\n        /* \"#utility.yul\":6348:6431   */\n      slt\n        /* \"#utility.yul\":6343:6344   */\n      0x00\n        /* \"#utility.yul\":6340:6341   */\n      dup5\n        /* \"#utility.yul\":6336:6345   */\n      sgt\n        /* \"#utility.yul\":6332:6333   */\n      0x00\n        /* \"#utility.yul\":6329:6330   */\n      dup5\n        /* \"#utility.yul\":6325:6334   */\n      slt\n        /* \"#utility.yul\":6321:6346   */\n      and\n        /* \"#utility.yul\":6317:6432   */\n      and\n        /* \"#utility.yul\":6314:6455   */\n      iszero\n      tag_173\n      jumpi\n        /* \"#utility.yul\":6435:6453   */\n      tag_174\n      tag_83\n      jump\t// in\n    tag_174:\n        /* \"#utility.yul\":6314:6455   */\n    tag_173:\n        /* \"#utility.yul\":6638:6639   */\n      dup3\n        /* \"#utility.yul\":6570:6636   */\n      0x7fffffffffffffffffffffffffffffffffffffffffffffffffffffffffffffff\n        /* \"#utility.yul\":6565:6640   */\n      sdiv\n        /* \"#utility.yul\":6562:6563   */\n      dup3\n        /* \"#utility.yul\":6558:6641   */\n      slt\n        /* \"#utility.yul\":6553:6554   */\n      0x00\n        /* \"#utility.yul\":6550:6551   */\n      dup5\n        /* \"#utility.yul\":6546:6555   */\n      slt\n        /* \"#utility.yul\":6542:6543   */\n      0x00\n        /* \"#utility.yul\":6539:6540   */\n      dup5\n        /* \"#utility.yul\":6535:6544   */\n      slt\n        /* \"#utility.yul\":6531:6556   */\n      and\n        /* \"#utility.yul\":6527:6642   */\n      and\n        /* \"#utility.yul\":6524:6665   */\n      iszero\n      tag_175\n      jumpi\n        /* \"#utility.yul\":6645:6663   */\n      tag_176\n      tag_83\n      jump\t// in\n    tag_176:\n        /* \"#utility.yul\":6524:6665   */\n    tag_175:\n        /* \"#utility.yul\":6693:6694   */\n      dup3\n        /* \"#utility.yul\":6690:6691   */\n      dup3\n        /* \"#utility.yul\":6686:6695   */\n      mul\n        /* \"#utility.yul\":6675:6695   */\n      swap1\n      pop\n        /* \"#utility.yul\":5710:6701   */\n      swap3\n      swap2\n      pop\n      pop\n      jump\t// out\n        /* \"#utility.yul\":6707:6876   */\n    tag_91:\n        /* \"#utility.yul\":6791:6802   */\n      0x00\n        /* \"#utility.yul\":6825:6831   */\n      dup3\n        /* \"#utility.yul\":6820:6823   */\n      dup3\n        /* \"#utility.yul\":6813:6832   */\n      mstore\n        /* \"#utility.yul\":6865:6869   */\n      0x20\n        /* \"#utility.yul\":6860:6863   */\n      dup3\n        /* \"#utility.yul\":6856:6870   */\n      add\n        /* \"#utility.yul\":6841:6870   */\n      swap1\n      pop\n        /* \"#utility.yul\":6707:6876   */\n      swap3\n      swap2\n      pop\n      pop\n      jump\t// out\n        /* \"#utility.yul\":6882:7050   */\n    tag_92:\n        /* \"#utility.yul\":7022:7042   */\n      0x4469646e277420736e656420656e6f7567680000000000000000000000000000\n        /* \"#utility.yul\":7018:7019   */\n      0x00\n        /* \"#utility.yul\":7010:7016   */\n      dup3\n        /* \"#utility.yul\":7006:7020   */\n      add\n        /* \"#utility.yul\":6999:7043   */\n      mstore\n        /* \"#utility.yul\":6882:7050   */\n      pop\n      jump\t// out\n        /* \"#utility.yul\":7056:7422   */\n    tag_93:\n        /* \"#utility.yul\":7198:7201   */\n      0x00\n        /* \"#utility.yul\":7219:7286   */\n      tag_180\n        /* \"#utility.yul\":7283:7285   */\n      0x12\n        /* \"#utility.yul\":7278:7281   */\n      dup4\n        /* \"#utility.yul\":7219:7286   */\n      tag_91\n      jump\t// in\n    tag_180:\n        /* \"#utility.yul\":7212:7286   */\n      swap2\n      pop\n        /* \"#utility.yul\":7295:7388   */\n      tag_181\n        /* \"#utility.yul\":7384:7387   */\n      dup3\n        /* \"#utility.yul\":7295:7388   */\n      tag_92\n      jump\t// in\n    tag_181:\n        /* \"#utility.yul\":7413:7415   */\n      0x20\n        /* \"#utility.yul\":7408:7411   */\n      dup3\n        /* \"#utility.yul\":7404:7416   */\n      add\n        /* \"#utility.yul\":7397:7416   */\n      swap1\n      pop\n        /* \"#utility.yul\":7056:7422   */\n      swap2\n      swap1\n      pop\n      jump\t// out\n        /* \"#utility.yul\":7428:7847   */\n    tag_66:\n        /* \"#utility.yul\":7594:7598   */\n      0x00\n        /* \"#utility.yul\":7632:7634   */\n      0x20\n        /* \"#utility.yul\":7621:7630   */\n      dup3\n        /* \"#utility.yul\":7617:7635   */\n      add\n        /* \"#utility.yul\":7609:7635   */\n      swap1\n      pop\n        /* \"#utility.yul\":7681:7690   */\n      dup2\n        /* \"#utility.yul\":7675:7679   */\n      dup2\n        /* \"#utility.yul\":7671:7691   */\n      sub\n        /* \"#utility.yul\":7667:7668   */\n      0x00\n        /* \"#utility.yul\":7656:7665   */\n      dup4\n        /* \"#utility.yul\":7652:7669   */\n      add\n        /* \"#utility.yul\":7645:7692   */\n      mstore\n        /* \"#utility.yul\":7709:7840   */\n      tag_183\n        /* \"#utility.yul\":7835:7839   */\n      dup2\n        /* \"#utility.yul\":7709:7840   */\n      tag_93\n      jump\t// in\n    tag_183:\n        /* \"#utility.yul\":7701:7840   */\n      swap1\n      pop\n        /* \"#utility.yul\":7428:7847   */\n      swap2\n      swap1\n      pop\n      jump\t// out\n\n    auxdata: 0xa26469706673582212208c4354f7ad05cde30ae440d1ea9e3b3664ecbfba768968ee9828c4ad498efde764736f6c63430008080033\n}\n",
				"bytecode": {
					"linkReferences": {},
					"object": "60806040526802b5e3af16b188000060005534801561001d57600080fd5b506109c08061002d6000396000f3fe6080604052600436106100705760003560e01c80636e5b6b281161004e5780636e5b6b281461010857806398d5fdca14610145578063b60d428814610170578063dc0d3dff1461017a57610070565b8063098de820146100755780630d8e6e2c146100a05780633e47d6f3146100cb575b600080fd5b34801561008157600080fd5b5061008a6101b7565b60405161009791906104aa565b60405180910390f35b3480156100ac57600080fd5b506100b56101bd565b6040516100c291906104aa565b60405180910390f35b3480156100d757600080fd5b506100f260048036038101906100ed9190610528565b61025b565b6040516100ff91906104aa565b60405180910390f35b34801561011457600080fd5b5061012f600480360381019061012a9190610581565b610273565b60405161013c91906104aa565b60405180910390f35b34801561015157600080fd5b5061015a6102ad565b60405161016791906104aa565b60405180910390f35b610178610365565b005b34801561018657600080fd5b506101a1600480360381019061019c9190610581565b610452565b6040516101ae91906105bd565b60405180910390f35b60005481565b60008073d4a33860578de61dbabdc8bfdb98fd742fa7028e90508073ffffffffffffffffffffffffffffffffffffffff166354fd4d506040518163ffffffff1660e01b815260040160206040518083038186803b15801561021d57600080fd5b505afa158015610231573d6000803e3d6000fd5b505050506040513d601f19601f8201168201806040525081019061025591906105ed565b91505090565b60026020528060005260406000206000915090505481565b60008061027e6102ad565b90506000670de0b6b3a764000084836102979190610649565b6102a191906106d2565b90508092505050919050565b60008073d4a33860578de61dbabdc8bfdb98fd742fa7028e905060008173ffffffffffffffffffffffffffffffffffffffff1663feaf968c6040518163ffffffff1660e01b815260040160a06040518083038186803b15801561030f57600080fd5b505afa158015610323573d6000803e3d6000fd5b505050506040513d601f19601f82011682018060405250810190610347919061077b565b5050509150506402540be4008161035e91906107f6565b9250505090565b60005434116103a9576040517f08c379a00000000000000000000000000000000000000000000000000000000081526004016103a09061096a565b60405180910390fd5b6001339080600181540180825580915050600190039060005260206000200160009091909190916101000a81548173ffffffffffffffffffffffffffffffffffffffff021916908373ffffffffffffffffffffffffffffffffffffffff16021790555034600260003373ffffffffffffffffffffffffffffffffffffffff1673ffffffffffffffffffffffffffffffffffffffff16815260200190815260200160002081905550565b6001818154811061046257600080fd5b906000526020600020016000915054906101000a900473ffffffffffffffffffffffffffffffffffffffff1681565b6000819050919050565b6104a481610491565b82525050565b60006020820190506104bf600083018461049b565b92915050565b600080fd5b600073ffffffffffffffffffffffffffffffffffffffff82169050919050565b60006104f5826104ca565b9050919050565b610505816104ea565b811461051057600080fd5b50565b600081359050610522816104fc565b92915050565b60006020828403121561053e5761053d6104c5565b5b600061054c84828501610513565b91505092915050565b61055e81610491565b811461056957600080fd5b50565b60008135905061057b81610555565b92915050565b600060208284031215610597576105966104c5565b5b60006105a58482850161056c565b91505092915050565b6105b7816104ea565b82525050565b60006020820190506105d260008301846105ae565b92915050565b6000815190506105e781610555565b92915050565b600060208284031215610603576106026104c5565b5b6000610611848285016105d8565b91505092915050565b7f4e487b7100000000000000000000000000000000000000000000000000000000600052601160045260246000fd5b600061065482610491565b915061065f83610491565b9250817fffffffffffffffffffffffffffffffffffffffffffffffffffffffffffffffff04831182151516156106985761069761061a565b5b828202905092915050565b7f4e487b7100000000000000000000000000000000000000000000000000000000600052601260045260246000fd5b60006106dd82610491565b91506106e883610491565b9250826106f8576106f76106a3565b5b828204905092915050565b600069ffffffffffffffffffff82169050919050565b61072281610703565b811461072d57600080fd5b50565b60008151905061073f81610719565b92915050565b6000819050919050565b61075881610745565b811461076357600080fd5b50565b6000815190506107758161074f565b92915050565b600080600080600060a08688031215610797576107966104c5565b5b60006107a588828901610730565b95505060206107b688828901610766565b94505060406107c7888289016105d8565b93505060606107d8888289016105d8565b92505060806107e988828901610730565b9150509295509295909350565b600061080182610745565b915061080c83610745565b9250827f7fffffffffffffffffffffffffffffffffffffffffffffffffffffffffffffff048211600084136000841316161561084b5761084a61061a565b5b817f800000000000000000000000000000000000000000000000000000000000000005831260008412600084131616156108885761088761061a565b5b827f800000000000000000000000000000000000000000000000000000000000000005821260008413600084121616156108c5576108c461061a565b5b827f7fffffffffffffffffffffffffffffffffffffffffffffffffffffffffffffff05821260008412600084121616156109025761090161061a565b5b828202905092915050565b600082825260208201905092915050565b7f4469646e277420736e656420656e6f7567680000000000000000000000000000600082015250565b600061095460128361090d565b915061095f8261091e565b602082019050919050565b6000602082019050818103600083015261098381610947565b905091905056fea26469706673582212208c4354f7ad05cde30ae440d1ea9e3b3664ecbfba768968ee9828c4ad498efde764736f6c63430008080033",
					"opcodes": "PUSH1 0x80 PUSH1 0x40 MSTORE PUSH9 0x2B5E3AF16B1880000 PUSH1 0x0 SSTORE CALLVALUE DUP1 ISZERO PUSH2 0x1D JUMPI PUSH1 0x0 DUP1 REVERT JUMPDEST POP PUSH2 0x9C0 DUP1 PUSH2 0x2D PUSH1 0x0 CODECOPY PUSH1 0x0 RETURN INVALID PUSH1 0x80 PUSH1 0x40 MSTORE PUSH1 0x4 CALLDATASIZE LT PUSH2 0x70 JUMPI PUSH1 0x0 CALLDATALOAD PUSH1 0xE0 SHR DUP1 PUSH4 0x6E5B6B28 GT PUSH2 0x4E JUMPI DUP1 PUSH4 0x6E5B6B28 EQ PUSH2 0x108 JUMPI DUP1 PUSH4 0x98D5FDCA EQ PUSH2 0x145 JUMPI DUP1 PUSH4 0xB60D4288 EQ PUSH2 0x170 JUMPI DUP1 PUSH4 0xDC0D3DFF EQ PUSH2 0x17A JUMPI PUSH2 0x70 JUMP JUMPDEST DUP1 PUSH4 0x98DE820 EQ PUSH2 0x75 JUMPI DUP1 PUSH4 0xD8E6E2C EQ PUSH2 0xA0 JUMPI DUP1 PUSH4 0x3E47D6F3 EQ PUSH2 0xCB JUMPI JUMPDEST PUSH1 0x0 DUP1 REVERT JUMPDEST CALLVALUE DUP1 ISZERO PUSH2 0x81 JUMPI PUSH1 0x0 DUP1 REVERT JUMPDEST POP PUSH2 0x8A PUSH2 0x1B7 JUMP JUMPDEST PUSH1 0x40 MLOAD PUSH2 0x97 SWAP2 SWAP1 PUSH2 0x4AA JUMP JUMPDEST PUSH1 0x40 MLOAD DUP1 SWAP2 SUB SWAP1 RETURN JUMPDEST CALLVALUE DUP1 ISZERO PUSH2 0xAC JUMPI PUSH1 0x0 DUP1 REVERT JUMPDEST POP PUSH2 0xB5 PUSH2 0x1BD JUMP JUMPDEST PUSH1 0x40 MLOAD PUSH2 0xC2 SWAP2 SWAP1 PUSH2 0x4AA JUMP JUMPDEST PUSH1 0x40 MLOAD DUP1 SWAP2 SUB SWAP1 RETURN JUMPDEST CALLVALUE DUP1 ISZERO PUSH2 0xD7 JUMPI PUSH1 0x0 DUP1 REVERT JUMPDEST POP PUSH2 0xF2 PUSH1 0x4 DUP1 CALLDATASIZE SUB DUP2 ADD SWAP1 PUSH2 0xED SWAP2 SWAP1 PUSH2 0x528 JUMP JUMPDEST PUSH2 0x25B JUMP JUMPDEST PUSH1 0x40 MLOAD PUSH2 0xFF SWAP2 SWAP1 PUSH2 0x4AA JUMP JUMPDEST PUSH1 0x40 MLOAD DUP1 SWAP2 SUB SWAP1 RETURN JUMPDEST CALLVALUE DUP1 ISZERO PUSH2 0x114 JUMPI PUSH1 0x0 DUP1 REVERT JUMPDEST POP PUSH2 0x12F PUSH1 0x4 DUP1 CALLDATASIZE SUB DUP2 ADD SWAP1 PUSH2 0x12A SWAP2 SWAP1 PUSH2 0x581 JUMP JUMPDEST PUSH2 0x273 JUMP JUMPDEST PUSH1 0x40 MLOAD PUSH2 0x13C SWAP2 SWAP1 PUSH2 0x4AA JUMP JUMPDEST PUSH1 0x40 MLOAD DUP1 SWAP2 SUB SWAP1 RETURN JUMPDEST CALLVALUE DUP1 ISZERO PUSH2 0x151 JUMPI PUSH1 0x0 DUP1 REVERT JUMPDEST POP PUSH2 0x15A PUSH2 0x2AD JUMP JUMPDEST PUSH1 0x40 MLOAD PUSH2 0x167 SWAP2 SWAP1 PUSH2 0x4AA JUMP JUMPDEST PUSH1 0x40 MLOAD DUP1 SWAP2 SUB SWAP1 RETURN JUMPDEST PUSH2 0x178 PUSH2 0x365 JUMP JUMPDEST STOP JUMPDEST CALLVALUE DUP1 ISZERO PUSH2 0x186 JUMPI PUSH1 0x0 DUP1 REVERT JUMPDEST POP PUSH2 0x1A1 PUSH1 0x4 DUP1 CALLDATASIZE SUB DUP2 ADD SWAP1 PUSH2 0x19C SWAP2 SWAP1 PUSH2 0x581 JUMP JUMPDEST PUSH2 0x452 JUMP JUMPDEST PUSH1 0x40 MLOAD PUSH2 0x1AE SWAP2 SWAP1 PUSH2 0x5BD JUMP JUMPDEST PUSH1 0x40 MLOAD DUP1 SWAP2 SUB SWAP1 RETURN JUMPDEST PUSH1 0x0 SLOAD DUP2 JUMP JUMPDEST PUSH1 0x0 DUP1 PUSH20 0xD4A33860578DE61DBABDC8BFDB98FD742FA7028E SWAP1 POP DUP1 PUSH20 0xFFFFFFFFFFFFFFFFFFFFFFFFFFFFFFFFFFFFFFFF AND PUSH4 0x54FD4D50 PUSH1 0x40 MLOAD DUP2 PUSH4 0xFFFFFFFF AND PUSH1 0xE0 SHL DUP2 MSTORE PUSH1 0x4 ADD PUSH1 0x20 PUSH1 0x40 MLOAD DUP1 DUP4 SUB DUP2 DUP7 DUP1 EXTCODESIZE ISZERO DUP1 ISZERO PUSH2 0x21D JUMPI PUSH1 0x0 DUP1 REVERT JUMPDEST POP GAS STATICCALL ISZERO DUP1 ISZERO PUSH2 0x231 JUMPI RETURNDATASIZE PUSH1 0x0 DUP1 RETURNDATACOPY RETURNDATASIZE PUSH1 0x0 REVERT JUMPDEST POP POP POP POP PUSH1 0x40 MLOAD RETURNDATASIZE PUSH1 0x1F NOT PUSH1 0x1F DUP3 ADD AND DUP3 ADD DUP1 PUSH1 0x40 MSTORE POP DUP2 ADD SWAP1 PUSH2 0x255 SWAP2 SWAP1 PUSH2 0x5ED JUMP JUMPDEST SWAP2 POP POP SWAP1 JUMP JUMPDEST PUSH1 0x2 PUSH1 0x20 MSTORE DUP1 PUSH1 0x0 MSTORE PUSH1 0x40 PUSH1 0x0 KECCAK256 PUSH1 0x0 SWAP2 POP SWAP1 POP SLOAD DUP2 JUMP JUMPDEST PUSH1 0x0 DUP1 PUSH2 0x27E PUSH2 0x2AD JUMP JUMPDEST SWAP1 POP PUSH1 0x0 PUSH8 0xDE0B6B3A7640000 DUP5 DUP4 PUSH2 0x297 SWAP2 SWAP1 PUSH2 0x649 JUMP JUMPDEST PUSH2 0x2A1 SWAP2 SWAP1 PUSH2 0x6D2 JUMP JUMPDEST SWAP1 POP DUP1 SWAP3 POP POP POP SWAP2 SWAP1 POP JUMP JUMPDEST PUSH1 0x0 DUP1 PUSH20 0xD4A33860578DE61DBABDC8BFDB98FD742FA7028E SWAP1 POP PUSH1 0x0 DUP2 PUSH20 0xFFFFFFFFFFFFFFFFFFFFFFFFFFFFFFFFFFFFFFFF AND PUSH4 0xFEAF968C PUSH1 0x40 MLOAD DUP2 PUSH4 0xFFFFFFFF AND PUSH1 0xE0 SHL DUP2 MSTORE PUSH1 0x4 ADD PUSH1 0xA0 PUSH1 0x40 MLOAD DUP1 DUP4 SUB DUP2 DUP7 DUP1 EXTCODESIZE ISZERO DUP1 ISZERO PUSH2 0x30F JUMPI PUSH1 0x0 DUP1 REVERT JUMPDEST POP GAS STATICCALL ISZERO DUP1 ISZERO PUSH2 0x323 JUMPI RETURNDATASIZE PUSH1 0x0 DUP1 RETURNDATACOPY RETURNDATASIZE PUSH1 0x0 REVERT JUMPDEST POP POP POP POP PUSH1 0x40 MLOAD RETURNDATASIZE PUSH1 0x1F NOT PUSH1 0x1F DUP3 ADD AND DUP3 ADD DUP1 PUSH1 0x40 MSTORE POP DUP2 ADD SWAP1 PUSH2 0x347 SWAP2 SWAP1 PUSH2 0x77B JUMP JUMPDEST POP POP POP SWAP2 POP POP PUSH5 0x2540BE400 DUP2 PUSH2 0x35E SWAP2 SWAP1 PUSH2 0x7F6 JUMP JUMPDEST SWAP3 POP POP POP SWAP1 JUMP JUMPDEST PUSH1 0x0 SLOAD CALLVALUE GT PUSH2 0x3A9 JUMPI PUSH1 0x40 MLOAD PUSH32 0x8C379A000000000000000000000000000000000000000000000000000000000 DUP2 MSTORE PUSH1 0x4 ADD PUSH2 0x3A0 SWAP1 PUSH2 0x96A JUMP JUMPDEST PUSH1 0x40 MLOAD DUP1 SWAP2 SUB SWAP1 REVERT JUMPDEST PUSH1 0x1 CALLER SWAP1 DUP1 PUSH1 0x1 DUP2 SLOAD ADD DUP1 DUP3 SSTORE DUP1 SWAP2 POP POP PUSH1 0x1 SWAP1 SUB SWAP1 PUSH1 0x0 MSTORE PUSH1 0x20 PUSH1 0x0 KECCAK256 ADD PUSH1 0x0 SWAP1 SWAP2 SWAP1 SWAP2 SWAP1 SWAP2 PUSH2 0x100 EXP DUP2 SLOAD DUP2 PUSH20 0xFFFFFFFFFFFFFFFFFFFFFFFFFFFFFFFFFFFFFFFF MUL NOT AND SWAP1 DUP4 PUSH20 0xFFFFFFFFFFFFFFFFFFFFFFFFFFFFFFFFFFFFFFFF AND MUL OR SWAP1 SSTORE POP CALLVALUE PUSH1 0x2 PUSH1 0x0 CALLER PUSH20 0xFFFFFFFFFFFFFFFFFFFFFFFFFFFFFFFFFFFFFFFF AND PUSH20 0xFFFFFFFFFFFFFFFFFFFFFFFFFFFFFFFFFFFFFFFF AND DUP2 MSTORE PUSH1 0x20 ADD SWAP1 DUP2 MSTORE PUSH1 0x20 ADD PUSH1 0x0 KECCAK256 DUP2 SWAP1 SSTORE POP JUMP JUMPDEST PUSH1 0x1 DUP2 DUP2 SLOAD DUP2 LT PUSH2 0x462 JUMPI PUSH1 0x0 DUP1 REVERT JUMPDEST SWAP1 PUSH1 0x0 MSTORE PUSH1 0x20 PUSH1 0x0 KECCAK256 ADD PUSH1 0x0 SWAP2 POP SLOAD SWAP1 PUSH2 0x100 EXP SWAP1 DIV PUSH20 0xFFFFFFFFFFFFFFFFFFFFFFFFFFFFFFFFFFFFFFFF AND DUP2 JUMP JUMPDEST PUSH1 0x0 DUP2 SWAP1 POP SWAP2 SWAP1 POP JUMP JUMPDEST PUSH2 0x4A4 DUP2 PUSH2 0x491 JUMP JUMPDEST DUP3 MSTORE POP POP JUMP JUMPDEST PUSH1 0x0 PUSH1 0x20 DUP3 ADD SWAP1 POP PUSH2 0x4BF PUSH1 0x0 DUP4 ADD DUP5 PUSH2 0x49B JUMP JUMPDEST SWAP3 SWAP2 POP POP JUMP JUMPDEST PUSH1 0x0 DUP1 REVERT JUMPDEST PUSH1 0x0 PUSH20 0xFFFFFFFFFFFFFFFFFFFFFFFFFFFFFFFFFFFFFFFF DUP3 AND SWAP1 POP SWAP2 SWAP1 POP JUMP JUMPDEST PUSH1 0x0 PUSH2 0x4F5 DUP3 PUSH2 0x4CA JUMP JUMPDEST SWAP1 POP SWAP2 SWAP1 POP JUMP JUMPDEST PUSH2 0x505 DUP2 PUSH2 0x4EA JUMP JUMPDEST DUP2 EQ PUSH2 0x510 JUMPI PUSH1 0x0 DUP1 REVERT JUMPDEST POP JUMP JUMPDEST PUSH1 0x0 DUP2 CALLDATALOAD SWAP1 POP PUSH2 0x522 DUP2 PUSH2 0x4FC JUMP JUMPDEST SWAP3 SWAP2 POP POP JUMP JUMPDEST PUSH1 0x0 PUSH1 0x20 DUP3 DUP5 SUB SLT ISZERO PUSH2 0x53E JUMPI PUSH2 0x53D PUSH2 0x4C5 JUMP JUMPDEST JUMPDEST PUSH1 0x0 PUSH2 0x54C DUP5 DUP3 DUP6 ADD PUSH2 0x513 JUMP JUMPDEST SWAP2 POP POP SWAP3 SWAP2 POP POP JUMP JUMPDEST PUSH2 0x55E DUP2 PUSH2 0x491 JUMP JUMPDEST DUP2 EQ PUSH2 0x569 JUMPI PUSH1 0x0 DUP1 REVERT JUMPDEST POP JUMP JUMPDEST PUSH1 0x0 DUP2 CALLDATALOAD SWAP1 POP PUSH2 0x57B DUP2 PUSH2 0x555 JUMP JUMPDEST SWAP3 SWAP2 POP POP JUMP JUMPDEST PUSH1 0x0 PUSH1 0x20 DUP3 DUP5 SUB SLT ISZERO PUSH2 0x597 JUMPI PUSH2 0x596 PUSH2 0x4C5 JUMP JUMPDEST JUMPDEST PUSH1 0x0 PUSH2 0x5A5 DUP5 DUP3 DUP6 ADD PUSH2 0x56C JUMP JUMPDEST SWAP2 POP POP SWAP3 SWAP2 POP POP JUMP JUMPDEST PUSH2 0x5B7 DUP2 PUSH2 0x4EA JUMP JUMPDEST DUP3 MSTORE POP POP JUMP JUMPDEST PUSH1 0x0 PUSH1 0x20 DUP3 ADD SWAP1 POP PUSH2 0x5D2 PUSH1 0x0 DUP4 ADD DUP5 PUSH2 0x5AE JUMP JUMPDEST SWAP3 SWAP2 POP POP JUMP JUMPDEST PUSH1 0x0 DUP2 MLOAD SWAP1 POP PUSH2 0x5E7 DUP2 PUSH2 0x555 JUMP JUMPDEST SWAP3 SWAP2 POP POP JUMP JUMPDEST PUSH1 0x0 PUSH1 0x20 DUP3 DUP5 SUB SLT ISZERO PUSH2 0x603 JUMPI PUSH2 0x602 PUSH2 0x4C5 JUMP JUMPDEST JUMPDEST PUSH1 0x0 PUSH2 0x611 DUP5 DUP3 DUP6 ADD PUSH2 0x5D8 JUMP JUMPDEST SWAP2 POP POP SWAP3 SWAP2 POP POP JUMP JUMPDEST PUSH32 0x4E487B7100000000000000000000000000000000000000000000000000000000 PUSH1 0x0 MSTORE PUSH1 0x11 PUSH1 0x4 MSTORE PUSH1 0x24 PUSH1 0x0 REVERT JUMPDEST PUSH1 0x0 PUSH2 0x654 DUP3 PUSH2 0x491 JUMP JUMPDEST SWAP2 POP PUSH2 0x65F DUP4 PUSH2 0x491 JUMP JUMPDEST SWAP3 POP DUP2 PUSH32 0xFFFFFFFFFFFFFFFFFFFFFFFFFFFFFFFFFFFFFFFFFFFFFFFFFFFFFFFFFFFFFFFF DIV DUP4 GT DUP3 ISZERO ISZERO AND ISZERO PUSH2 0x698 JUMPI PUSH2 0x697 PUSH2 0x61A JUMP JUMPDEST JUMPDEST DUP3 DUP3 MUL SWAP1 POP SWAP3 SWAP2 POP POP JUMP JUMPDEST PUSH32 0x4E487B7100000000000000000000000000000000000000000000000000000000 PUSH1 0x0 MSTORE PUSH1 0x12 PUSH1 0x4 MSTORE PUSH1 0x24 PUSH1 0x0 REVERT JUMPDEST PUSH1 0x0 PUSH2 0x6DD DUP3 PUSH2 0x491 JUMP JUMPDEST SWAP2 POP PUSH2 0x6E8 DUP4 PUSH2 0x491 JUMP JUMPDEST SWAP3 POP DUP3 PUSH2 0x6F8 JUMPI PUSH2 0x6F7 PUSH2 0x6A3 JUMP JUMPDEST JUMPDEST DUP3 DUP3 DIV SWAP1 POP SWAP3 SWAP2 POP POP JUMP JUMPDEST PUSH1 0x0 PUSH10 0xFFFFFFFFFFFFFFFFFFFF DUP3 AND SWAP1 POP SWAP2 SWAP1 POP JUMP JUMPDEST PUSH2 0x722 DUP2 PUSH2 0x703 JUMP JUMPDEST DUP2 EQ PUSH2 0x72D JUMPI PUSH1 0x0 DUP1 REVERT JUMPDEST POP JUMP JUMPDEST PUSH1 0x0 DUP2 MLOAD SWAP1 POP PUSH2 0x73F DUP2 PUSH2 0x719 JUMP JUMPDEST SWAP3 SWAP2 POP POP JUMP JUMPDEST PUSH1 0x0 DUP2 SWAP1 POP SWAP2 SWAP1 POP JUMP JUMPDEST PUSH2 0x758 DUP2 PUSH2 0x745 JUMP JUMPDEST DUP2 EQ PUSH2 0x763 JUMPI PUSH1 0x0 DUP1 REVERT JUMPDEST POP JUMP JUMPDEST PUSH1 0x0 DUP2 MLOAD SWAP1 POP PUSH2 0x775 DUP2 PUSH2 0x74F JUMP JUMPDEST SWAP3 SWAP2 POP POP JUMP JUMPDEST PUSH1 0x0 DUP1 PUSH1 0x0 DUP1 PUSH1 0x0 PUSH1 0xA0 DUP7 DUP9 SUB SLT ISZERO PUSH2 0x797 JUMPI PUSH2 0x796 PUSH2 0x4C5 JUMP JUMPDEST JUMPDEST PUSH1 0x0 PUSH2 0x7A5 DUP9 DUP3 DUP10 ADD PUSH2 0x730 JUMP JUMPDEST SWAP6 POP POP PUSH1 0x20 PUSH2 0x7B6 DUP9 DUP3 DUP10 ADD PUSH2 0x766 JUMP JUMPDEST SWAP5 POP POP PUSH1 0x40 PUSH2 0x7C7 DUP9 DUP3 DUP10 ADD PUSH2 0x5D8 JUMP JUMPDEST SWAP4 POP POP PUSH1 0x60 PUSH2 0x7D8 DUP9 DUP3 DUP10 ADD PUSH2 0x5D8 JUMP JUMPDEST SWAP3 POP POP PUSH1 0x80 PUSH2 0x7E9 DUP9 DUP3 DUP10 ADD PUSH2 0x730 JUMP JUMPDEST SWAP2 POP POP SWAP3 SWAP6 POP SWAP3 SWAP6 SWAP1 SWAP4 POP JUMP JUMPDEST PUSH1 0x0 PUSH2 0x801 DUP3 PUSH2 0x745 JUMP JUMPDEST SWAP2 POP PUSH2 0x80C DUP4 PUSH2 0x745 JUMP JUMPDEST SWAP3 POP DUP3 PUSH32 0x7FFFFFFFFFFFFFFFFFFFFFFFFFFFFFFFFFFFFFFFFFFFFFFFFFFFFFFFFFFFFFFF DIV DUP3 GT PUSH1 0x0 DUP5 SGT PUSH1 0x0 DUP5 SGT AND AND ISZERO PUSH2 0x84B JUMPI PUSH2 0x84A PUSH2 0x61A JUMP JUMPDEST JUMPDEST DUP2 PUSH32 0x8000000000000000000000000000000000000000000000000000000000000000 SDIV DUP4 SLT PUSH1 0x0 DUP5 SLT PUSH1 0x0 DUP5 SGT AND AND ISZERO PUSH2 0x888 JUMPI PUSH2 0x887 PUSH2 0x61A JUMP JUMPDEST JUMPDEST DUP3 PUSH32 0x8000000000000000000000000000000000000000000000000000000000000000 SDIV DUP3 SLT PUSH1 0x0 DUP5 SGT PUSH1 0x0 DUP5 SLT AND AND ISZERO PUSH2 0x8C5 JUMPI PUSH2 0x8C4 PUSH2 0x61A JUMP JUMPDEST JUMPDEST DUP3 PUSH32 0x7FFFFFFFFFFFFFFFFFFFFFFFFFFFFFFFFFFFFFFFFFFFFFFFFFFFFFFFFFFFFFFF SDIV DUP3 SLT PUSH1 0x0 DUP5 SLT PUSH1 0x0 DUP5 SLT AND AND ISZERO PUSH2 0x902 JUMPI PUSH2 0x901 PUSH2 0x61A JUMP JUMPDEST JUMPDEST DUP3 DUP3 MUL SWAP1 POP SWAP3 SWAP2 POP POP JUMP JUMPDEST PUSH1 0x0 DUP3 DUP3 MSTORE PUSH1 0x20 DUP3 ADD SWAP1 POP SWAP3 SWAP2 POP POP JUMP JUMPDEST PUSH32 0x4469646E277420736E656420656E6F7567680000000000000000000000000000 PUSH1 0x0 DUP3 ADD MSTORE POP JUMP JUMPDEST PUSH1 0x0 PUSH2 0x954 PUSH1 0x12 DUP4 PUSH2 0x90D JUMP JUMPDEST SWAP2 POP PUSH2 0x95F DUP3 PUSH2 0x91E JUMP JUMPDEST PUSH1 0x20 DUP3 ADD SWAP1 POP SWAP2 SWAP1 POP JUMP JUMPDEST PUSH1 0x0 PUSH1 0x20 DUP3 ADD SWAP1 POP DUP2 DUP2 SUB PUSH1 0x0 DUP4 ADD MSTORE PUSH2 0x983 DUP2 PUSH2 0x947 JUMP JUMPDEST SWAP1 POP SWAP2 SWAP1 POP JUMP INVALID LOG2 PUSH5 0x6970667358 0x22 SLT KECCAK256 DUP13 NUMBER SLOAD 0xF7 0xAD SDIV 0xCD 0xE3 EXP 0xE4 BLOCKHASH 0xD1 0xEA SWAP15 EXTCODESIZE CALLDATASIZE PUSH5 0xECBFBA7689 PUSH9 0xEE9828C4AD498EFDE7 PUSH5 0x736F6C6343 STOP ADDMOD ADDMOD STOP CALLER "
				},
				"gasEstimates": {
					"creation": {
						"codeDepositCost": "499200",
						"executionCost": "22636",
						"totalCost": "521836"
					},
					"external": {
						"addressToAmountFunded(address)": "2859",
						"fund()": "73066",
						"funders(uint256)": "5022",
						"getConversionRate(uint256)": "infinite",
						"getPrice()": "infinite",
						"getVersion()": "infinite",
						"minimumUsd()": "2430"
					}
				},
				"methodIdentifiers": {
					"addressToAmountFunded(address)": "3e47d6f3",
					"fund()": "b60d4288",
					"funders(uint256)": "dc0d3dff",
					"getConversionRate(uint256)": "6e5b6b28",
					"getPrice()": "98d5fdca",
					"getVersion()": "0d8e6e2c",
					"minimumUsd()": "098de820"
				}
			},
			"storageLayout": {
				"storage": [
					{
						"astId": 53,
						"contract": "contracts/FundMe.sol:FundMe",
						"label": "minimumUsd",
						"offset": 0,
						"slot": "0",
						"type": "t_uint256"
					},
					{
						"astId": 56,
						"contract": "contracts/FundMe.sol:FundMe",
						"label": "funders",
						"offset": 0,
						"slot": "1",
						"type": "t_array(t_address)dyn_storage"
					},
					{
						"astId": 60,
						"contract": "contracts/FundMe.sol:FundMe",
						"label": "addressToAmountFunded",
						"offset": 0,
						"slot": "2",
						"type": "t_mapping(t_address,t_uint256)"
					}
				],
				"types": {
					"t_address": {
						"encoding": "inplace",
						"label": "address",
						"numberOfBytes": "20"
					},
					"t_array(t_address)dyn_storage": {
						"base": "t_address",
						"encoding": "dynamic_array",
						"label": "address[]",
						"numberOfBytes": "32"
					},
					"t_mapping(t_address,t_uint256)": {
						"encoding": "mapping",
						"key": "t_address",
						"label": "mapping(address => uint256)",
						"numberOfBytes": "32",
						"value": "t_uint256"
					},
					"t_uint256": {
						"encoding": "inplace",
						"label": "uint256",
						"numberOfBytes": "32"
					}
				}
			},
			"userdoc": {
				"kind": "user",
				"methods": {},
				"version": 1
			}
		}
	}
}