{
	"contracts/FundMe.sol": {
		"FundMe": {
			"abi": [
				{
					"inputs": [],
					"stateMutability": "nonpayable",
					"type": "constructor"
				},
				{
					"inputs": [
						{
							"internalType": "address",
							"name": "",
							"type": "address"
						}
					],
					"name": "addressToAmountFunded",
					"outputs": [
						{
							"internalType": "uint256",
							"name": "",
							"type": "uint256"
						}
					],
					"stateMutability": "view",
					"type": "function"
				},
				{
					"inputs": [],
					"name": "fund",
					"outputs": [],
					"stateMutability": "payable",
					"type": "function"
				},
				{
					"inputs": [
						{
							"internalType": "uint256",
							"name": "",
							"type": "uint256"
						}
					],
					"name": "funders",
					"outputs": [
						{
							"internalType": "address",
							"name": "",
							"type": "address"
						}
					],
					"stateMutability": "view",
					"type": "function"
				},
				{
					"inputs": [],
					"name": "minimumUsd",
					"outputs": [
						{
							"internalType": "uint256",
							"name": "",
							"type": "uint256"
						}
					],
					"stateMutability": "view",
					"type": "function"
				},
				{
					"inputs": [],
					"name": "owner",
					"outputs": [
						{
							"internalType": "address",
							"name": "",
							"type": "address"
						}
					],
					"stateMutability": "view",
					"type": "function"
				},
				{
					"inputs": [],
					"name": "withdrow",
					"outputs": [],
					"stateMutability": "nonpayable",
					"type": "function"
				}
			],
			"devdoc": {
				"kind": "dev",
				"methods": {},
				"version": 1
			},
			"evm": {
				"assembly": "    /* \"contracts/FundMe.sol\":168:2729  contract FundMe {... */\n  mstore(0x40, 0x80)\n    /* \"contracts/FundMe.sol\":257:266  50 * 1e18 */\n  0x02b5e3af16b1880000\n    /* \"contracts/FundMe.sol\":229:266  uint256 public minimumUsd = 50 * 1e18 */\n  0x00\n  sstore\n    /* \"contracts/FundMe.sol\":461:509  constructor(){... */\n  callvalue\n  dup1\n  iszero\n  tag_1\n  jumpi\n  0x00\n  dup1\n  revert\ntag_1:\n  pop\n    /* \"contracts/FundMe.sol\":492:502  msg.sender */\n  caller\n    /* \"contracts/FundMe.sol\":484:489  owner */\n  0x03\n  0x00\n    /* \"contracts/FundMe.sol\":484:502  owner = msg.sender */\n  0x0100\n  exp\n  dup2\n  sload\n  dup2\n  0xffffffffffffffffffffffffffffffffffffffff\n  mul\n  not\n  and\n  swap1\n  dup4\n  0xffffffffffffffffffffffffffffffffffffffff\n  and\n  mul\n  or\n  swap1\n  sstore\n  pop\n    /* \"contracts/FundMe.sol\":168:2729  contract FundMe {... */\n  dataSize(sub_0)\n  dup1\n  dataOffset(sub_0)\n  0x00\n  codecopy\n  0x00\n  return\nstop\n\nsub_0: assembly {\n        /* \"contracts/FundMe.sol\":168:2729  contract FundMe {... */\n      mstore(0x40, 0x80)\n      jumpi(tag_1, lt(calldatasize, 0x04))\n      shr(0xe0, calldataload(0x00))\n      dup1\n      0x098de820\n      eq\n      tag_2\n      jumpi\n      dup1\n      0x3b874521\n      eq\n      tag_3\n      jumpi\n      dup1\n      0x3e47d6f3\n      eq\n      tag_4\n      jumpi\n      dup1\n      0x8da5cb5b\n      eq\n      tag_5\n      jumpi\n      dup1\n      0xb60d4288\n      eq\n      tag_6\n      jumpi\n      dup1\n      0xdc0d3dff\n      eq\n      tag_7\n      jumpi\n    tag_1:\n      0x00\n      dup1\n      revert\n        /* \"contracts/FundMe.sol\":229:266  uint256 public minimumUsd = 50 * 1e18 */\n    tag_2:\n      callvalue\n      dup1\n      iszero\n      tag_8\n      jumpi\n      0x00\n      dup1\n      revert\n    tag_8:\n      pop\n      tag_9\n      tag_10\n      jump\t// in\n    tag_9:\n      mload(0x40)\n      tag_11\n      swap2\n      swap1\n      tag_12\n      jump\t// in\n    tag_11:\n      mload(0x40)\n      dup1\n      swap2\n      sub\n      swap1\n      return\n        /* \"contracts/FundMe.sol\":1532:2548  function withdrow() public onlyOwner{... */\n    tag_3:\n      callvalue\n      dup1\n      iszero\n      tag_13\n      jumpi\n      0x00\n      dup1\n      revert\n    tag_13:\n      pop\n      tag_14\n      tag_15\n      jump\t// in\n    tag_14:\n      stop\n        /* \"contracts/FundMe.sol\":372:428  mapping(address => uint256) public addressToAmountFunded */\n    tag_4:\n      callvalue\n      dup1\n      iszero\n      tag_16\n      jumpi\n      0x00\n      dup1\n      revert\n    tag_16:\n      pop\n      tag_17\n      0x04\n      dup1\n      calldatasize\n      sub\n      dup2\n      add\n      swap1\n      tag_18\n      swap2\n      swap1\n      tag_19\n      jump\t// in\n    tag_18:\n      tag_20\n      jump\t// in\n    tag_17:\n      mload(0x40)\n      tag_21\n      swap2\n      swap1\n      tag_12\n      jump\t// in\n    tag_21:\n      mload(0x40)\n      dup1\n      swap2\n      sub\n      swap1\n      return\n        /* \"contracts/FundMe.sol\":435:455  address public owner */\n    tag_5:\n      callvalue\n      dup1\n      iszero\n      tag_22\n      jumpi\n      0x00\n      dup1\n      revert\n    tag_22:\n      pop\n      tag_23\n      tag_24\n      jump\t// in\n    tag_23:\n      mload(0x40)\n      tag_25\n      swap2\n      swap1\n      tag_26\n      jump\t// in\n    tag_25:\n      mload(0x40)\n      dup1\n      swap2\n      sub\n      swap1\n      return\n        /* \"contracts/FundMe.sol\":587:1471  function fund() public payable{... */\n    tag_6:\n      tag_27\n      tag_28\n      jump\t// in\n    tag_27:\n      stop\n        /* \"contracts/FundMe.sol\":273:297  address[] public funders */\n    tag_7:\n      callvalue\n      dup1\n      iszero\n      tag_29\n      jumpi\n      0x00\n      dup1\n      revert\n    tag_29:\n      pop\n      tag_30\n      0x04\n      dup1\n      calldatasize\n      sub\n      dup2\n      add\n      swap1\n      tag_31\n      swap2\n      swap1\n      tag_32\n      jump\t// in\n    tag_31:\n      tag_33\n      jump\t// in\n    tag_30:\n      mload(0x40)\n      tag_34\n      swap2\n      swap1\n      tag_26\n      jump\t// in\n    tag_34:\n      mload(0x40)\n      dup1\n      swap2\n      sub\n      swap1\n      return\n        /* \"contracts/FundMe.sol\":229:266  uint256 public minimumUsd = 50 * 1e18 */\n    tag_10:\n      sload(0x00)\n      dup2\n      jump\t// out\n        /* \"contracts/FundMe.sol\":1532:2548  function withdrow() public onlyOwner{... */\n    tag_15:\n        /* \"contracts/FundMe.sol\":2604:2609  owner */\n      0x03\n      0x00\n      swap1\n      sload\n      swap1\n      0x0100\n      exp\n      swap1\n      div\n      0xffffffffffffffffffffffffffffffffffffffff\n      and\n        /* \"contracts/FundMe.sol\":2590:2609  msg.sender == owner */\n      0xffffffffffffffffffffffffffffffffffffffff\n      and\n        /* \"contracts/FundMe.sol\":2590:2600  msg.sender */\n      caller\n        /* \"contracts/FundMe.sol\":2590:2609  msg.sender == owner */\n      0xffffffffffffffffffffffffffffffffffffffff\n      and\n      eq\n        /* \"contracts/FundMe.sol\":2582:2631  require(msg.sender == owner, \"You are not owner\") */\n      tag_36\n      jumpi\n      mload(0x40)\n      0x08c379a000000000000000000000000000000000000000000000000000000000\n      dup2\n      mstore\n      0x04\n      add\n      tag_37\n      swap1\n      tag_38\n      jump\t// in\n    tag_37:\n      mload(0x40)\n      dup1\n      swap2\n      sub\n      swap1\n      revert\n    tag_36:\n        /* \"contracts/FundMe.sol\":1582:1601  uint256 funderIndex */\n      0x00\n        /* \"contracts/FundMe.sol\":1578:1762  for(uint256 funderIndex = 0; funderIndex < funders.length; funderIndex ++){... */\n    tag_40:\n        /* \"contracts/FundMe.sol\":1621:1628  funders */\n      0x01\n        /* \"contracts/FundMe.sol\":1621:1635  funders.length */\n      dup1\n      sload\n      swap1\n      pop\n        /* \"contracts/FundMe.sol\":1607:1618  funderIndex */\n      dup2\n        /* \"contracts/FundMe.sol\":1607:1635  funderIndex < funders.length */\n      lt\n        /* \"contracts/FundMe.sol\":1578:1762  for(uint256 funderIndex = 0; funderIndex < funders.length; funderIndex ++){... */\n      iszero\n      tag_41\n      jumpi\n        /* \"contracts/FundMe.sol\":1666:1680  address funder */\n      0x00\n        /* \"contracts/FundMe.sol\":1683:1690  funders */\n      0x01\n        /* \"contracts/FundMe.sol\":1691:1702  funderIndex */\n      dup3\n        /* \"contracts/FundMe.sol\":1683:1703  funders[funderIndex] */\n      dup2\n      sload\n      dup2\n      lt\n      tag_43\n      jumpi\n      tag_44\n      tag_45\n      jump\t// in\n    tag_44:\n    tag_43:\n      swap1\n      0x00\n      mstore\n      keccak256(0x00, 0x20)\n      add\n      0x00\n      swap1\n      sload\n      swap1\n      0x0100\n      exp\n      swap1\n      div\n      0xffffffffffffffffffffffffffffffffffffffff\n      and\n        /* \"contracts/FundMe.sol\":1666:1703  address funder = funders[funderIndex] */\n      swap1\n      pop\n        /* \"contracts/FundMe.sol\":1749:1750  0 */\n      0x00\n        /* \"contracts/FundMe.sol\":1717:1738  addressToAmountFunded */\n      0x02\n        /* \"contracts/FundMe.sol\":1717:1746  addressToAmountFunded[funder] */\n      0x00\n        /* \"contracts/FundMe.sol\":1739:1745  funder */\n      dup4\n        /* \"contracts/FundMe.sol\":1717:1746  addressToAmountFunded[funder] */\n      0xffffffffffffffffffffffffffffffffffffffff\n      and\n      0xffffffffffffffffffffffffffffffffffffffff\n      and\n      dup2\n      mstore\n      0x20\n      add\n      swap1\n      dup2\n      mstore\n      0x20\n      add\n      0x00\n      keccak256\n        /* \"contracts/FundMe.sol\":1717:1750  addressToAmountFunded[funder] = 0 */\n      dup2\n      swap1\n      sstore\n      pop\n        /* \"contracts/FundMe.sol\":1652:1762  {... */\n      pop\n        /* \"contracts/FundMe.sol\":1637:1651  funderIndex ++ */\n      dup1\n      dup1\n      tag_47\n      swap1\n      tag_48\n      jump\t// in\n    tag_47:\n      swap2\n      pop\n      pop\n        /* \"contracts/FundMe.sol\":1578:1762  for(uint256 funderIndex = 0; funderIndex < funders.length; funderIndex ++){... */\n      jump(tag_40)\n    tag_41:\n      pop\n        /* \"contracts/FundMe.sol\":1826:1827  0 */\n      0x00\n        /* \"contracts/FundMe.sol\":1812:1828  new address[](0) */\n      0xffffffffffffffff\n      dup2\n      gt\n      iszero\n      tag_49\n      jumpi\n      tag_50\n      tag_51\n      jump\t// in\n    tag_50:\n    tag_49:\n      mload(0x40)\n      swap1\n      dup1\n      dup3\n      mstore\n      dup1\n      0x20\n      mul\n      0x20\n      add\n      dup3\n      add\n      0x40\n      mstore\n      dup1\n      iszero\n      tag_52\n      jumpi\n      dup2\n      0x20\n      add\n      0x20\n      dup3\n      mul\n      dup1\n      calldatasize\n      dup4\n      calldatacopy\n      dup1\n      dup3\n      add\n      swap2\n      pop\n      pop\n      swap1\n      pop\n    tag_52:\n      pop\n        /* \"contracts/FundMe.sol\":1802:1809  funders */\n      0x01\n        /* \"contracts/FundMe.sol\":1802:1828  funders = new address[](0) */\n      swap1\n      dup1\n      mload\n      swap1\n      0x20\n      add\n      swap1\n      tag_53\n      swap3\n      swap2\n      swap1\n      tag_54\n      jump\t// in\n    tag_53:\n      pop\n        /* \"contracts/FundMe.sol\":2416:2432  bool callSuccess */\n      0x00\n        /* \"contracts/FundMe.sol\":2446:2456  msg.sender */\n      caller\n        /* \"contracts/FundMe.sol\":2438:2462  payable(msg.sender).call */\n      0xffffffffffffffffffffffffffffffffffffffff\n      and\n        /* \"contracts/FundMe.sol\":2470:2491  address(this).balance */\n      selfbalance\n        /* \"contracts/FundMe.sol\":2438:2496  payable(msg.sender).call{value: address(this).balance}(\"\") */\n      mload(0x40)\n      tag_55\n      swap1\n      tag_56\n      jump\t// in\n    tag_55:\n      0x00\n      mload(0x40)\n      dup1\n      dup4\n      sub\n      dup2\n      dup6\n      dup8\n      gas\n      call\n      swap3\n      pop\n      pop\n      pop\n      returndatasize\n      dup1\n      0x00\n      dup2\n      eq\n      tag_59\n      jumpi\n      mload(0x40)\n      swap2\n      pop\n      and(add(returndatasize, 0x3f), not(0x1f))\n      dup3\n      add\n      0x40\n      mstore\n      returndatasize\n      dup3\n      mstore\n      returndatasize\n      0x00\n      0x20\n      dup5\n      add\n      returndatacopy\n      jump(tag_58)\n    tag_59:\n      0x60\n      swap2\n      pop\n    tag_58:\n      pop\n        /* \"contracts/FundMe.sol\":2415:2496  (bool callSuccess, ) = payable(msg.sender).call{value: address(this).balance}(\"\") */\n      pop\n      swap1\n      pop\n        /* \"contracts/FundMe.sol\":2514:2525  callSuccess */\n      dup1\n        /* \"contracts/FundMe.sol\":2506:2540  require(callSuccess, \"Call faild\") */\n      tag_60\n      jumpi\n      mload(0x40)\n      0x08c379a000000000000000000000000000000000000000000000000000000000\n      dup2\n      mstore\n      0x04\n      add\n      tag_61\n      swap1\n      tag_62\n      jump\t// in\n    tag_61:\n      mload(0x40)\n      dup1\n      swap2\n      sub\n      swap1\n      revert\n    tag_60:\n        /* \"contracts/FundMe.sol\":1568:2548  {... */\n      pop\n        /* \"contracts/FundMe.sol\":1532:2548  function withdrow() public onlyOwner{... */\n      jump\t// out\n        /* \"contracts/FundMe.sol\":372:428  mapping(address => uint256) public addressToAmountFunded */\n    tag_20:\n      mstore(0x20, 0x02)\n      dup1\n      0x00\n      mstore\n      keccak256(0x00, 0x40)\n      0x00\n      swap2\n      pop\n      swap1\n      pop\n      sload\n      dup2\n      jump\t// out\n        /* \"contracts/FundMe.sol\":435:455  address public owner */\n    tag_24:\n      0x03\n      0x00\n      swap1\n      sload\n      swap1\n      0x0100\n      exp\n      swap1\n      div\n      0xffffffffffffffffffffffffffffffffffffffff\n      and\n      dup2\n      jump\t// out\n        /* \"contracts/FundMe.sol\":587:1471  function fund() public payable{... */\n    tag_28:\n        /* \"contracts/FundMe.sol\":1275:1285  minimumUsd */\n      sload(0x00)\n        /* \"contracts/FundMe.sol\":1243:1272  msg.value.getConversionRate() */\n      tag_64\n        /* \"contracts/FundMe.sol\":1243:1252  msg.value */\n      callvalue\n        /* \"contracts/FundMe.sol\":1243:1270  msg.value.getConversionRate */\n      tag_65\n        /* \"contracts/FundMe.sol\":1243:1272  msg.value.getConversionRate() */\n      jump\t// in\n    tag_64:\n        /* \"contracts/FundMe.sol\":1243:1285  msg.value.getConversionRate() > minimumUsd */\n      gt\n        /* \"contracts/FundMe.sol\":1235:1308  require(msg.value.getConversionRate() > minimumUsd, \"Didn't sned enough\") */\n      tag_66\n      jumpi\n      mload(0x40)\n      0x08c379a000000000000000000000000000000000000000000000000000000000\n      dup2\n      mstore\n      0x04\n      add\n      tag_67\n      swap1\n      tag_68\n      jump\t// in\n    tag_67:\n      mload(0x40)\n      dup1\n      swap2\n      sub\n      swap1\n      revert\n    tag_66:\n        /* \"contracts/FundMe.sol\":1319:1326  funders */\n      0x01\n        /* \"contracts/FundMe.sol\":1332:1342  msg.sender */\n      caller\n        /* \"contracts/FundMe.sol\":1319:1343  funders.push(msg.sender) */\n      swap1\n      dup1\n      0x01\n      dup2\n      sload\n      add\n      dup1\n      dup3\n      sstore\n      dup1\n      swap2\n      pop\n      pop\n      0x01\n      swap1\n      sub\n      swap1\n      0x00\n      mstore\n      keccak256(0x00, 0x20)\n      add\n      0x00\n      swap1\n      swap2\n      swap1\n      swap2\n      swap1\n      swap2\n      0x0100\n      exp\n      dup2\n      sload\n      dup2\n      0xffffffffffffffffffffffffffffffffffffffff\n      mul\n      not\n      and\n      swap1\n      dup4\n      0xffffffffffffffffffffffffffffffffffffffff\n      and\n      mul\n      or\n      swap1\n      sstore\n      pop\n        /* \"contracts/FundMe.sol\":1455:1464  msg.value */\n      callvalue\n        /* \"contracts/FundMe.sol\":1419:1440  addressToAmountFunded */\n      0x02\n        /* \"contracts/FundMe.sol\":1419:1452  addressToAmountFunded[msg.sender] */\n      0x00\n        /* \"contracts/FundMe.sol\":1441:1451  msg.sender */\n      caller\n        /* \"contracts/FundMe.sol\":1419:1452  addressToAmountFunded[msg.sender] */\n      0xffffffffffffffffffffffffffffffffffffffff\n      and\n      0xffffffffffffffffffffffffffffffffffffffff\n      and\n      dup2\n      mstore\n      0x20\n      add\n      swap1\n      dup2\n      mstore\n      0x20\n      add\n      0x00\n      keccak256\n        /* \"contracts/FundMe.sol\":1419:1464  addressToAmountFunded[msg.sender] = msg.value */\n      dup2\n      swap1\n      sstore\n      pop\n        /* \"contracts/FundMe.sol\":587:1471  function fund() public payable{... */\n      jump\t// out\n        /* \"contracts/FundMe.sol\":273:297  address[] public funders */\n    tag_33:\n      0x01\n      dup2\n      dup2\n      sload\n      dup2\n      lt\n      tag_70\n      jumpi\n      0x00\n      dup1\n      revert\n    tag_70:\n      swap1\n      0x00\n      mstore\n      keccak256(0x00, 0x20)\n      add\n      0x00\n      swap2\n      pop\n      sload\n      swap1\n      0x0100\n      exp\n      swap1\n      div\n      0xffffffffffffffffffffffffffffffffffffffff\n      and\n      dup2\n      jump\t// out\n        /* \"contracts/PriceConverter.sol\":1193:1643  function getConversionRate(uint256 ethAmount) internal view returns(uint){... */\n    tag_65:\n        /* \"contracts/PriceConverter.sol\":1261:1265  uint */\n      0x00\n        /* \"contracts/PriceConverter.sol\":1390:1406  uint256 ethPrice */\n      dup1\n        /* \"contracts/PriceConverter.sol\":1409:1419  getPrice() */\n      tag_73\n        /* \"contracts/PriceConverter.sol\":1409:1417  getPrice */\n      tag_74\n        /* \"contracts/PriceConverter.sol\":1409:1419  getPrice() */\n      jump\t// in\n    tag_73:\n        /* \"contracts/PriceConverter.sol\":1390:1419  uint256 ethPrice = getPrice() */\n      swap1\n      pop\n        /* \"contracts/PriceConverter.sol\":1551:1573  uint256 ethAmountUnUsd */\n      0x00\n        /* \"contracts/PriceConverter.sol\":1601:1605  1e18 */\n      0x0de0b6b3a7640000\n        /* \"contracts/PriceConverter.sol\":1588:1597  ethAmount */\n      dup5\n        /* \"contracts/PriceConverter.sol\":1577:1585  ethPrice */\n      dup4\n        /* \"contracts/PriceConverter.sol\":1577:1597  ethPrice * ethAmount */\n      tag_75\n      swap2\n      swap1\n      tag_76\n      jump\t// in\n    tag_75:\n        /* \"contracts/PriceConverter.sol\":1576:1605  (ethPrice * ethAmount) / 1e18 */\n      tag_77\n      swap2\n      swap1\n      tag_78\n      jump\t// in\n    tag_77:\n        /* \"contracts/PriceConverter.sol\":1551:1605  uint256 ethAmountUnUsd = (ethPrice * ethAmount) / 1e18 */\n      swap1\n      pop\n        /* \"contracts/PriceConverter.sol\":1622:1636  ethAmountUnUsd */\n      dup1\n        /* \"contracts/PriceConverter.sol\":1615:1636  return ethAmountUnUsd */\n      swap3\n      pop\n      pop\n      pop\n        /* \"contracts/PriceConverter.sol\":1193:1643  function getConversionRate(uint256 ethAmount) internal view returns(uint){... */\n      swap2\n      swap1\n      pop\n      jump\t// out\n        /* \"contracts/PriceConverter.sol\":211:976  function getPrice() internal view returns(uint256){... */\n    tag_74:\n        /* \"contracts/PriceConverter.sol\":253:260  uint256 */\n      0x00\n        /* \"contracts/PriceConverter.sol\":402:433  AggregatorV3Interface priceFeed */\n      dup1\n        /* \"contracts/PriceConverter.sol\":458:500  0xD4a33860578De61DBAbDc8BFdb98FD742fA7028e */\n      0xd4a33860578de61dbabdc8bfdb98fd742fa7028e\n        /* \"contracts/PriceConverter.sol\":402:501  AggregatorV3Interface priceFeed = AggregatorV3Interface(0xD4a33860578De61DBAbDc8BFdb98FD742fA7028e) */\n      swap1\n      pop\n        /* \"contracts/PriceConverter.sol\":765:777  int256 price */\n      0x00\n        /* \"contracts/PriceConverter.sol\":784:793  priceFeed */\n      dup2\n        /* \"contracts/PriceConverter.sol\":784:809  priceFeed.latestRoundData */\n      0xffffffffffffffffffffffffffffffffffffffff\n      and\n      0xfeaf968c\n        /* \"contracts/PriceConverter.sol\":784:811  priceFeed.latestRoundData() */\n      mload(0x40)\n      dup2\n      0xffffffff\n      and\n      0xe0\n      shl\n      dup2\n      mstore\n      0x04\n      add\n      0xa0\n      mload(0x40)\n      dup1\n      dup4\n      sub\n      dup2\n      dup7\n      dup1\n      extcodesize\n      iszero\n      dup1\n      iszero\n      tag_80\n      jumpi\n      0x00\n      dup1\n      revert\n    tag_80:\n      pop\n      gas\n      staticcall\n      iszero\n      dup1\n      iszero\n      tag_82\n      jumpi\n      returndatasize\n      0x00\n      dup1\n      returndatacopy\n      revert(0x00, returndatasize)\n    tag_82:\n      pop\n      pop\n      pop\n      pop\n      mload(0x40)\n      returndatasize\n      not(0x1f)\n      0x1f\n      dup3\n      add\n      and\n      dup3\n      add\n      dup1\n      0x40\n      mstore\n      pop\n      dup2\n      add\n      swap1\n      tag_83\n      swap2\n      swap1\n      tag_84\n      jump\t// in\n    tag_83:\n        /* \"contracts/PriceConverter.sol\":763:811  (,int256 price,,,) = priceFeed.latestRoundData() */\n      pop\n      pop\n      pop\n      swap2\n      pop\n      pop\n        /* \"contracts/PriceConverter.sol\":942:946  1e10 */\n      0x02540be400\n        /* \"contracts/PriceConverter.sol\":934:939  price */\n      dup2\n        /* \"contracts/PriceConverter.sol\":934:946  price * 1e10 */\n      tag_85\n      swap2\n      swap1\n      tag_86\n      jump\t// in\n    tag_85:\n        /* \"contracts/PriceConverter.sol\":919:947  return uint256(price * 1e10) */\n      swap3\n      pop\n      pop\n      pop\n        /* \"contracts/PriceConverter.sol\":211:976  function getPrice() internal view returns(uint256){... */\n      swap1\n      jump\t// out\n    tag_54:\n      dup3\n      dup1\n      sload\n      dup3\n      dup3\n      sstore\n      swap1\n      0x00\n      mstore\n      keccak256(0x00, 0x20)\n      swap1\n      dup2\n      add\n      swap3\n      dup3\n      iszero\n      tag_87\n      jumpi\n      swap2\n      0x20\n      mul\n      dup3\n      add\n    tag_88:\n      dup3\n      dup2\n      gt\n      iszero\n      tag_89\n      jumpi\n      dup3\n      mload\n      dup3\n      exp(0x0100, 0x00)\n      dup2\n      sload\n      dup2\n      0xffffffffffffffffffffffffffffffffffffffff\n      mul\n      not\n      and\n      swap1\n      dup4\n      0xffffffffffffffffffffffffffffffffffffffff\n      and\n      mul\n      or\n      swap1\n      sstore\n      pop\n      swap2\n      0x20\n      add\n      swap2\n      swap1\n      0x01\n      add\n      swap1\n      jump(tag_88)\n    tag_89:\n    tag_87:\n      pop\n      swap1\n      pop\n      tag_90\n      swap2\n      swap1\n      tag_91\n      jump\t// in\n    tag_90:\n      pop\n      swap1\n      jump\t// out\n    tag_91:\n    tag_92:\n      dup1\n      dup3\n      gt\n      iszero\n      tag_93\n      jumpi\n      0x00\n      dup2\n      0x00\n      swap1\n      sstore\n      pop\n      0x01\n      add\n      jump(tag_92)\n    tag_93:\n      pop\n      swap1\n      jump\t// out\n        /* \"#utility.yul\":7:84   */\n    tag_94:\n        /* \"#utility.yul\":44:51   */\n      0x00\n        /* \"#utility.yul\":73:78   */\n      dup2\n        /* \"#utility.yul\":62:78   */\n      swap1\n      pop\n        /* \"#utility.yul\":7:84   */\n      swap2\n      swap1\n      pop\n      jump\t// out\n        /* \"#utility.yul\":90:208   */\n    tag_95:\n        /* \"#utility.yul\":177:201   */\n      tag_128\n        /* \"#utility.yul\":195:200   */\n      dup2\n        /* \"#utility.yul\":177:201   */\n      tag_94\n      jump\t// in\n    tag_128:\n        /* \"#utility.yul\":172:175   */\n      dup3\n        /* \"#utility.yul\":165:202   */\n      mstore\n        /* \"#utility.yul\":90:208   */\n      pop\n      pop\n      jump\t// out\n        /* \"#utility.yul\":214:436   */\n    tag_12:\n        /* \"#utility.yul\":307:311   */\n      0x00\n        /* \"#utility.yul\":345:347   */\n      0x20\n        /* \"#utility.yul\":334:343   */\n      dup3\n        /* \"#utility.yul\":330:348   */\n      add\n        /* \"#utility.yul\":322:348   */\n      swap1\n      pop\n        /* \"#utility.yul\":358:429   */\n      tag_130\n        /* \"#utility.yul\":426:427   */\n      0x00\n        /* \"#utility.yul\":415:424   */\n      dup4\n        /* \"#utility.yul\":411:428   */\n      add\n        /* \"#utility.yul\":402:408   */\n      dup5\n        /* \"#utility.yul\":358:429   */\n      tag_95\n      jump\t// in\n    tag_130:\n        /* \"#utility.yul\":214:436   */\n      swap3\n      swap2\n      pop\n      pop\n      jump\t// out\n        /* \"#utility.yul\":523:640   */\n    tag_97:\n        /* \"#utility.yul\":632:633   */\n      0x00\n        /* \"#utility.yul\":629:630   */\n      dup1\n        /* \"#utility.yul\":622:634   */\n      revert\n        /* \"#utility.yul\":769:895   */\n    tag_99:\n        /* \"#utility.yul\":806:813   */\n      0x00\n        /* \"#utility.yul\":846:888   */\n      0xffffffffffffffffffffffffffffffffffffffff\n        /* \"#utility.yul\":839:844   */\n      dup3\n        /* \"#utility.yul\":835:889   */\n      and\n        /* \"#utility.yul\":824:889   */\n      swap1\n      pop\n        /* \"#utility.yul\":769:895   */\n      swap2\n      swap1\n      pop\n      jump\t// out\n        /* \"#utility.yul\":901:997   */\n    tag_100:\n        /* \"#utility.yul\":938:945   */\n      0x00\n        /* \"#utility.yul\":967:991   */\n      tag_136\n        /* \"#utility.yul\":985:990   */\n      dup3\n        /* \"#utility.yul\":967:991   */\n      tag_99\n      jump\t// in\n    tag_136:\n        /* \"#utility.yul\":956:991   */\n      swap1\n      pop\n        /* \"#utility.yul\":901:997   */\n      swap2\n      swap1\n      pop\n      jump\t// out\n        /* \"#utility.yul\":1003:1125   */\n    tag_101:\n        /* \"#utility.yul\":1076:1100   */\n      tag_138\n        /* \"#utility.yul\":1094:1099   */\n      dup2\n        /* \"#utility.yul\":1076:1100   */\n      tag_100\n      jump\t// in\n    tag_138:\n        /* \"#utility.yul\":1069:1074   */\n      dup2\n        /* \"#utility.yul\":1066:1101   */\n      eq\n        /* \"#utility.yul\":1056:1119   */\n      tag_139\n      jumpi\n        /* \"#utility.yul\":1115:1116   */\n      0x00\n        /* \"#utility.yul\":1112:1113   */\n      dup1\n        /* \"#utility.yul\":1105:1117   */\n      revert\n        /* \"#utility.yul\":1056:1119   */\n    tag_139:\n        /* \"#utility.yul\":1003:1125   */\n      pop\n      jump\t// out\n        /* \"#utility.yul\":1131:1270   */\n    tag_102:\n        /* \"#utility.yul\":1177:1182   */\n      0x00\n        /* \"#utility.yul\":1215:1221   */\n      dup2\n        /* \"#utility.yul\":1202:1222   */\n      calldataload\n        /* \"#utility.yul\":1193:1222   */\n      swap1\n      pop\n        /* \"#utility.yul\":1231:1264   */\n      tag_141\n        /* \"#utility.yul\":1258:1263   */\n      dup2\n        /* \"#utility.yul\":1231:1264   */\n      tag_101\n      jump\t// in\n    tag_141:\n        /* \"#utility.yul\":1131:1270   */\n      swap3\n      swap2\n      pop\n      pop\n      jump\t// out\n        /* \"#utility.yul\":1276:1605   */\n    tag_19:\n        /* \"#utility.yul\":1335:1341   */\n      0x00\n        /* \"#utility.yul\":1384:1386   */\n      0x20\n        /* \"#utility.yul\":1372:1381   */\n      dup3\n        /* \"#utility.yul\":1363:1370   */\n      dup5\n        /* \"#utility.yul\":1359:1382   */\n      sub\n        /* \"#utility.yul\":1355:1387   */\n      slt\n        /* \"#utility.yul\":1352:1471   */\n      iszero\n      tag_143\n      jumpi\n        /* \"#utility.yul\":1390:1469   */\n      tag_144\n      tag_97\n      jump\t// in\n    tag_144:\n        /* \"#utility.yul\":1352:1471   */\n    tag_143:\n        /* \"#utility.yul\":1510:1511   */\n      0x00\n        /* \"#utility.yul\":1535:1588   */\n      tag_145\n        /* \"#utility.yul\":1580:1587   */\n      dup5\n        /* \"#utility.yul\":1571:1577   */\n      dup3\n        /* \"#utility.yul\":1560:1569   */\n      dup6\n        /* \"#utility.yul\":1556:1578   */\n      add\n        /* \"#utility.yul\":1535:1588   */\n      tag_102\n      jump\t// in\n    tag_145:\n        /* \"#utility.yul\":1525:1588   */\n      swap2\n      pop\n        /* \"#utility.yul\":1481:1598   */\n      pop\n        /* \"#utility.yul\":1276:1605   */\n      swap3\n      swap2\n      pop\n      pop\n      jump\t// out\n        /* \"#utility.yul\":1611:1729   */\n    tag_103:\n        /* \"#utility.yul\":1698:1722   */\n      tag_147\n        /* \"#utility.yul\":1716:1721   */\n      dup2\n        /* \"#utility.yul\":1698:1722   */\n      tag_100\n      jump\t// in\n    tag_147:\n        /* \"#utility.yul\":1693:1696   */\n      dup3\n        /* \"#utility.yul\":1686:1723   */\n      mstore\n        /* \"#utility.yul\":1611:1729   */\n      pop\n      pop\n      jump\t// out\n        /* \"#utility.yul\":1735:1957   */\n    tag_26:\n        /* \"#utility.yul\":1828:1832   */\n      0x00\n        /* \"#utility.yul\":1866:1868   */\n      0x20\n        /* \"#utility.yul\":1855:1864   */\n      dup3\n        /* \"#utility.yul\":1851:1869   */\n      add\n        /* \"#utility.yul\":1843:1869   */\n      swap1\n      pop\n        /* \"#utility.yul\":1879:1950   */\n      tag_149\n        /* \"#utility.yul\":1947:1948   */\n      0x00\n        /* \"#utility.yul\":1936:1945   */\n      dup4\n        /* \"#utility.yul\":1932:1949   */\n      add\n        /* \"#utility.yul\":1923:1929   */\n      dup5\n        /* \"#utility.yul\":1879:1950   */\n      tag_103\n      jump\t// in\n    tag_149:\n        /* \"#utility.yul\":1735:1957   */\n      swap3\n      swap2\n      pop\n      pop\n      jump\t// out\n        /* \"#utility.yul\":1963:2085   */\n    tag_104:\n        /* \"#utility.yul\":2036:2060   */\n      tag_151\n        /* \"#utility.yul\":2054:2059   */\n      dup2\n        /* \"#utility.yul\":2036:2060   */\n      tag_94\n      jump\t// in\n    tag_151:\n        /* \"#utility.yul\":2029:2034   */\n      dup2\n        /* \"#utility.yul\":2026:2061   */\n      eq\n        /* \"#utility.yul\":2016:2079   */\n      tag_152\n      jumpi\n        /* \"#utility.yul\":2075:2076   */\n      0x00\n        /* \"#utility.yul\":2072:2073   */\n      dup1\n        /* \"#utility.yul\":2065:2077   */\n      revert\n        /* \"#utility.yul\":2016:2079   */\n    tag_152:\n        /* \"#utility.yul\":1963:2085   */\n      pop\n      jump\t// out\n        /* \"#utility.yul\":2091:2230   */\n    tag_105:\n        /* \"#utility.yul\":2137:2142   */\n      0x00\n        /* \"#utility.yul\":2175:2181   */\n      dup2\n        /* \"#utility.yul\":2162:2182   */\n      calldataload\n        /* \"#utility.yul\":2153:2182   */\n      swap1\n      pop\n        /* \"#utility.yul\":2191:2224   */\n      tag_154\n        /* \"#utility.yul\":2218:2223   */\n      dup2\n        /* \"#utility.yul\":2191:2224   */\n      tag_104\n      jump\t// in\n    tag_154:\n        /* \"#utility.yul\":2091:2230   */\n      swap3\n      swap2\n      pop\n      pop\n      jump\t// out\n        /* \"#utility.yul\":2236:2565   */\n    tag_32:\n        /* \"#utility.yul\":2295:2301   */\n      0x00\n        /* \"#utility.yul\":2344:2346   */\n      0x20\n        /* \"#utility.yul\":2332:2341   */\n      dup3\n        /* \"#utility.yul\":2323:2330   */\n      dup5\n        /* \"#utility.yul\":2319:2342   */\n      sub\n        /* \"#utility.yul\":2315:2347   */\n      slt\n        /* \"#utility.yul\":2312:2431   */\n      iszero\n      tag_156\n      jumpi\n        /* \"#utility.yul\":2350:2429   */\n      tag_157\n      tag_97\n      jump\t// in\n    tag_157:\n        /* \"#utility.yul\":2312:2431   */\n    tag_156:\n        /* \"#utility.yul\":2470:2471   */\n      0x00\n        /* \"#utility.yul\":2495:2548   */\n      tag_158\n        /* \"#utility.yul\":2540:2547   */\n      dup5\n        /* \"#utility.yul\":2531:2537   */\n      dup3\n        /* \"#utility.yul\":2520:2529   */\n      dup6\n        /* \"#utility.yul\":2516:2538   */\n      add\n        /* \"#utility.yul\":2495:2548   */\n      tag_105\n      jump\t// in\n    tag_158:\n        /* \"#utility.yul\":2485:2548   */\n      swap2\n      pop\n        /* \"#utility.yul\":2441:2558   */\n      pop\n        /* \"#utility.yul\":2236:2565   */\n      swap3\n      swap2\n      pop\n      pop\n      jump\t// out\n        /* \"#utility.yul\":2571:2740   */\n    tag_106:\n        /* \"#utility.yul\":2655:2666   */\n      0x00\n        /* \"#utility.yul\":2689:2695   */\n      dup3\n        /* \"#utility.yul\":2684:2687   */\n      dup3\n        /* \"#utility.yul\":2677:2696   */\n      mstore\n        /* \"#utility.yul\":2729:2733   */\n      0x20\n        /* \"#utility.yul\":2724:2727   */\n      dup3\n        /* \"#utility.yul\":2720:2734   */\n      add\n        /* \"#utility.yul\":2705:2734   */\n      swap1\n      pop\n        /* \"#utility.yul\":2571:2740   */\n      swap3\n      swap2\n      pop\n      pop\n      jump\t// out\n        /* \"#utility.yul\":2746:2913   */\n    tag_107:\n        /* \"#utility.yul\":2886:2905   */\n      0x596f7520617265206e6f74206f776e6572000000000000000000000000000000\n        /* \"#utility.yul\":2882:2883   */\n      0x00\n        /* \"#utility.yul\":2874:2880   */\n      dup3\n        /* \"#utility.yul\":2870:2884   */\n      add\n        /* \"#utility.yul\":2863:2906   */\n      mstore\n        /* \"#utility.yul\":2746:2913   */\n      pop\n      jump\t// out\n        /* \"#utility.yul\":2919:3285   */\n    tag_108:\n        /* \"#utility.yul\":3061:3064   */\n      0x00\n        /* \"#utility.yul\":3082:3149   */\n      tag_162\n        /* \"#utility.yul\":3146:3148   */\n      0x11\n        /* \"#utility.yul\":3141:3144   */\n      dup4\n        /* \"#utility.yul\":3082:3149   */\n      tag_106\n      jump\t// in\n    tag_162:\n        /* \"#utility.yul\":3075:3149   */\n      swap2\n      pop\n        /* \"#utility.yul\":3158:3251   */\n      tag_163\n        /* \"#utility.yul\":3247:3250   */\n      dup3\n        /* \"#utility.yul\":3158:3251   */\n      tag_107\n      jump\t// in\n    tag_163:\n        /* \"#utility.yul\":3276:3278   */\n      0x20\n        /* \"#utility.yul\":3271:3274   */\n      dup3\n        /* \"#utility.yul\":3267:3279   */\n      add\n        /* \"#utility.yul\":3260:3279   */\n      swap1\n      pop\n        /* \"#utility.yul\":2919:3285   */\n      swap2\n      swap1\n      pop\n      jump\t// out\n        /* \"#utility.yul\":3291:3710   */\n    tag_38:\n        /* \"#utility.yul\":3457:3461   */\n      0x00\n        /* \"#utility.yul\":3495:3497   */\n      0x20\n        /* \"#utility.yul\":3484:3493   */\n      dup3\n        /* \"#utility.yul\":3480:3498   */\n      add\n        /* \"#utility.yul\":3472:3498   */\n      swap1\n      pop\n        /* \"#utility.yul\":3544:3553   */\n      dup2\n        /* \"#utility.yul\":3538:3542   */\n      dup2\n        /* \"#utility.yul\":3534:3554   */\n      sub\n        /* \"#utility.yul\":3530:3531   */\n      0x00\n        /* \"#utility.yul\":3519:3528   */\n      dup4\n        /* \"#utility.yul\":3515:3532   */\n      add\n        /* \"#utility.yul\":3508:3555   */\n      mstore\n        /* \"#utility.yul\":3572:3703   */\n      tag_165\n        /* \"#utility.yul\":3698:3702   */\n      dup2\n        /* \"#utility.yul\":3572:3703   */\n      tag_108\n      jump\t// in\n    tag_165:\n        /* \"#utility.yul\":3564:3703   */\n      swap1\n      pop\n        /* \"#utility.yul\":3291:3710   */\n      swap2\n      swap1\n      pop\n      jump\t// out\n        /* \"#utility.yul\":3716:3896   */\n    tag_45:\n        /* \"#utility.yul\":3764:3841   */\n      0x4e487b7100000000000000000000000000000000000000000000000000000000\n        /* \"#utility.yul\":3761:3762   */\n      0x00\n        /* \"#utility.yul\":3754:3842   */\n      mstore\n        /* \"#utility.yul\":3861:3865   */\n      0x32\n        /* \"#utility.yul\":3858:3859   */\n      0x04\n        /* \"#utility.yul\":3851:3866   */\n      mstore\n        /* \"#utility.yul\":3885:3889   */\n      0x24\n        /* \"#utility.yul\":3882:3883   */\n      0x00\n        /* \"#utility.yul\":3875:3890   */\n      revert\n        /* \"#utility.yul\":3902:4082   */\n    tag_109:\n        /* \"#utility.yul\":3950:4027   */\n      0x4e487b7100000000000000000000000000000000000000000000000000000000\n        /* \"#utility.yul\":3947:3948   */\n      0x00\n        /* \"#utility.yul\":3940:4028   */\n      mstore\n        /* \"#utility.yul\":4047:4051   */\n      0x11\n        /* \"#utility.yul\":4044:4045   */\n      0x04\n        /* \"#utility.yul\":4037:4052   */\n      mstore\n        /* \"#utility.yul\":4071:4075   */\n      0x24\n        /* \"#utility.yul\":4068:4069   */\n      0x00\n        /* \"#utility.yul\":4061:4076   */\n      revert\n        /* \"#utility.yul\":4088:4321   */\n    tag_48:\n        /* \"#utility.yul\":4127:4130   */\n      0x00\n        /* \"#utility.yul\":4150:4174   */\n      tag_169\n        /* \"#utility.yul\":4168:4173   */\n      dup3\n        /* \"#utility.yul\":4150:4174   */\n      tag_94\n      jump\t// in\n    tag_169:\n        /* \"#utility.yul\":4141:4174   */\n      swap2\n      pop\n        /* \"#utility.yul\":4196:4262   */\n      0xffffffffffffffffffffffffffffffffffffffffffffffffffffffffffffffff\n        /* \"#utility.yul\":4189:4194   */\n      dup3\n        /* \"#utility.yul\":4186:4263   */\n      eq\n        /* \"#utility.yul\":4183:4286   */\n      iszero\n      tag_170\n      jumpi\n        /* \"#utility.yul\":4266:4284   */\n      tag_171\n      tag_109\n      jump\t// in\n    tag_171:\n        /* \"#utility.yul\":4183:4286   */\n    tag_170:\n        /* \"#utility.yul\":4313:4314   */\n      0x01\n        /* \"#utility.yul\":4306:4311   */\n      dup3\n        /* \"#utility.yul\":4302:4315   */\n      add\n        /* \"#utility.yul\":4295:4315   */\n      swap1\n      pop\n        /* \"#utility.yul\":4088:4321   */\n      swap2\n      swap1\n      pop\n      jump\t// out\n        /* \"#utility.yul\":4327:4507   */\n    tag_51:\n        /* \"#utility.yul\":4375:4452   */\n      0x4e487b7100000000000000000000000000000000000000000000000000000000\n        /* \"#utility.yul\":4372:4373   */\n      0x00\n        /* \"#utility.yul\":4365:4453   */\n      mstore\n        /* \"#utility.yul\":4472:4476   */\n      0x41\n        /* \"#utility.yul\":4469:4470   */\n      0x04\n        /* \"#utility.yul\":4462:4477   */\n      mstore\n        /* \"#utility.yul\":4496:4500   */\n      0x24\n        /* \"#utility.yul\":4493:4494   */\n      0x00\n        /* \"#utility.yul\":4486:4501   */\n      revert\n        /* \"#utility.yul\":4513:4660   */\n    tag_110:\n        /* \"#utility.yul\":4614:4625   */\n      0x00\n        /* \"#utility.yul\":4651:4654   */\n      dup2\n        /* \"#utility.yul\":4636:4654   */\n      swap1\n      pop\n        /* \"#utility.yul\":4513:4660   */\n      swap3\n      swap2\n      pop\n      pop\n      jump\t// out\n        /* \"#utility.yul\":4666:4780   */\n    tag_111:\n      pop\n      jump\t// out\n        /* \"#utility.yul\":4786:5184   */\n    tag_112:\n        /* \"#utility.yul\":4945:4948   */\n      0x00\n        /* \"#utility.yul\":4966:5049   */\n      tag_176\n        /* \"#utility.yul\":5047:5048   */\n      0x00\n        /* \"#utility.yul\":5042:5045   */\n      dup4\n        /* \"#utility.yul\":4966:5049   */\n      tag_110\n      jump\t// in\n    tag_176:\n        /* \"#utility.yul\":4959:5049   */\n      swap2\n      pop\n        /* \"#utility.yul\":5058:5151   */\n      tag_177\n        /* \"#utility.yul\":5147:5150   */\n      dup3\n        /* \"#utility.yul\":5058:5151   */\n      tag_111\n      jump\t// in\n    tag_177:\n        /* \"#utility.yul\":5176:5177   */\n      0x00\n        /* \"#utility.yul\":5171:5174   */\n      dup3\n        /* \"#utility.yul\":5167:5178   */\n      add\n        /* \"#utility.yul\":5160:5178   */\n      swap1\n      pop\n        /* \"#utility.yul\":4786:5184   */\n      swap2\n      swap1\n      pop\n      jump\t// out\n        /* \"#utility.yul\":5190:5569   */\n    tag_56:\n        /* \"#utility.yul\":5374:5377   */\n      0x00\n        /* \"#utility.yul\":5396:5543   */\n      tag_179\n        /* \"#utility.yul\":5539:5542   */\n      dup3\n        /* \"#utility.yul\":5396:5543   */\n      tag_112\n      jump\t// in\n    tag_179:\n        /* \"#utility.yul\":5389:5543   */\n      swap2\n      pop\n        /* \"#utility.yul\":5560:5563   */\n      dup2\n        /* \"#utility.yul\":5553:5563   */\n      swap1\n      pop\n        /* \"#utility.yul\":5190:5569   */\n      swap2\n      swap1\n      pop\n      jump\t// out\n        /* \"#utility.yul\":5575:5735   */\n    tag_113:\n        /* \"#utility.yul\":5715:5727   */\n      0x43616c6c206661696c6400000000000000000000000000000000000000000000\n        /* \"#utility.yul\":5711:5712   */\n      0x00\n        /* \"#utility.yul\":5703:5709   */\n      dup3\n        /* \"#utility.yul\":5699:5713   */\n      add\n        /* \"#utility.yul\":5692:5728   */\n      mstore\n        /* \"#utility.yul\":5575:5735   */\n      pop\n      jump\t// out\n        /* \"#utility.yul\":5741:6107   */\n    tag_114:\n        /* \"#utility.yul\":5883:5886   */\n      0x00\n        /* \"#utility.yul\":5904:5971   */\n      tag_182\n        /* \"#utility.yul\":5968:5970   */\n      0x0a\n        /* \"#utility.yul\":5963:5966   */\n      dup4\n        /* \"#utility.yul\":5904:5971   */\n      tag_106\n      jump\t// in\n    tag_182:\n        /* \"#utility.yul\":5897:5971   */\n      swap2\n      pop\n        /* \"#utility.yul\":5980:6073   */\n      tag_183\n        /* \"#utility.yul\":6069:6072   */\n      dup3\n        /* \"#utility.yul\":5980:6073   */\n      tag_113\n      jump\t// in\n    tag_183:\n        /* \"#utility.yul\":6098:6100   */\n      0x20\n        /* \"#utility.yul\":6093:6096   */\n      dup3\n        /* \"#utility.yul\":6089:6101   */\n      add\n        /* \"#utility.yul\":6082:6101   */\n      swap1\n      pop\n        /* \"#utility.yul\":5741:6107   */\n      swap2\n      swap1\n      pop\n      jump\t// out\n        /* \"#utility.yul\":6113:6532   */\n    tag_62:\n        /* \"#utility.yul\":6279:6283   */\n      0x00\n        /* \"#utility.yul\":6317:6319   */\n      0x20\n        /* \"#utility.yul\":6306:6315   */\n      dup3\n        /* \"#utility.yul\":6302:6320   */\n      add\n        /* \"#utility.yul\":6294:6320   */\n      swap1\n      pop\n        /* \"#utility.yul\":6366:6375   */\n      dup2\n        /* \"#utility.yul\":6360:6364   */\n      dup2\n        /* \"#utility.yul\":6356:6376   */\n      sub\n        /* \"#utility.yul\":6352:6353   */\n      0x00\n        /* \"#utility.yul\":6341:6350   */\n      dup4\n        /* \"#utility.yul\":6337:6354   */\n      add\n        /* \"#utility.yul\":6330:6377   */\n      mstore\n        /* \"#utility.yul\":6394:6525   */\n      tag_185\n        /* \"#utility.yul\":6520:6524   */\n      dup2\n        /* \"#utility.yul\":6394:6525   */\n      tag_114\n      jump\t// in\n    tag_185:\n        /* \"#utility.yul\":6386:6525   */\n      swap1\n      pop\n        /* \"#utility.yul\":6113:6532   */\n      swap2\n      swap1\n      pop\n      jump\t// out\n        /* \"#utility.yul\":6538:6706   */\n    tag_115:\n        /* \"#utility.yul\":6678:6698   */\n      0x4469646e277420736e656420656e6f7567680000000000000000000000000000\n        /* \"#utility.yul\":6674:6675   */\n      0x00\n        /* \"#utility.yul\":6666:6672   */\n      dup3\n        /* \"#utility.yul\":6662:6676   */\n      add\n        /* \"#utility.yul\":6655:6699   */\n      mstore\n        /* \"#utility.yul\":6538:6706   */\n      pop\n      jump\t// out\n        /* \"#utility.yul\":6712:7078   */\n    tag_116:\n        /* \"#utility.yul\":6854:6857   */\n      0x00\n        /* \"#utility.yul\":6875:6942   */\n      tag_188\n        /* \"#utility.yul\":6939:6941   */\n      0x12\n        /* \"#utility.yul\":6934:6937   */\n      dup4\n        /* \"#utility.yul\":6875:6942   */\n      tag_106\n      jump\t// in\n    tag_188:\n        /* \"#utility.yul\":6868:6942   */\n      swap2\n      pop\n        /* \"#utility.yul\":6951:7044   */\n      tag_189\n        /* \"#utility.yul\":7040:7043   */\n      dup3\n        /* \"#utility.yul\":6951:7044   */\n      tag_115\n      jump\t// in\n    tag_189:\n        /* \"#utility.yul\":7069:7071   */\n      0x20\n        /* \"#utility.yul\":7064:7067   */\n      dup3\n        /* \"#utility.yul\":7060:7072   */\n      add\n        /* \"#utility.yul\":7053:7072   */\n      swap1\n      pop\n        /* \"#utility.yul\":6712:7078   */\n      swap2\n      swap1\n      pop\n      jump\t// out\n        /* \"#utility.yul\":7084:7503   */\n    tag_68:\n        /* \"#utility.yul\":7250:7254   */\n      0x00\n        /* \"#utility.yul\":7288:7290   */\n      0x20\n        /* \"#utility.yul\":7277:7286   */\n      dup3\n        /* \"#utility.yul\":7273:7291   */\n      add\n        /* \"#utility.yul\":7265:7291   */\n      swap1\n      pop\n        /* \"#utility.yul\":7337:7346   */\n      dup2\n        /* \"#utility.yul\":7331:7335   */\n      dup2\n        /* \"#utility.yul\":7327:7347   */\n      sub\n        /* \"#utility.yul\":7323:7324   */\n      0x00\n        /* \"#utility.yul\":7312:7321   */\n      dup4\n        /* \"#utility.yul\":7308:7325   */\n      add\n        /* \"#utility.yul\":7301:7348   */\n      mstore\n        /* \"#utility.yul\":7365:7496   */\n      tag_191\n        /* \"#utility.yul\":7491:7495   */\n      dup2\n        /* \"#utility.yul\":7365:7496   */\n      tag_116\n      jump\t// in\n    tag_191:\n        /* \"#utility.yul\":7357:7496   */\n      swap1\n      pop\n        /* \"#utility.yul\":7084:7503   */\n      swap2\n      swap1\n      pop\n      jump\t// out\n        /* \"#utility.yul\":7509:7857   */\n    tag_76:\n        /* \"#utility.yul\":7549:7556   */\n      0x00\n        /* \"#utility.yul\":7572:7592   */\n      tag_193\n        /* \"#utility.yul\":7590:7591   */\n      dup3\n        /* \"#utility.yul\":7572:7592   */\n      tag_94\n      jump\t// in\n    tag_193:\n        /* \"#utility.yul\":7567:7592   */\n      swap2\n      pop\n        /* \"#utility.yul\":7606:7626   */\n      tag_194\n        /* \"#utility.yul\":7624:7625   */\n      dup4\n        /* \"#utility.yul\":7606:7626   */\n      tag_94\n      jump\t// in\n    tag_194:\n        /* \"#utility.yul\":7601:7626   */\n      swap3\n      pop\n        /* \"#utility.yul\":7794:7795   */\n      dup2\n        /* \"#utility.yul\":7726:7792   */\n      0xffffffffffffffffffffffffffffffffffffffffffffffffffffffffffffffff\n        /* \"#utility.yul\":7722:7796   */\n      div\n        /* \"#utility.yul\":7719:7720   */\n      dup4\n        /* \"#utility.yul\":7716:7797   */\n      gt\n        /* \"#utility.yul\":7711:7712   */\n      dup3\n        /* \"#utility.yul\":7704:7713   */\n      iszero\n        /* \"#utility.yul\":7697:7714   */\n      iszero\n        /* \"#utility.yul\":7693:7798   */\n      and\n        /* \"#utility.yul\":7690:7821   */\n      iszero\n      tag_195\n      jumpi\n        /* \"#utility.yul\":7801:7819   */\n      tag_196\n      tag_109\n      jump\t// in\n    tag_196:\n        /* \"#utility.yul\":7690:7821   */\n    tag_195:\n        /* \"#utility.yul\":7849:7850   */\n      dup3\n        /* \"#utility.yul\":7846:7847   */\n      dup3\n        /* \"#utility.yul\":7842:7851   */\n      mul\n        /* \"#utility.yul\":7831:7851   */\n      swap1\n      pop\n        /* \"#utility.yul\":7509:7857   */\n      swap3\n      swap2\n      pop\n      pop\n      jump\t// out\n        /* \"#utility.yul\":7863:8043   */\n    tag_117:\n        /* \"#utility.yul\":7911:7988   */\n      0x4e487b7100000000000000000000000000000000000000000000000000000000\n        /* \"#utility.yul\":7908:7909   */\n      0x00\n        /* \"#utility.yul\":7901:7989   */\n      mstore\n        /* \"#utility.yul\":8008:8012   */\n      0x12\n        /* \"#utility.yul\":8005:8006   */\n      0x04\n        /* \"#utility.yul\":7998:8013   */\n      mstore\n        /* \"#utility.yul\":8032:8036   */\n      0x24\n        /* \"#utility.yul\":8029:8030   */\n      0x00\n        /* \"#utility.yul\":8022:8037   */\n      revert\n        /* \"#utility.yul\":8049:8234   */\n    tag_78:\n        /* \"#utility.yul\":8089:8090   */\n      0x00\n        /* \"#utility.yul\":8106:8126   */\n      tag_199\n        /* \"#utility.yul\":8124:8125   */\n      dup3\n        /* \"#utility.yul\":8106:8126   */\n      tag_94\n      jump\t// in\n    tag_199:\n        /* \"#utility.yul\":8101:8126   */\n      swap2\n      pop\n        /* \"#utility.yul\":8140:8160   */\n      tag_200\n        /* \"#utility.yul\":8158:8159   */\n      dup4\n        /* \"#utility.yul\":8140:8160   */\n      tag_94\n      jump\t// in\n    tag_200:\n        /* \"#utility.yul\":8135:8160   */\n      swap3\n      pop\n        /* \"#utility.yul\":8179:8180   */\n      dup3\n        /* \"#utility.yul\":8169:8204   */\n      tag_201\n      jumpi\n        /* \"#utility.yul\":8184:8202   */\n      tag_202\n      tag_117\n      jump\t// in\n    tag_202:\n        /* \"#utility.yul\":8169:8204   */\n    tag_201:\n        /* \"#utility.yul\":8226:8227   */\n      dup3\n        /* \"#utility.yul\":8223:8224   */\n      dup3\n        /* \"#utility.yul\":8219:8228   */\n      div\n        /* \"#utility.yul\":8214:8228   */\n      swap1\n      pop\n        /* \"#utility.yul\":8049:8234   */\n      swap3\n      swap2\n      pop\n      pop\n      jump\t// out\n        /* \"#utility.yul\":8240:8345   */\n    tag_118:\n        /* \"#utility.yul\":8276:8283   */\n      0x00\n        /* \"#utility.yul\":8316:8338   */\n      0xffffffffffffffffffff\n        /* \"#utility.yul\":8309:8314   */\n      dup3\n        /* \"#utility.yul\":8305:8339   */\n      and\n        /* \"#utility.yul\":8294:8339   */\n      swap1\n      pop\n        /* \"#utility.yul\":8240:8345   */\n      swap2\n      swap1\n      pop\n      jump\t// out\n        /* \"#utility.yul\":8351:8471   */\n    tag_119:\n        /* \"#utility.yul\":8423:8446   */\n      tag_205\n        /* \"#utility.yul\":8440:8445   */\n      dup2\n        /* \"#utility.yul\":8423:8446   */\n      tag_118\n      jump\t// in\n    tag_205:\n        /* \"#utility.yul\":8416:8421   */\n      dup2\n        /* \"#utility.yul\":8413:8447   */\n      eq\n        /* \"#utility.yul\":8403:8465   */\n      tag_206\n      jumpi\n        /* \"#utility.yul\":8461:8462   */\n      0x00\n        /* \"#utility.yul\":8458:8459   */\n      dup1\n        /* \"#utility.yul\":8451:8463   */\n      revert\n        /* \"#utility.yul\":8403:8465   */\n    tag_206:\n        /* \"#utility.yul\":8351:8471   */\n      pop\n      jump\t// out\n        /* \"#utility.yul\":8477:8618   */\n    tag_120:\n        /* \"#utility.yul\":8533:8538   */\n      0x00\n        /* \"#utility.yul\":8564:8570   */\n      dup2\n        /* \"#utility.yul\":8558:8571   */\n      mload\n        /* \"#utility.yul\":8549:8571   */\n      swap1\n      pop\n        /* \"#utility.yul\":8580:8612   */\n      tag_208\n        /* \"#utility.yul\":8606:8611   */\n      dup2\n        /* \"#utility.yul\":8580:8612   */\n      tag_119\n      jump\t// in\n    tag_208:\n        /* \"#utility.yul\":8477:8618   */\n      swap3\n      swap2\n      pop\n      pop\n      jump\t// out\n        /* \"#utility.yul\":8624:8700   */\n    tag_121:\n        /* \"#utility.yul\":8660:8667   */\n      0x00\n        /* \"#utility.yul\":8689:8694   */\n      dup2\n        /* \"#utility.yul\":8678:8694   */\n      swap1\n      pop\n        /* \"#utility.yul\":8624:8700   */\n      swap2\n      swap1\n      pop\n      jump\t// out\n        /* \"#utility.yul\":8706:8826   */\n    tag_122:\n        /* \"#utility.yul\":8778:8801   */\n      tag_211\n        /* \"#utility.yul\":8795:8800   */\n      dup2\n        /* \"#utility.yul\":8778:8801   */\n      tag_121\n      jump\t// in\n    tag_211:\n        /* \"#utility.yul\":8771:8776   */\n      dup2\n        /* \"#utility.yul\":8768:8802   */\n      eq\n        /* \"#utility.yul\":8758:8820   */\n      tag_212\n      jumpi\n        /* \"#utility.yul\":8816:8817   */\n      0x00\n        /* \"#utility.yul\":8813:8814   */\n      dup1\n        /* \"#utility.yul\":8806:8818   */\n      revert\n        /* \"#utility.yul\":8758:8820   */\n    tag_212:\n        /* \"#utility.yul\":8706:8826   */\n      pop\n      jump\t// out\n        /* \"#utility.yul\":8832:8973   */\n    tag_123:\n        /* \"#utility.yul\":8888:8893   */\n      0x00\n        /* \"#utility.yul\":8919:8925   */\n      dup2\n        /* \"#utility.yul\":8913:8926   */\n      mload\n        /* \"#utility.yul\":8904:8926   */\n      swap1\n      pop\n        /* \"#utility.yul\":8935:8967   */\n      tag_214\n        /* \"#utility.yul\":8961:8966   */\n      dup2\n        /* \"#utility.yul\":8935:8967   */\n      tag_122\n      jump\t// in\n    tag_214:\n        /* \"#utility.yul\":8832:8973   */\n      swap3\n      swap2\n      pop\n      pop\n      jump\t// out\n        /* \"#utility.yul\":8979:9122   */\n    tag_124:\n        /* \"#utility.yul\":9036:9041   */\n      0x00\n        /* \"#utility.yul\":9067:9073   */\n      dup2\n        /* \"#utility.yul\":9061:9074   */\n      mload\n        /* \"#utility.yul\":9052:9074   */\n      swap1\n      pop\n        /* \"#utility.yul\":9083:9116   */\n      tag_216\n        /* \"#utility.yul\":9110:9115   */\n      dup2\n        /* \"#utility.yul\":9083:9116   */\n      tag_104\n      jump\t// in\n    tag_216:\n        /* \"#utility.yul\":8979:9122   */\n      swap3\n      swap2\n      pop\n      pop\n      jump\t// out\n        /* \"#utility.yul\":9128:10099   */\n    tag_84:\n        /* \"#utility.yul\":9231:9237   */\n      0x00\n        /* \"#utility.yul\":9239:9245   */\n      dup1\n        /* \"#utility.yul\":9247:9253   */\n      0x00\n        /* \"#utility.yul\":9255:9261   */\n      dup1\n        /* \"#utility.yul\":9263:9269   */\n      0x00\n        /* \"#utility.yul\":9312:9315   */\n      0xa0\n        /* \"#utility.yul\":9300:9309   */\n      dup7\n        /* \"#utility.yul\":9291:9298   */\n      dup9\n        /* \"#utility.yul\":9287:9310   */\n      sub\n        /* \"#utility.yul\":9283:9316   */\n      slt\n        /* \"#utility.yul\":9280:9400   */\n      iszero\n      tag_218\n      jumpi\n        /* \"#utility.yul\":9319:9398   */\n      tag_219\n      tag_97\n      jump\t// in\n    tag_219:\n        /* \"#utility.yul\":9280:9400   */\n    tag_218:\n        /* \"#utility.yul\":9439:9440   */\n      0x00\n        /* \"#utility.yul\":9464:9527   */\n      tag_220\n        /* \"#utility.yul\":9519:9526   */\n      dup9\n        /* \"#utility.yul\":9510:9516   */\n      dup3\n        /* \"#utility.yul\":9499:9508   */\n      dup10\n        /* \"#utility.yul\":9495:9517   */\n      add\n        /* \"#utility.yul\":9464:9527   */\n      tag_120\n      jump\t// in\n    tag_220:\n        /* \"#utility.yul\":9454:9527   */\n      swap6\n      pop\n        /* \"#utility.yul\":9410:9537   */\n      pop\n        /* \"#utility.yul\":9576:9578   */\n      0x20\n        /* \"#utility.yul\":9602:9665   */\n      tag_221\n        /* \"#utility.yul\":9657:9664   */\n      dup9\n        /* \"#utility.yul\":9648:9654   */\n      dup3\n        /* \"#utility.yul\":9637:9646   */\n      dup10\n        /* \"#utility.yul\":9633:9655   */\n      add\n        /* \"#utility.yul\":9602:9665   */\n      tag_123\n      jump\t// in\n    tag_221:\n        /* \"#utility.yul\":9592:9665   */\n      swap5\n      pop\n        /* \"#utility.yul\":9547:9675   */\n      pop\n        /* \"#utility.yul\":9714:9716   */\n      0x40\n        /* \"#utility.yul\":9740:9804   */\n      tag_222\n        /* \"#utility.yul\":9796:9803   */\n      dup9\n        /* \"#utility.yul\":9787:9793   */\n      dup3\n        /* \"#utility.yul\":9776:9785   */\n      dup10\n        /* \"#utility.yul\":9772:9794   */\n      add\n        /* \"#utility.yul\":9740:9804   */\n      tag_124\n      jump\t// in\n    tag_222:\n        /* \"#utility.yul\":9730:9804   */\n      swap4\n      pop\n        /* \"#utility.yul\":9685:9814   */\n      pop\n        /* \"#utility.yul\":9853:9855   */\n      0x60\n        /* \"#utility.yul\":9879:9943   */\n      tag_223\n        /* \"#utility.yul\":9935:9942   */\n      dup9\n        /* \"#utility.yul\":9926:9932   */\n      dup3\n        /* \"#utility.yul\":9915:9924   */\n      dup10\n        /* \"#utility.yul\":9911:9933   */\n      add\n        /* \"#utility.yul\":9879:9943   */\n      tag_124\n      jump\t// in\n    tag_223:\n        /* \"#utility.yul\":9869:9943   */\n      swap3\n      pop\n        /* \"#utility.yul\":9824:9953   */\n      pop\n        /* \"#utility.yul\":9992:9995   */\n      0x80\n        /* \"#utility.yul\":10019:10082   */\n      tag_224\n        /* \"#utility.yul\":10074:10081   */\n      dup9\n        /* \"#utility.yul\":10065:10071   */\n      dup3\n        /* \"#utility.yul\":10054:10063   */\n      dup10\n        /* \"#utility.yul\":10050:10072   */\n      add\n        /* \"#utility.yul\":10019:10082   */\n      tag_120\n      jump\t// in\n    tag_224:\n        /* \"#utility.yul\":10009:10082   */\n      swap2\n      pop\n        /* \"#utility.yul\":9963:10092   */\n      pop\n        /* \"#utility.yul\":9128:10099   */\n      swap3\n      swap6\n      pop\n      swap3\n      swap6\n      swap1\n      swap4\n      pop\n      jump\t// out\n        /* \"#utility.yul\":10105:11096   */\n    tag_86:\n        /* \"#utility.yul\":10144:10151   */\n      0x00\n        /* \"#utility.yul\":10167:10186   */\n      tag_226\n        /* \"#utility.yul\":10184:10185   */\n      dup3\n        /* \"#utility.yul\":10167:10186   */\n      tag_121\n      jump\t// in\n    tag_226:\n        /* \"#utility.yul\":10162:10186   */\n      swap2\n      pop\n        /* \"#utility.yul\":10200:10219   */\n      tag_227\n        /* \"#utility.yul\":10217:10218   */\n      dup4\n        /* \"#utility.yul\":10200:10219   */\n      tag_121\n      jump\t// in\n    tag_227:\n        /* \"#utility.yul\":10195:10219   */\n      swap3\n      pop\n        /* \"#utility.yul\":10401:10402   */\n      dup3\n        /* \"#utility.yul\":10333:10399   */\n      0x7fffffffffffffffffffffffffffffffffffffffffffffffffffffffffffffff\n        /* \"#utility.yul\":10329:10403   */\n      div\n        /* \"#utility.yul\":10326:10327   */\n      dup3\n        /* \"#utility.yul\":10323:10404   */\n      gt\n        /* \"#utility.yul\":10318:10319   */\n      0x00\n        /* \"#utility.yul\":10315:10316   */\n      dup5\n        /* \"#utility.yul\":10311:10320   */\n      sgt\n        /* \"#utility.yul\":10307:10308   */\n      0x00\n        /* \"#utility.yul\":10304:10305   */\n      dup5\n        /* \"#utility.yul\":10300:10309   */\n      sgt\n        /* \"#utility.yul\":10296:10321   */\n      and\n        /* \"#utility.yul\":10292:10405   */\n      and\n        /* \"#utility.yul\":10289:10428   */\n      iszero\n      tag_228\n      jumpi\n        /* \"#utility.yul\":10408:10426   */\n      tag_229\n      tag_109\n      jump\t// in\n    tag_229:\n        /* \"#utility.yul\":10289:10428   */\n    tag_228:\n        /* \"#utility.yul\":10612:10613   */\n      dup2\n        /* \"#utility.yul\":10544:10610   */\n      0x8000000000000000000000000000000000000000000000000000000000000000\n        /* \"#utility.yul\":10539:10614   */\n      sdiv\n        /* \"#utility.yul\":10536:10537   */\n      dup4\n        /* \"#utility.yul\":10532:10615   */\n      slt\n        /* \"#utility.yul\":10527:10528   */\n      0x00\n        /* \"#utility.yul\":10524:10525   */\n      dup5\n        /* \"#utility.yul\":10520:10529   */\n      slt\n        /* \"#utility.yul\":10516:10517   */\n      0x00\n        /* \"#utility.yul\":10513:10514   */\n      dup5\n        /* \"#utility.yul\":10509:10518   */\n      sgt\n        /* \"#utility.yul\":10505:10530   */\n      and\n        /* \"#utility.yul\":10501:10616   */\n      and\n        /* \"#utility.yul\":10498:10639   */\n      iszero\n      tag_230\n      jumpi\n        /* \"#utility.yul\":10619:10637   */\n      tag_231\n      tag_109\n      jump\t// in\n    tag_231:\n        /* \"#utility.yul\":10498:10639   */\n    tag_230:\n        /* \"#utility.yul\":10823:10824   */\n      dup3\n        /* \"#utility.yul\":10755:10821   */\n      0x8000000000000000000000000000000000000000000000000000000000000000\n        /* \"#utility.yul\":10750:10825   */\n      sdiv\n        /* \"#utility.yul\":10747:10748   */\n      dup3\n        /* \"#utility.yul\":10743:10826   */\n      slt\n        /* \"#utility.yul\":10738:10739   */\n      0x00\n        /* \"#utility.yul\":10735:10736   */\n      dup5\n        /* \"#utility.yul\":10731:10740   */\n      sgt\n        /* \"#utility.yul\":10727:10728   */\n      0x00\n        /* \"#utility.yul\":10724:10725   */\n      dup5\n        /* \"#utility.yul\":10720:10729   */\n      slt\n        /* \"#utility.yul\":10716:10741   */\n      and\n        /* \"#utility.yul\":10712:10827   */\n      and\n        /* \"#utility.yul\":10709:10850   */\n      iszero\n      tag_232\n      jumpi\n        /* \"#utility.yul\":10830:10848   */\n      tag_233\n      tag_109\n      jump\t// in\n    tag_233:\n        /* \"#utility.yul\":10709:10850   */\n    tag_232:\n        /* \"#utility.yul\":11033:11034   */\n      dup3\n        /* \"#utility.yul\":10965:11031   */\n      0x7fffffffffffffffffffffffffffffffffffffffffffffffffffffffffffffff\n        /* \"#utility.yul\":10960:11035   */\n      sdiv\n        /* \"#utility.yul\":10957:10958   */\n      dup3\n        /* \"#utility.yul\":10953:11036   */\n      slt\n        /* \"#utility.yul\":10948:10949   */\n      0x00\n        /* \"#utility.yul\":10945:10946   */\n      dup5\n        /* \"#utility.yul\":10941:10950   */\n      slt\n        /* \"#utility.yul\":10937:10938   */\n      0x00\n        /* \"#utility.yul\":10934:10935   */\n      dup5\n        /* \"#utility.yul\":10930:10939   */\n      slt\n        /* \"#utility.yul\":10926:10951   */\n      and\n        /* \"#utility.yul\":10922:11037   */\n      and\n        /* \"#utility.yul\":10919:11060   */\n      iszero\n      tag_234\n      jumpi\n        /* \"#utility.yul\":11040:11058   */\n      tag_235\n      tag_109\n      jump\t// in\n    tag_235:\n        /* \"#utility.yul\":10919:11060   */\n    tag_234:\n        /* \"#utility.yul\":11088:11089   */\n      dup3\n        /* \"#utility.yul\":11085:11086   */\n      dup3\n        /* \"#utility.yul\":11081:11090   */\n      mul\n        /* \"#utility.yul\":11070:11090   */\n      swap1\n      pop\n        /* \"#utility.yul\":10105:11096   */\n      swap3\n      swap2\n      pop\n      pop\n      jump\t// out\n\n    auxdata: 0xa264697066735822122056fc369e376cc65387660602b91564544205497d9257abcec1e9022e4479694664736f6c63430008080033\n}\n",
				"bytecode": {
					"linkReferences": {},
					"object": "60806040526802b5e3af16b188000060005534801561001d57600080fd5b5033600360006101000a81548173ffffffffffffffffffffffffffffffffffffffff021916908373ffffffffffffffffffffffffffffffffffffffff160217905550610d6f8061006e6000396000f3fe6080604052600436106100555760003560e01c8063098de8201461005a5780633b874521146100855780633e47d6f31461009c5780638da5cb5b146100d9578063b60d428814610104578063dc0d3dff1461010e575b600080fd5b34801561006657600080fd5b5061006f61014b565b60405161007c91906106c1565b60405180910390f35b34801561009157600080fd5b5061009a610151565b005b3480156100a857600080fd5b506100c360048036038101906100be919061073f565b61039d565b6040516100d091906106c1565b60405180910390f35b3480156100e557600080fd5b506100ee6103b5565b6040516100fb919061077b565b60405180910390f35b61010c6103db565b005b34801561011a57600080fd5b50610135600480360381019061013091906107c2565b6104d0565b604051610142919061077b565b60405180910390f35b60005481565b600360009054906101000a900473ffffffffffffffffffffffffffffffffffffffff1673ffffffffffffffffffffffffffffffffffffffff163373ffffffffffffffffffffffffffffffffffffffff16146101e1576040517f08c379a00000000000000000000000000000000000000000000000000000000081526004016101d89061084c565b60405180910390fd5b60005b60018054905081101561028d576000600182815481106102075761020661086c565b5b9060005260206000200160009054906101000a900473ffffffffffffffffffffffffffffffffffffffff1690506000600260008373ffffffffffffffffffffffffffffffffffffffff1673ffffffffffffffffffffffffffffffffffffffff16815260200190815260200160002081905550508080610285906108ca565b9150506101e4565b50600067ffffffffffffffff8111156102a9576102a8610913565b5b6040519080825280602002602001820160405280156102d75781602001602082028036833780820191505090505b50600190805190602001906102ed929190610601565b5060003373ffffffffffffffffffffffffffffffffffffffff164760405161031490610973565b60006040518083038185875af1925050503d8060008114610351576040519150601f19603f3d011682016040523d82523d6000602084013e610356565b606091505b505090508061039a576040517f08c379a0000000000000000000000000000000000000000000000000000000008152600401610391906109d4565b60405180910390fd5b50565b60026020528060005260406000206000915090505481565b600360009054906101000a900473ffffffffffffffffffffffffffffffffffffffff1681565b6000546103e73461050f565b11610427576040517f08c379a000000000000000000000000000000000000000000000000000000000815260040161041e90610a40565b60405180910390fd5b6001339080600181540180825580915050600190039060005260206000200160009091909190916101000a81548173ffffffffffffffffffffffffffffffffffffffff021916908373ffffffffffffffffffffffffffffffffffffffff16021790555034600260003373ffffffffffffffffffffffffffffffffffffffff1673ffffffffffffffffffffffffffffffffffffffff16815260200190815260200160002081905550565b600181815481106104e057600080fd5b906000526020600020016000915054906101000a900473ffffffffffffffffffffffffffffffffffffffff1681565b60008061051a610549565b90506000670de0b6b3a764000084836105339190610a60565b61053d9190610ae9565b90508092505050919050565b60008073d4a33860578de61dbabdc8bfdb98fd742fa7028e905060008173ffffffffffffffffffffffffffffffffffffffff1663feaf968c6040518163ffffffff1660e01b815260040160a06040518083038186803b1580156105ab57600080fd5b505afa1580156105bf573d6000803e3d6000fd5b505050506040513d601f19601f820116820180604052508101906105e39190610ba7565b5050509150506402540be400816105fa9190610c22565b9250505090565b82805482825590600052602060002090810192821561067a579160200282015b828111156106795782518260006101000a81548173ffffffffffffffffffffffffffffffffffffffff021916908373ffffffffffffffffffffffffffffffffffffffff16021790555091602001919060010190610621565b5b509050610687919061068b565b5090565b5b808211156106a457600081600090555060010161068c565b5090565b6000819050919050565b6106bb816106a8565b82525050565b60006020820190506106d660008301846106b2565b92915050565b600080fd5b600073ffffffffffffffffffffffffffffffffffffffff82169050919050565b600061070c826106e1565b9050919050565b61071c81610701565b811461072757600080fd5b50565b60008135905061073981610713565b92915050565b600060208284031215610755576107546106dc565b5b60006107638482850161072a565b91505092915050565b61077581610701565b82525050565b6000602082019050610790600083018461076c565b92915050565b61079f816106a8565b81146107aa57600080fd5b50565b6000813590506107bc81610796565b92915050565b6000602082840312156107d8576107d76106dc565b5b60006107e6848285016107ad565b91505092915050565b600082825260208201905092915050565b7f596f7520617265206e6f74206f776e6572000000000000000000000000000000600082015250565b60006108366011836107ef565b915061084182610800565b602082019050919050565b6000602082019050818103600083015261086581610829565b9050919050565b7f4e487b7100000000000000000000000000000000000000000000000000000000600052603260045260246000fd5b7f4e487b7100000000000000000000000000000000000000000000000000000000600052601160045260246000fd5b60006108d5826106a8565b91507fffffffffffffffffffffffffffffffffffffffffffffffffffffffffffffffff8214156109085761090761089b565b5b600182019050919050565b7f4e487b7100000000000000000000000000000000000000000000000000000000600052604160045260246000fd5b600081905092915050565b50565b600061095d600083610942565b91506109688261094d565b600082019050919050565b600061097e82610950565b9150819050919050565b7f43616c6c206661696c6400000000000000000000000000000000000000000000600082015250565b60006109be600a836107ef565b91506109c982610988565b602082019050919050565b600060208201905081810360008301526109ed816109b1565b9050919050565b7f4469646e277420736e656420656e6f7567680000000000000000000000000000600082015250565b6000610a2a6012836107ef565b9150610a35826109f4565b602082019050919050565b60006020820190508181036000830152610a5981610a1d565b9050919050565b6000610a6b826106a8565b9150610a76836106a8565b9250817fffffffffffffffffffffffffffffffffffffffffffffffffffffffffffffffff0483118215151615610aaf57610aae61089b565b5b828202905092915050565b7f4e487b7100000000000000000000000000000000000000000000000000000000600052601260045260246000fd5b6000610af4826106a8565b9150610aff836106a8565b925082610b0f57610b0e610aba565b5b828204905092915050565b600069ffffffffffffffffffff82169050919050565b610b3981610b1a565b8114610b4457600080fd5b50565b600081519050610b5681610b30565b92915050565b6000819050919050565b610b6f81610b5c565b8114610b7a57600080fd5b50565b600081519050610b8c81610b66565b92915050565b600081519050610ba181610796565b92915050565b600080600080600060a08688031215610bc357610bc26106dc565b5b6000610bd188828901610b47565b9550506020610be288828901610b7d565b9450506040610bf388828901610b92565b9350506060610c0488828901610b92565b9250506080610c1588828901610b47565b9150509295509295909350565b6000610c2d82610b5c565b9150610c3883610b5c565b9250827f7fffffffffffffffffffffffffffffffffffffffffffffffffffffffffffffff0482116000841360008413161615610c7757610c7661089b565b5b817f80000000000000000000000000000000000000000000000000000000000000000583126000841260008413161615610cb457610cb361089b565b5b827f80000000000000000000000000000000000000000000000000000000000000000582126000841360008412161615610cf157610cf061089b565b5b827f7fffffffffffffffffffffffffffffffffffffffffffffffffffffffffffffff0582126000841260008412161615610d2e57610d2d61089b565b5b82820290509291505056fea264697066735822122056fc369e376cc65387660602b91564544205497d9257abcec1e9022e4479694664736f6c63430008080033",
					"opcodes": "PUSH1 0x80 PUSH1 0x40 MSTORE PUSH9 0x2B5E3AF16B1880000 PUSH1 0x0 SSTORE CALLVALUE DUP1 ISZERO PUSH2 0x1D JUMPI PUSH1 0x0 DUP1 REVERT JUMPDEST POP CALLER PUSH1 0x3 PUSH1 0x0 PUSH2 0x100 EXP DUP2 SLOAD DUP2 PUSH20 0xFFFFFFFFFFFFFFFFFFFFFFFFFFFFFFFFFFFFFFFF MUL NOT AND SWAP1 DUP4 PUSH20 0xFFFFFFFFFFFFFFFFFFFFFFFFFFFFFFFFFFFFFFFF AND MUL OR SWAP1 SSTORE POP PUSH2 0xD6F DUP1 PUSH2 0x6E PUSH1 0x0 CODECOPY PUSH1 0x0 RETURN INVALID PUSH1 0x80 PUSH1 0x40 MSTORE PUSH1 0x4 CALLDATASIZE LT PUSH2 0x55 JUMPI PUSH1 0x0 CALLDATALOAD PUSH1 0xE0 SHR DUP1 PUSH4 0x98DE820 EQ PUSH2 0x5A JUMPI DUP1 PUSH4 0x3B874521 EQ PUSH2 0x85 JUMPI DUP1 PUSH4 0x3E47D6F3 EQ PUSH2 0x9C JUMPI DUP1 PUSH4 0x8DA5CB5B EQ PUSH2 0xD9 JUMPI DUP1 PUSH4 0xB60D4288 EQ PUSH2 0x104 JUMPI DUP1 PUSH4 0xDC0D3DFF EQ PUSH2 0x10E JUMPI JUMPDEST PUSH1 0x0 DUP1 REVERT JUMPDEST CALLVALUE DUP1 ISZERO PUSH2 0x66 JUMPI PUSH1 0x0 DUP1 REVERT JUMPDEST POP PUSH2 0x6F PUSH2 0x14B JUMP JUMPDEST PUSH1 0x40 MLOAD PUSH2 0x7C SWAP2 SWAP1 PUSH2 0x6C1 JUMP JUMPDEST PUSH1 0x40 MLOAD DUP1 SWAP2 SUB SWAP1 RETURN JUMPDEST CALLVALUE DUP1 ISZERO PUSH2 0x91 JUMPI PUSH1 0x0 DUP1 REVERT JUMPDEST POP PUSH2 0x9A PUSH2 0x151 JUMP JUMPDEST STOP JUMPDEST CALLVALUE DUP1 ISZERO PUSH2 0xA8 JUMPI PUSH1 0x0 DUP1 REVERT JUMPDEST POP PUSH2 0xC3 PUSH1 0x4 DUP1 CALLDATASIZE SUB DUP2 ADD SWAP1 PUSH2 0xBE SWAP2 SWAP1 PUSH2 0x73F JUMP JUMPDEST PUSH2 0x39D JUMP JUMPDEST PUSH1 0x40 MLOAD PUSH2 0xD0 SWAP2 SWAP1 PUSH2 0x6C1 JUMP JUMPDEST PUSH1 0x40 MLOAD DUP1 SWAP2 SUB SWAP1 RETURN JUMPDEST CALLVALUE DUP1 ISZERO PUSH2 0xE5 JUMPI PUSH1 0x0 DUP1 REVERT JUMPDEST POP PUSH2 0xEE PUSH2 0x3B5 JUMP JUMPDEST PUSH1 0x40 MLOAD PUSH2 0xFB SWAP2 SWAP1 PUSH2 0x77B JUMP JUMPDEST PUSH1 0x40 MLOAD DUP1 SWAP2 SUB SWAP1 RETURN JUMPDEST PUSH2 0x10C PUSH2 0x3DB JUMP JUMPDEST STOP JUMPDEST CALLVALUE DUP1 ISZERO PUSH2 0x11A JUMPI PUSH1 0x0 DUP1 REVERT JUMPDEST POP PUSH2 0x135 PUSH1 0x4 DUP1 CALLDATASIZE SUB DUP2 ADD SWAP1 PUSH2 0x130 SWAP2 SWAP1 PUSH2 0x7C2 JUMP JUMPDEST PUSH2 0x4D0 JUMP JUMPDEST PUSH1 0x40 MLOAD PUSH2 0x142 SWAP2 SWAP1 PUSH2 0x77B JUMP JUMPDEST PUSH1 0x40 MLOAD DUP1 SWAP2 SUB SWAP1 RETURN JUMPDEST PUSH1 0x0 SLOAD DUP2 JUMP JUMPDEST PUSH1 0x3 PUSH1 0x0 SWAP1 SLOAD SWAP1 PUSH2 0x100 EXP SWAP1 DIV PUSH20 0xFFFFFFFFFFFFFFFFFFFFFFFFFFFFFFFFFFFFFFFF AND PUSH20 0xFFFFFFFFFFFFFFFFFFFFFFFFFFFFFFFFFFFFFFFF AND CALLER PUSH20 0xFFFFFFFFFFFFFFFFFFFFFFFFFFFFFFFFFFFFFFFF AND EQ PUSH2 0x1E1 JUMPI PUSH1 0x40 MLOAD PUSH32 0x8C379A000000000000000000000000000000000000000000000000000000000 DUP2 MSTORE PUSH1 0x4 ADD PUSH2 0x1D8 SWAP1 PUSH2 0x84C JUMP JUMPDEST PUSH1 0x40 MLOAD DUP1 SWAP2 SUB SWAP1 REVERT JUMPDEST PUSH1 0x0 JUMPDEST PUSH1 0x1 DUP1 SLOAD SWAP1 POP DUP2 LT ISZERO PUSH2 0x28D JUMPI PUSH1 0x0 PUSH1 0x1 DUP3 DUP2 SLOAD DUP2 LT PUSH2 0x207 JUMPI PUSH2 0x206 PUSH2 0x86C JUMP JUMPDEST JUMPDEST SWAP1 PUSH1 0x0 MSTORE PUSH1 0x20 PUSH1 0x0 KECCAK256 ADD PUSH1 0x0 SWAP1 SLOAD SWAP1 PUSH2 0x100 EXP SWAP1 DIV PUSH20 0xFFFFFFFFFFFFFFFFFFFFFFFFFFFFFFFFFFFFFFFF AND SWAP1 POP PUSH1 0x0 PUSH1 0x2 PUSH1 0x0 DUP4 PUSH20 0xFFFFFFFFFFFFFFFFFFFFFFFFFFFFFFFFFFFFFFFF AND PUSH20 0xFFFFFFFFFFFFFFFFFFFFFFFFFFFFFFFFFFFFFFFF AND DUP2 MSTORE PUSH1 0x20 ADD SWAP1 DUP2 MSTORE PUSH1 0x20 ADD PUSH1 0x0 KECCAK256 DUP2 SWAP1 SSTORE POP POP DUP1 DUP1 PUSH2 0x285 SWAP1 PUSH2 0x8CA JUMP JUMPDEST SWAP2 POP POP PUSH2 0x1E4 JUMP JUMPDEST POP PUSH1 0x0 PUSH8 0xFFFFFFFFFFFFFFFF DUP2 GT ISZERO PUSH2 0x2A9 JUMPI PUSH2 0x2A8 PUSH2 0x913 JUMP JUMPDEST JUMPDEST PUSH1 0x40 MLOAD SWAP1 DUP1 DUP3 MSTORE DUP1 PUSH1 0x20 MUL PUSH1 0x20 ADD DUP3 ADD PUSH1 0x40 MSTORE DUP1 ISZERO PUSH2 0x2D7 JUMPI DUP2 PUSH1 0x20 ADD PUSH1 0x20 DUP3 MUL DUP1 CALLDATASIZE DUP4 CALLDATACOPY DUP1 DUP3 ADD SWAP2 POP POP SWAP1 POP JUMPDEST POP PUSH1 0x1 SWAP1 DUP1 MLOAD SWAP1 PUSH1 0x20 ADD SWAP1 PUSH2 0x2ED SWAP3 SWAP2 SWAP1 PUSH2 0x601 JUMP JUMPDEST POP PUSH1 0x0 CALLER PUSH20 0xFFFFFFFFFFFFFFFFFFFFFFFFFFFFFFFFFFFFFFFF AND SELFBALANCE PUSH1 0x40 MLOAD PUSH2 0x314 SWAP1 PUSH2 0x973 JUMP JUMPDEST PUSH1 0x0 PUSH1 0x40 MLOAD DUP1 DUP4 SUB DUP2 DUP6 DUP8 GAS CALL SWAP3 POP POP POP RETURNDATASIZE DUP1 PUSH1 0x0 DUP2 EQ PUSH2 0x351 JUMPI PUSH1 0x40 MLOAD SWAP2 POP PUSH1 0x1F NOT PUSH1 0x3F RETURNDATASIZE ADD AND DUP3 ADD PUSH1 0x40 MSTORE RETURNDATASIZE DUP3 MSTORE RETURNDATASIZE PUSH1 0x0 PUSH1 0x20 DUP5 ADD RETURNDATACOPY PUSH2 0x356 JUMP JUMPDEST PUSH1 0x60 SWAP2 POP JUMPDEST POP POP SWAP1 POP DUP1 PUSH2 0x39A JUMPI PUSH1 0x40 MLOAD PUSH32 0x8C379A000000000000000000000000000000000000000000000000000000000 DUP2 MSTORE PUSH1 0x4 ADD PUSH2 0x391 SWAP1 PUSH2 0x9D4 JUMP JUMPDEST PUSH1 0x40 MLOAD DUP1 SWAP2 SUB SWAP1 REVERT JUMPDEST POP JUMP JUMPDEST PUSH1 0x2 PUSH1 0x20 MSTORE DUP1 PUSH1 0x0 MSTORE PUSH1 0x40 PUSH1 0x0 KECCAK256 PUSH1 0x0 SWAP2 POP SWAP1 POP SLOAD DUP2 JUMP JUMPDEST PUSH1 0x3 PUSH1 0x0 SWAP1 SLOAD SWAP1 PUSH2 0x100 EXP SWAP1 DIV PUSH20 0xFFFFFFFFFFFFFFFFFFFFFFFFFFFFFFFFFFFFFFFF AND DUP2 JUMP JUMPDEST PUSH1 0x0 SLOAD PUSH2 0x3E7 CALLVALUE PUSH2 0x50F JUMP JUMPDEST GT PUSH2 0x427 JUMPI PUSH1 0x40 MLOAD PUSH32 0x8C379A000000000000000000000000000000000000000000000000000000000 DUP2 MSTORE PUSH1 0x4 ADD PUSH2 0x41E SWAP1 PUSH2 0xA40 JUMP JUMPDEST PUSH1 0x40 MLOAD DUP1 SWAP2 SUB SWAP1 REVERT JUMPDEST PUSH1 0x1 CALLER SWAP1 DUP1 PUSH1 0x1 DUP2 SLOAD ADD DUP1 DUP3 SSTORE DUP1 SWAP2 POP POP PUSH1 0x1 SWAP1 SUB SWAP1 PUSH1 0x0 MSTORE PUSH1 0x20 PUSH1 0x0 KECCAK256 ADD PUSH1 0x0 SWAP1 SWAP2 SWAP1 SWAP2 SWAP1 SWAP2 PUSH2 0x100 EXP DUP2 SLOAD DUP2 PUSH20 0xFFFFFFFFFFFFFFFFFFFFFFFFFFFFFFFFFFFFFFFF MUL NOT AND SWAP1 DUP4 PUSH20 0xFFFFFFFFFFFFFFFFFFFFFFFFFFFFFFFFFFFFFFFF AND MUL OR SWAP1 SSTORE POP CALLVALUE PUSH1 0x2 PUSH1 0x0 CALLER PUSH20 0xFFFFFFFFFFFFFFFFFFFFFFFFFFFFFFFFFFFFFFFF AND PUSH20 0xFFFFFFFFFFFFFFFFFFFFFFFFFFFFFFFFFFFFFFFF AND DUP2 MSTORE PUSH1 0x20 ADD SWAP1 DUP2 MSTORE PUSH1 0x20 ADD PUSH1 0x0 KECCAK256 DUP2 SWAP1 SSTORE POP JUMP JUMPDEST PUSH1 0x1 DUP2 DUP2 SLOAD DUP2 LT PUSH2 0x4E0 JUMPI PUSH1 0x0 DUP1 REVERT JUMPDEST SWAP1 PUSH1 0x0 MSTORE PUSH1 0x20 PUSH1 0x0 KECCAK256 ADD PUSH1 0x0 SWAP2 POP SLOAD SWAP1 PUSH2 0x100 EXP SWAP1 DIV PUSH20 0xFFFFFFFFFFFFFFFFFFFFFFFFFFFFFFFFFFFFFFFF AND DUP2 JUMP JUMPDEST PUSH1 0x0 DUP1 PUSH2 0x51A PUSH2 0x549 JUMP JUMPDEST SWAP1 POP PUSH1 0x0 PUSH8 0xDE0B6B3A7640000 DUP5 DUP4 PUSH2 0x533 SWAP2 SWAP1 PUSH2 0xA60 JUMP JUMPDEST PUSH2 0x53D SWAP2 SWAP1 PUSH2 0xAE9 JUMP JUMPDEST SWAP1 POP DUP1 SWAP3 POP POP POP SWAP2 SWAP1 POP JUMP JUMPDEST PUSH1 0x0 DUP1 PUSH20 0xD4A33860578DE61DBABDC8BFDB98FD742FA7028E SWAP1 POP PUSH1 0x0 DUP2 PUSH20 0xFFFFFFFFFFFFFFFFFFFFFFFFFFFFFFFFFFFFFFFF AND PUSH4 0xFEAF968C PUSH1 0x40 MLOAD DUP2 PUSH4 0xFFFFFFFF AND PUSH1 0xE0 SHL DUP2 MSTORE PUSH1 0x4 ADD PUSH1 0xA0 PUSH1 0x40 MLOAD DUP1 DUP4 SUB DUP2 DUP7 DUP1 EXTCODESIZE ISZERO DUP1 ISZERO PUSH2 0x5AB JUMPI PUSH1 0x0 DUP1 REVERT JUMPDEST POP GAS STATICCALL ISZERO DUP1 ISZERO PUSH2 0x5BF JUMPI RETURNDATASIZE PUSH1 0x0 DUP1 RETURNDATACOPY RETURNDATASIZE PUSH1 0x0 REVERT JUMPDEST POP POP POP POP PUSH1 0x40 MLOAD RETURNDATASIZE PUSH1 0x1F NOT PUSH1 0x1F DUP3 ADD AND DUP3 ADD DUP1 PUSH1 0x40 MSTORE POP DUP2 ADD SWAP1 PUSH2 0x5E3 SWAP2 SWAP1 PUSH2 0xBA7 JUMP JUMPDEST POP POP POP SWAP2 POP POP PUSH5 0x2540BE400 DUP2 PUSH2 0x5FA SWAP2 SWAP1 PUSH2 0xC22 JUMP JUMPDEST SWAP3 POP POP POP SWAP1 JUMP JUMPDEST DUP3 DUP1 SLOAD DUP3 DUP3 SSTORE SWAP1 PUSH1 0x0 MSTORE PUSH1 0x20 PUSH1 0x0 KECCAK256 SWAP1 DUP2 ADD SWAP3 DUP3 ISZERO PUSH2 0x67A JUMPI SWAP2 PUSH1 0x20 MUL DUP3 ADD JUMPDEST DUP3 DUP2 GT ISZERO PUSH2 0x679 JUMPI DUP3 MLOAD DUP3 PUSH1 0x0 PUSH2 0x100 EXP DUP2 SLOAD DUP2 PUSH20 0xFFFFFFFFFFFFFFFFFFFFFFFFFFFFFFFFFFFFFFFF MUL NOT AND SWAP1 DUP4 PUSH20 0xFFFFFFFFFFFFFFFFFFFFFFFFFFFFFFFFFFFFFFFF AND MUL OR SWAP1 SSTORE POP SWAP2 PUSH1 0x20 ADD SWAP2 SWAP1 PUSH1 0x1 ADD SWAP1 PUSH2 0x621 JUMP JUMPDEST JUMPDEST POP SWAP1 POP PUSH2 0x687 SWAP2 SWAP1 PUSH2 0x68B JUMP JUMPDEST POP SWAP1 JUMP JUMPDEST JUMPDEST DUP1 DUP3 GT ISZERO PUSH2 0x6A4 JUMPI PUSH1 0x0 DUP2 PUSH1 0x0 SWAP1 SSTORE POP PUSH1 0x1 ADD PUSH2 0x68C JUMP JUMPDEST POP SWAP1 JUMP JUMPDEST PUSH1 0x0 DUP2 SWAP1 POP SWAP2 SWAP1 POP JUMP JUMPDEST PUSH2 0x6BB DUP2 PUSH2 0x6A8 JUMP JUMPDEST DUP3 MSTORE POP POP JUMP JUMPDEST PUSH1 0x0 PUSH1 0x20 DUP3 ADD SWAP1 POP PUSH2 0x6D6 PUSH1 0x0 DUP4 ADD DUP5 PUSH2 0x6B2 JUMP JUMPDEST SWAP3 SWAP2 POP POP JUMP JUMPDEST PUSH1 0x0 DUP1 REVERT JUMPDEST PUSH1 0x0 PUSH20 0xFFFFFFFFFFFFFFFFFFFFFFFFFFFFFFFFFFFFFFFF DUP3 AND SWAP1 POP SWAP2 SWAP1 POP JUMP JUMPDEST PUSH1 0x0 PUSH2 0x70C DUP3 PUSH2 0x6E1 JUMP JUMPDEST SWAP1 POP SWAP2 SWAP1 POP JUMP JUMPDEST PUSH2 0x71C DUP2 PUSH2 0x701 JUMP JUMPDEST DUP2 EQ PUSH2 0x727 JUMPI PUSH1 0x0 DUP1 REVERT JUMPDEST POP JUMP JUMPDEST PUSH1 0x0 DUP2 CALLDATALOAD SWAP1 POP PUSH2 0x739 DUP2 PUSH2 0x713 JUMP JUMPDEST SWAP3 SWAP2 POP POP JUMP JUMPDEST PUSH1 0x0 PUSH1 0x20 DUP3 DUP5 SUB SLT ISZERO PUSH2 0x755 JUMPI PUSH2 0x754 PUSH2 0x6DC JUMP JUMPDEST JUMPDEST PUSH1 0x0 PUSH2 0x763 DUP5 DUP3 DUP6 ADD PUSH2 0x72A JUMP JUMPDEST SWAP2 POP POP SWAP3 SWAP2 POP POP JUMP JUMPDEST PUSH2 0x775 DUP2 PUSH2 0x701 JUMP JUMPDEST DUP3 MSTORE POP POP JUMP JUMPDEST PUSH1 0x0 PUSH1 0x20 DUP3 ADD SWAP1 POP PUSH2 0x790 PUSH1 0x0 DUP4 ADD DUP5 PUSH2 0x76C JUMP JUMPDEST SWAP3 SWAP2 POP POP JUMP JUMPDEST PUSH2 0x79F DUP2 PUSH2 0x6A8 JUMP JUMPDEST DUP2 EQ PUSH2 0x7AA JUMPI PUSH1 0x0 DUP1 REVERT JUMPDEST POP JUMP JUMPDEST PUSH1 0x0 DUP2 CALLDATALOAD SWAP1 POP PUSH2 0x7BC DUP2 PUSH2 0x796 JUMP JUMPDEST SWAP3 SWAP2 POP POP JUMP JUMPDEST PUSH1 0x0 PUSH1 0x20 DUP3 DUP5 SUB SLT ISZERO PUSH2 0x7D8 JUMPI PUSH2 0x7D7 PUSH2 0x6DC JUMP JUMPDEST JUMPDEST PUSH1 0x0 PUSH2 0x7E6 DUP5 DUP3 DUP6 ADD PUSH2 0x7AD JUMP JUMPDEST SWAP2 POP POP SWAP3 SWAP2 POP POP JUMP JUMPDEST PUSH1 0x0 DUP3 DUP3 MSTORE PUSH1 0x20 DUP3 ADD SWAP1 POP SWAP3 SWAP2 POP POP JUMP JUMPDEST PUSH32 0x596F7520617265206E6F74206F776E6572000000000000000000000000000000 PUSH1 0x0 DUP3 ADD MSTORE POP JUMP JUMPDEST PUSH1 0x0 PUSH2 0x836 PUSH1 0x11 DUP4 PUSH2 0x7EF JUMP JUMPDEST SWAP2 POP PUSH2 0x841 DUP3 PUSH2 0x800 JUMP JUMPDEST PUSH1 0x20 DUP3 ADD SWAP1 POP SWAP2 SWAP1 POP JUMP JUMPDEST PUSH1 0x0 PUSH1 0x20 DUP3 ADD SWAP1 POP DUP2 DUP2 SUB PUSH1 0x0 DUP4 ADD MSTORE PUSH2 0x865 DUP2 PUSH2 0x829 JUMP JUMPDEST SWAP1 POP SWAP2 SWAP1 POP JUMP JUMPDEST PUSH32 0x4E487B7100000000000000000000000000000000000000000000000000000000 PUSH1 0x0 MSTORE PUSH1 0x32 PUSH1 0x4 MSTORE PUSH1 0x24 PUSH1 0x0 REVERT JUMPDEST PUSH32 0x4E487B7100000000000000000000000000000000000000000000000000000000 PUSH1 0x0 MSTORE PUSH1 0x11 PUSH1 0x4 MSTORE PUSH1 0x24 PUSH1 0x0 REVERT JUMPDEST PUSH1 0x0 PUSH2 0x8D5 DUP3 PUSH2 0x6A8 JUMP JUMPDEST SWAP2 POP PUSH32 0xFFFFFFFFFFFFFFFFFFFFFFFFFFFFFFFFFFFFFFFFFFFFFFFFFFFFFFFFFFFFFFFF DUP3 EQ ISZERO PUSH2 0x908 JUMPI PUSH2 0x907 PUSH2 0x89B JUMP JUMPDEST JUMPDEST PUSH1 0x1 DUP3 ADD SWAP1 POP SWAP2 SWAP1 POP JUMP JUMPDEST PUSH32 0x4E487B7100000000000000000000000000000000000000000000000000000000 PUSH1 0x0 MSTORE PUSH1 0x41 PUSH1 0x4 MSTORE PUSH1 0x24 PUSH1 0x0 REVERT JUMPDEST PUSH1 0x0 DUP2 SWAP1 POP SWAP3 SWAP2 POP POP JUMP JUMPDEST POP JUMP JUMPDEST PUSH1 0x0 PUSH2 0x95D PUSH1 0x0 DUP4 PUSH2 0x942 JUMP JUMPDEST SWAP2 POP PUSH2 0x968 DUP3 PUSH2 0x94D JUMP JUMPDEST PUSH1 0x0 DUP3 ADD SWAP1 POP SWAP2 SWAP1 POP JUMP JUMPDEST PUSH1 0x0 PUSH2 0x97E DUP3 PUSH2 0x950 JUMP JUMPDEST SWAP2 POP DUP2 SWAP1 POP SWAP2 SWAP1 POP JUMP JUMPDEST PUSH32 0x43616C6C206661696C6400000000000000000000000000000000000000000000 PUSH1 0x0 DUP3 ADD MSTORE POP JUMP JUMPDEST PUSH1 0x0 PUSH2 0x9BE PUSH1 0xA DUP4 PUSH2 0x7EF JUMP JUMPDEST SWAP2 POP PUSH2 0x9C9 DUP3 PUSH2 0x988 JUMP JUMPDEST PUSH1 0x20 DUP3 ADD SWAP1 POP SWAP2 SWAP1 POP JUMP JUMPDEST PUSH1 0x0 PUSH1 0x20 DUP3 ADD SWAP1 POP DUP2 DUP2 SUB PUSH1 0x0 DUP4 ADD MSTORE PUSH2 0x9ED DUP2 PUSH2 0x9B1 JUMP JUMPDEST SWAP1 POP SWAP2 SWAP1 POP JUMP JUMPDEST PUSH32 0x4469646E277420736E656420656E6F7567680000000000000000000000000000 PUSH1 0x0 DUP3 ADD MSTORE POP JUMP JUMPDEST PUSH1 0x0 PUSH2 0xA2A PUSH1 0x12 DUP4 PUSH2 0x7EF JUMP JUMPDEST SWAP2 POP PUSH2 0xA35 DUP3 PUSH2 0x9F4 JUMP JUMPDEST PUSH1 0x20 DUP3 ADD SWAP1 POP SWAP2 SWAP1 POP JUMP JUMPDEST PUSH1 0x0 PUSH1 0x20 DUP3 ADD SWAP1 POP DUP2 DUP2 SUB PUSH1 0x0 DUP4 ADD MSTORE PUSH2 0xA59 DUP2 PUSH2 0xA1D JUMP JUMPDEST SWAP1 POP SWAP2 SWAP1 POP JUMP JUMPDEST PUSH1 0x0 PUSH2 0xA6B DUP3 PUSH2 0x6A8 JUMP JUMPDEST SWAP2 POP PUSH2 0xA76 DUP4 PUSH2 0x6A8 JUMP JUMPDEST SWAP3 POP DUP2 PUSH32 0xFFFFFFFFFFFFFFFFFFFFFFFFFFFFFFFFFFFFFFFFFFFFFFFFFFFFFFFFFFFFFFFF DIV DUP4 GT DUP3 ISZERO ISZERO AND ISZERO PUSH2 0xAAF JUMPI PUSH2 0xAAE PUSH2 0x89B JUMP JUMPDEST JUMPDEST DUP3 DUP3 MUL SWAP1 POP SWAP3 SWAP2 POP POP JUMP JUMPDEST PUSH32 0x4E487B7100000000000000000000000000000000000000000000000000000000 PUSH1 0x0 MSTORE PUSH1 0x12 PUSH1 0x4 MSTORE PUSH1 0x24 PUSH1 0x0 REVERT JUMPDEST PUSH1 0x0 PUSH2 0xAF4 DUP3 PUSH2 0x6A8 JUMP JUMPDEST SWAP2 POP PUSH2 0xAFF DUP4 PUSH2 0x6A8 JUMP JUMPDEST SWAP3 POP DUP3 PUSH2 0xB0F JUMPI PUSH2 0xB0E PUSH2 0xABA JUMP JUMPDEST JUMPDEST DUP3 DUP3 DIV SWAP1 POP SWAP3 SWAP2 POP POP JUMP JUMPDEST PUSH1 0x0 PUSH10 0xFFFFFFFFFFFFFFFFFFFF DUP3 AND SWAP1 POP SWAP2 SWAP1 POP JUMP JUMPDEST PUSH2 0xB39 DUP2 PUSH2 0xB1A JUMP JUMPDEST DUP2 EQ PUSH2 0xB44 JUMPI PUSH1 0x0 DUP1 REVERT JUMPDEST POP JUMP JUMPDEST PUSH1 0x0 DUP2 MLOAD SWAP1 POP PUSH2 0xB56 DUP2 PUSH2 0xB30 JUMP JUMPDEST SWAP3 SWAP2 POP POP JUMP JUMPDEST PUSH1 0x0 DUP2 SWAP1 POP SWAP2 SWAP1 POP JUMP JUMPDEST PUSH2 0xB6F DUP2 PUSH2 0xB5C JUMP JUMPDEST DUP2 EQ PUSH2 0xB7A JUMPI PUSH1 0x0 DUP1 REVERT JUMPDEST POP JUMP JUMPDEST PUSH1 0x0 DUP2 MLOAD SWAP1 POP PUSH2 0xB8C DUP2 PUSH2 0xB66 JUMP JUMPDEST SWAP3 SWAP2 POP POP JUMP JUMPDEST PUSH1 0x0 DUP2 MLOAD SWAP1 POP PUSH2 0xBA1 DUP2 PUSH2 0x796 JUMP JUMPDEST SWAP3 SWAP2 POP POP JUMP JUMPDEST PUSH1 0x0 DUP1 PUSH1 0x0 DUP1 PUSH1 0x0 PUSH1 0xA0 DUP7 DUP9 SUB SLT ISZERO PUSH2 0xBC3 JUMPI PUSH2 0xBC2 PUSH2 0x6DC JUMP JUMPDEST JUMPDEST PUSH1 0x0 PUSH2 0xBD1 DUP9 DUP3 DUP10 ADD PUSH2 0xB47 JUMP JUMPDEST SWAP6 POP POP PUSH1 0x20 PUSH2 0xBE2 DUP9 DUP3 DUP10 ADD PUSH2 0xB7D JUMP JUMPDEST SWAP5 POP POP PUSH1 0x40 PUSH2 0xBF3 DUP9 DUP3 DUP10 ADD PUSH2 0xB92 JUMP JUMPDEST SWAP4 POP POP PUSH1 0x60 PUSH2 0xC04 DUP9 DUP3 DUP10 ADD PUSH2 0xB92 JUMP JUMPDEST SWAP3 POP POP PUSH1 0x80 PUSH2 0xC15 DUP9 DUP3 DUP10 ADD PUSH2 0xB47 JUMP JUMPDEST SWAP2 POP POP SWAP3 SWAP6 POP SWAP3 SWAP6 SWAP1 SWAP4 POP JUMP JUMPDEST PUSH1 0x0 PUSH2 0xC2D DUP3 PUSH2 0xB5C JUMP JUMPDEST SWAP2 POP PUSH2 0xC38 DUP4 PUSH2 0xB5C JUMP JUMPDEST SWAP3 POP DUP3 PUSH32 0x7FFFFFFFFFFFFFFFFFFFFFFFFFFFFFFFFFFFFFFFFFFFFFFFFFFFFFFFFFFFFFFF DIV DUP3 GT PUSH1 0x0 DUP5 SGT PUSH1 0x0 DUP5 SGT AND AND ISZERO PUSH2 0xC77 JUMPI PUSH2 0xC76 PUSH2 0x89B JUMP JUMPDEST JUMPDEST DUP2 PUSH32 0x8000000000000000000000000000000000000000000000000000000000000000 SDIV DUP4 SLT PUSH1 0x0 DUP5 SLT PUSH1 0x0 DUP5 SGT AND AND ISZERO PUSH2 0xCB4 JUMPI PUSH2 0xCB3 PUSH2 0x89B JUMP JUMPDEST JUMPDEST DUP3 PUSH32 0x8000000000000000000000000000000000000000000000000000000000000000 SDIV DUP3 SLT PUSH1 0x0 DUP5 SGT PUSH1 0x0 DUP5 SLT AND AND ISZERO PUSH2 0xCF1 JUMPI PUSH2 0xCF0 PUSH2 0x89B JUMP JUMPDEST JUMPDEST DUP3 PUSH32 0x7FFFFFFFFFFFFFFFFFFFFFFFFFFFFFFFFFFFFFFFFFFFFFFFFFFFFFFFFFFFFFFF SDIV DUP3 SLT PUSH1 0x0 DUP5 SLT PUSH1 0x0 DUP5 SLT AND AND ISZERO PUSH2 0xD2E JUMPI PUSH2 0xD2D PUSH2 0x89B JUMP JUMPDEST JUMPDEST DUP3 DUP3 MUL SWAP1 POP SWAP3 SWAP2 POP POP JUMP INVALID LOG2 PUSH5 0x6970667358 0x22 SLT KECCAK256 JUMP 0xFC CALLDATASIZE SWAP15 CALLDATACOPY PUSH13 0xC65387660602B9156454420549 PUSH30 0x9257ABCEC1E9022E4479694664736F6C6343000808003300000000000000 "
				},
				"gasEstimates": {
					"creation": {
						"codeDepositCost": "687800",
						"executionCost": "47093",
						"totalCost": "734893"
					},
					"external": {
						"addressToAmountFunded(address)": "2836",
						"fund()": "infinite",
						"funders(uint256)": "5044",
						"minimumUsd()": "2407",
						"owner()": "2558",
						"withdrow()": "infinite"
					}
				},
				"methodIdentifiers": {
					"addressToAmountFunded(address)": "3e47d6f3",
					"fund()": "b60d4288",
					"funders(uint256)": "dc0d3dff",
					"minimumUsd()": "098de820",
					"owner()": "8da5cb5b",
					"withdrow()": "3b874521"
				}
			},
			"storageLayout": {
				"storage": [
					{
						"astId": 56,
						"contract": "contracts/FundMe.sol:FundMe",
						"label": "minimumUsd",
						"offset": 0,
						"slot": "0",
						"type": "t_uint256"
					},
					{
						"astId": 59,
						"contract": "contracts/FundMe.sol:FundMe",
						"label": "funders",
						"offset": 0,
						"slot": "1",
						"type": "t_array(t_address)dyn_storage"
					},
					{
						"astId": 63,
						"contract": "contracts/FundMe.sol:FundMe",
						"label": "addressToAmountFunded",
						"offset": 0,
						"slot": "2",
						"type": "t_mapping(t_address,t_uint256)"
					},
					{
						"astId": 65,
						"contract": "contracts/FundMe.sol:FundMe",
						"label": "owner",
						"offset": 0,
						"slot": "3",
						"type": "t_address"
					}
				],
				"types": {
					"t_address": {
						"encoding": "inplace",
						"label": "address",
						"numberOfBytes": "20"
					},
					"t_array(t_address)dyn_storage": {
						"base": "t_address",
						"encoding": "dynamic_array",
						"label": "address[]",
						"numberOfBytes": "32"
					},
					"t_mapping(t_address,t_uint256)": {
						"encoding": "mapping",
						"key": "t_address",
						"label": "mapping(address => uint256)",
						"numberOfBytes": "32",
						"value": "t_uint256"
					},
					"t_uint256": {
						"encoding": "inplace",
						"label": "uint256",
						"numberOfBytes": "32"
					}
				}
			},
			"userdoc": {
				"kind": "user",
				"methods": {},
				"version": 1
			}
		}
	}
}